{
	"simplestorage.sol": {
		"simplestorage": {
			"abi": [
				{
					"inputs": [
						{
							"internalType": "uint256",
							"name": "num",
							"type": "uint256"
						}
					],
					"name": "addage",
					"outputs": [],
					"stateMutability": "nonpayable",
					"type": "function"
				},
				{
					"inputs": [
						{
							"internalType": "string",
							"name": "name",
							"type": "string"
						}
					],
					"name": "addmentees",
					"outputs": [],
					"stateMutability": "nonpayable",
					"type": "function"
				},
				{
					"inputs": [
						{
							"internalType": "uint256",
							"name": "",
							"type": "uint256"
						}
					],
					"name": "mentee",
					"outputs": [
						{
							"internalType": "string",
							"name": "name",
							"type": "string"
						},
						{
							"internalType": "uint256",
							"name": "age",
							"type": "uint256"
						},
						{
							"internalType": "bool",
							"name": "ispresent",
							"type": "bool"
						}
					],
					"stateMutability": "view",
					"type": "function"
				},
				{
					"inputs": [],
					"name": "print",
					"outputs": [
						{
							"components": [
								{
									"internalType": "string",
									"name": "name",
									"type": "string"
								},
								{
									"internalType": "uint256",
									"name": "age",
									"type": "uint256"
								},
								{
									"internalType": "bool",
									"name": "ispresent",
									"type": "bool"
								}
							],
							"internalType": "struct simplestorage.Mentee[]",
							"name": "",
							"type": "tuple[]"
						}
					],
					"stateMutability": "view",
					"type": "function"
				},
				{
					"inputs": [
						{
							"internalType": "string",
							"name": "_name",
							"type": "string"
						},
						{
							"internalType": "uint256",
							"name": "_age",
							"type": "uint256"
						},
						{
							"internalType": "bool",
							"name": "_ispresent",
							"type": "bool"
						}
					],
					"name": "setm",
					"outputs": [],
					"stateMutability": "nonpayable",
					"type": "function"
				},
				{
					"inputs": [],
					"name": "showlist",
					"outputs": [
						{
							"internalType": "string[]",
							"name": "",
							"type": "string[]"
						}
					],
					"stateMutability": "view",
					"type": "function"
				},
				{
					"inputs": [],
					"name": "viewlist",
					"outputs": [
						{
							"internalType": "uint256[]",
							"name": "",
							"type": "uint256[]"
						}
					],
					"stateMutability": "view",
					"type": "function"
				}
			],
			"devdoc": {
				"kind": "dev",
				"methods": {},
				"version": 1
			},
			"evm": {
				"assembly": "    /* \"simplestorage.sol\":63:749  contract simplestorage{... */\n  mstore(0x40, 0x80)\n  callvalue\n  dup1\n  iszero\n  tag_1\n  jumpi\n  revert(0x00, 0x00)\ntag_1:\n  pop\n  dataSize(sub_0)\n  dup1\n  dataOffset(sub_0)\n  0x00\n  codecopy\n  0x00\n  return\nstop\n\nsub_0: assembly {\n        /* \"simplestorage.sol\":63:749  contract simplestorage{... */\n      mstore(0x40, 0x80)\n      callvalue\n      dup1\n      iszero\n      tag_1\n      jumpi\n      revert(0x00, 0x00)\n    tag_1:\n      pop\n      jumpi(tag_2, lt(calldatasize, 0x04))\n      shr(0xe0, calldataload(0x00))\n      dup1\n      0x6ff4ea7c\n      gt\n      tag_10\n      jumpi\n      dup1\n      0x6ff4ea7c\n      eq\n      tag_6\n      jumpi\n      dup1\n      0x8931940d\n      eq\n      tag_7\n      jumpi\n      dup1\n      0x89347d60\n      eq\n      tag_8\n      jumpi\n      dup1\n      0xd0ad7bed\n      eq\n      tag_9\n      jumpi\n      jump(tag_2)\n    tag_10:\n      dup1\n      0x0d4e76b0\n      eq\n      tag_3\n      jumpi\n      dup1\n      0x13bdfacd\n      eq\n      tag_4\n      jumpi\n      dup1\n      0x278be2e8\n      eq\n      tag_5\n      jumpi\n    tag_2:\n      revert(0x00, 0x00)\n        /* \"simplestorage.sol\":546:666  function setm(string memory _name,uint _age,bool _ispresent) public {... */\n    tag_3:\n      tag_11\n      0x04\n      dup1\n      calldatasize\n      sub\n      dup2\n      add\n      swap1\n      tag_12\n      swap2\n      swap1\n      tag_13\n      jump\t// in\n    tag_12:\n      tag_14\n      jump\t// in\n    tag_11:\n      stop\n        /* \"simplestorage.sol\":669:745  function print() public view returns(Mentee[] memory){... */\n    tag_4:\n      tag_15\n      tag_16\n      jump\t// in\n    tag_15:\n      mload(0x40)\n      tag_17\n      swap2\n      swap1\n      tag_18\n      jump\t// in\n    tag_17:\n      mload(0x40)\n      dup1\n      swap2\n      sub\n      swap1\n      return\n        /* \"simplestorage.sol\":213:276  function addage( uint num) public {... */\n    tag_5:\n      tag_19\n      0x04\n      dup1\n      calldatasize\n      sub\n      dup2\n      add\n      swap1\n      tag_20\n      swap2\n      swap1\n      tag_21\n      jump\t// in\n    tag_20:\n      tag_22\n      jump\t// in\n    tag_19:\n      stop\n        /* \"simplestorage.sol\":517:540  Mentee[] public  mentee */\n    tag_6:\n      tag_23\n      0x04\n      dup1\n      calldatasize\n      sub\n      dup2\n      add\n      swap1\n      tag_24\n      swap2\n      swap1\n      tag_21\n      jump\t// in\n    tag_24:\n      tag_25\n      jump\t// in\n    tag_23:\n      mload(0x40)\n      tag_26\n      swap4\n      swap3\n      swap2\n      swap1\n      tag_27\n      jump\t// in\n    tag_26:\n      mload(0x40)\n      dup1\n      swap2\n      sub\n      swap1\n      return\n        /* \"simplestorage.sol\":361:441  function showlist() public view returns(string[] memory){... */\n    tag_7:\n      tag_28\n      tag_29\n      jump\t// in\n    tag_28:\n      mload(0x40)\n      tag_30\n      swap2\n      swap1\n      tag_31\n      jump\t// in\n    tag_30:\n      mload(0x40)\n      dup1\n      swap2\n      sub\n      swap1\n      return\n        /* \"simplestorage.sol\":282:356  function viewlist() public view returns(uint[] memory){... */\n    tag_8:\n      tag_32\n      tag_33\n      jump\t// in\n    tag_32:\n      mload(0x40)\n      tag_34\n      swap2\n      swap1\n      tag_35\n      jump\t// in\n    tag_34:\n      mload(0x40)\n      dup1\n      swap2\n      sub\n      swap1\n      return\n        /* \"simplestorage.sol\":115:194  function addmentees(string memory name) public {... */\n    tag_9:\n      tag_36\n      0x04\n      dup1\n      calldatasize\n      sub\n      dup2\n      add\n      swap1\n      tag_37\n      swap2\n      swap1\n      tag_38\n      jump\t// in\n    tag_37:\n      tag_39\n      jump\t// in\n    tag_36:\n      stop\n        /* \"simplestorage.sol\":546:666  function setm(string memory _name,uint _age,bool _ispresent) public {... */\n    tag_14:\n        /* \"simplestorage.sol\":619:625  mentee */\n      0x02\n        /* \"simplestorage.sol\":631:660  Mentee(_name,_age,_ispresent) */\n      mload(0x40)\n      dup1\n      0x60\n      add\n      0x40\n      mstore\n      dup1\n        /* \"simplestorage.sol\":638:643  _name */\n      dup6\n        /* \"simplestorage.sol\":631:660  Mentee(_name,_age,_ispresent) */\n      dup2\n      mstore\n      0x20\n      add\n        /* \"simplestorage.sol\":644:648  _age */\n      dup5\n        /* \"simplestorage.sol\":631:660  Mentee(_name,_age,_ispresent) */\n      dup2\n      mstore\n      0x20\n      add\n        /* \"simplestorage.sol\":649:659  _ispresent */\n      dup4\n        /* \"simplestorage.sol\":631:660  Mentee(_name,_age,_ispresent) */\n      iszero\n      iszero\n      dup2\n      mstore\n      pop\n        /* \"simplestorage.sol\":619:661  mentee.push(Mentee(_name,_age,_ispresent)) */\n      swap1\n      dup1\n      0x01\n      dup2\n      sload\n      add\n      dup1\n      dup3\n      sstore\n      dup1\n      swap2\n      pop\n      pop\n      0x01\n      swap1\n      sub\n      swap1\n      0x00\n      mstore\n      keccak256(0x00, 0x20)\n      swap1\n      0x03\n      mul\n      add\n      0x00\n      swap1\n      swap2\n      swap1\n      swap2\n      swap1\n      swap2\n      pop\n      0x00\n      dup3\n      add\n      mload\n      dup2\n      0x00\n      add\n      swap1\n      dup2\n      tag_42\n      swap2\n      swap1\n      tag_43\n      jump\t// in\n    tag_42:\n      pop\n      0x20\n      dup3\n      add\n      mload\n      dup2\n      0x01\n      add\n      sstore\n      0x40\n      dup3\n      add\n      mload\n      dup2\n      0x02\n      add\n      exp(0x0100, 0x00)\n      dup2\n      sload\n      dup2\n      0xff\n      mul\n      not\n      and\n      swap1\n      dup4\n      iszero\n      iszero\n      mul\n      or\n      swap1\n      sstore\n      pop\n      pop\n      pop\n        /* \"simplestorage.sol\":546:666  function setm(string memory _name,uint _age,bool _ispresent) public {... */\n      pop\n      pop\n      pop\n      jump\t// out\n        /* \"simplestorage.sol\":669:745  function print() public view returns(Mentee[] memory){... */\n    tag_16:\n        /* \"simplestorage.sol\":706:721  Mentee[] memory */\n      0x60\n        /* \"simplestorage.sol\":734:740  mentee */\n      0x02\n        /* \"simplestorage.sol\":727:740  return mentee */\n      dup1\n      sload\n      dup1\n      0x20\n      mul\n      0x20\n      add\n      mload(0x40)\n      swap1\n      dup2\n      add\n      0x40\n      mstore\n      dup1\n      swap3\n      swap2\n      swap1\n      dup2\n      dup2\n      mstore\n      0x20\n      add\n      0x00\n      swap1\n    tag_45:\n      dup3\n      dup3\n      lt\n      iszero\n      tag_46\n      jumpi\n      dup4\n      dup3\n      swap1\n      0x00\n      mstore\n      keccak256(0x00, 0x20)\n      swap1\n      0x03\n      mul\n      add\n      mload(0x40)\n      dup1\n      0x60\n      add\n      0x40\n      mstore\n      swap1\n      dup2\n      0x00\n      dup3\n      add\n      dup1\n      sload\n      tag_48\n      swap1\n      tag_49\n      jump\t// in\n    tag_48:\n      dup1\n      0x1f\n      add\n      0x20\n      dup1\n      swap2\n      div\n      mul\n      0x20\n      add\n      mload(0x40)\n      swap1\n      dup2\n      add\n      0x40\n      mstore\n      dup1\n      swap3\n      swap2\n      swap1\n      dup2\n      dup2\n      mstore\n      0x20\n      add\n      dup3\n      dup1\n      sload\n      tag_50\n      swap1\n      tag_49\n      jump\t// in\n    tag_50:\n      dup1\n      iszero\n      tag_51\n      jumpi\n      dup1\n      0x1f\n      lt\n      tag_52\n      jumpi\n      0x0100\n      dup1\n      dup4\n      sload\n      div\n      mul\n      dup4\n      mstore\n      swap2\n      0x20\n      add\n      swap2\n      jump(tag_51)\n    tag_52:\n      dup3\n      add\n      swap2\n      swap1\n      0x00\n      mstore\n      keccak256(0x00, 0x20)\n      swap1\n    tag_53:\n      dup2\n      sload\n      dup2\n      mstore\n      swap1\n      0x01\n      add\n      swap1\n      0x20\n      add\n      dup1\n      dup4\n      gt\n      tag_53\n      jumpi\n      dup3\n      swap1\n      sub\n      0x1f\n      and\n      dup3\n      add\n      swap2\n    tag_51:\n      pop\n      pop\n      pop\n      pop\n      pop\n      dup2\n      mstore\n      0x20\n      add\n      0x01\n      dup3\n      add\n      sload\n      dup2\n      mstore\n      0x20\n      add\n      0x02\n      dup3\n      add\n      0x00\n      swap1\n      sload\n      swap1\n      0x0100\n      exp\n      swap1\n      div\n      0xff\n      and\n      iszero\n      iszero\n      iszero\n      iszero\n      dup2\n      mstore\n      pop\n      pop\n      dup2\n      mstore\n      0x20\n      add\n      swap1\n      0x01\n      add\n      swap1\n      jump(tag_45)\n    tag_46:\n      pop\n      pop\n      pop\n      pop\n      swap1\n      pop\n        /* \"simplestorage.sol\":669:745  function print() public view returns(Mentee[] memory){... */\n      swap1\n      jump\t// out\n        /* \"simplestorage.sol\":213:276  function addage( uint num) public {... */\n    tag_22:\n        /* \"simplestorage.sol\":256:259  age */\n      0x01\n        /* \"simplestorage.sol\":265:268  num */\n      dup2\n        /* \"simplestorage.sol\":256:269  age.push(num) */\n      swap1\n      dup1\n      0x01\n      dup2\n      sload\n      add\n      dup1\n      dup3\n      sstore\n      dup1\n      swap2\n      pop\n      pop\n      0x01\n      swap1\n      sub\n      swap1\n      0x00\n      mstore\n      keccak256(0x00, 0x20)\n      add\n      0x00\n      swap1\n      swap2\n      swap1\n      swap2\n      swap1\n      swap2\n      pop\n      sstore\n        /* \"simplestorage.sol\":213:276  function addage( uint num) public {... */\n      pop\n      jump\t// out\n        /* \"simplestorage.sol\":517:540  Mentee[] public  mentee */\n    tag_25:\n      0x02\n      dup2\n      dup2\n      sload\n      dup2\n      lt\n      tag_56\n      jumpi\n      0x00\n      dup1\n      revert\n    tag_56:\n      swap1\n      0x00\n      mstore\n      keccak256(0x00, 0x20)\n      swap1\n      0x03\n      mul\n      add\n      0x00\n      swap2\n      pop\n      swap1\n      pop\n      dup1\n      0x00\n      add\n      dup1\n      sload\n      tag_58\n      swap1\n      tag_49\n      jump\t// in\n    tag_58:\n      dup1\n      0x1f\n      add\n      0x20\n      dup1\n      swap2\n      div\n      mul\n      0x20\n      add\n      mload(0x40)\n      swap1\n      dup2\n      add\n      0x40\n      mstore\n      dup1\n      swap3\n      swap2\n      swap1\n      dup2\n      dup2\n      mstore\n      0x20\n      add\n      dup3\n      dup1\n      sload\n      tag_59\n      swap1\n      tag_49\n      jump\t// in\n    tag_59:\n      dup1\n      iszero\n      tag_60\n      jumpi\n      dup1\n      0x1f\n      lt\n      tag_61\n      jumpi\n      0x0100\n      dup1\n      dup4\n      sload\n      div\n      mul\n      dup4\n      mstore\n      swap2\n      0x20\n      add\n      swap2\n      jump(tag_60)\n    tag_61:\n      dup3\n      add\n      swap2\n      swap1\n      0x00\n      mstore\n      keccak256(0x00, 0x20)\n      swap1\n    tag_62:\n      dup2\n      sload\n      dup2\n      mstore\n      swap1\n      0x01\n      add\n      swap1\n      0x20\n      add\n      dup1\n      dup4\n      gt\n      tag_62\n      jumpi\n      dup3\n      swap1\n      sub\n      0x1f\n      and\n      dup3\n      add\n      swap2\n    tag_60:\n      pop\n      pop\n      pop\n      pop\n      pop\n      swap1\n      dup1\n      0x01\n      add\n      sload\n      swap1\n      dup1\n      0x02\n      add\n      0x00\n      swap1\n      sload\n      swap1\n      0x0100\n      exp\n      swap1\n      div\n      0xff\n      and\n      swap1\n      pop\n      dup4\n      jump\t// out\n        /* \"simplestorage.sol\":361:441  function showlist() public view returns(string[] memory){... */\n    tag_29:\n        /* \"simplestorage.sol\":401:416  string[] memory */\n      0x60\n        /* \"simplestorage.sol\":429:436  mentees */\n      0x00\n        /* \"simplestorage.sol\":422:436  return mentees */\n      dup1\n      sload\n      dup1\n      0x20\n      mul\n      0x20\n      add\n      mload(0x40)\n      swap1\n      dup2\n      add\n      0x40\n      mstore\n      dup1\n      swap3\n      swap2\n      swap1\n      dup2\n      dup2\n      mstore\n      0x20\n      add\n      0x00\n      swap1\n    tag_64:\n      dup3\n      dup3\n      lt\n      iszero\n      tag_65\n      jumpi\n      dup4\n      dup3\n      swap1\n      0x00\n      mstore\n      keccak256(0x00, 0x20)\n      add\n      dup1\n      sload\n      tag_67\n      swap1\n      tag_49\n      jump\t// in\n    tag_67:\n      dup1\n      0x1f\n      add\n      0x20\n      dup1\n      swap2\n      div\n      mul\n      0x20\n      add\n      mload(0x40)\n      swap1\n      dup2\n      add\n      0x40\n      mstore\n      dup1\n      swap3\n      swap2\n      swap1\n      dup2\n      dup2\n      mstore\n      0x20\n      add\n      dup3\n      dup1\n      sload\n      tag_68\n      swap1\n      tag_49\n      jump\t// in\n    tag_68:\n      dup1\n      iszero\n      tag_69\n      jumpi\n      dup1\n      0x1f\n      lt\n      tag_70\n      jumpi\n      0x0100\n      dup1\n      dup4\n      sload\n      div\n      mul\n      dup4\n      mstore\n      swap2\n      0x20\n      add\n      swap2\n      jump(tag_69)\n    tag_70:\n      dup3\n      add\n      swap2\n      swap1\n      0x00\n      mstore\n      keccak256(0x00, 0x20)\n      swap1\n    tag_71:\n      dup2\n      sload\n      dup2\n      mstore\n      swap1\n      0x01\n      add\n      swap1\n      0x20\n      add\n      dup1\n      dup4\n      gt\n      tag_71\n      jumpi\n      dup3\n      swap1\n      sub\n      0x1f\n      and\n      dup3\n      add\n      swap2\n    tag_69:\n      pop\n      pop\n      pop\n      pop\n      pop\n      dup2\n      mstore\n      0x20\n      add\n      swap1\n      0x01\n      add\n      swap1\n      jump(tag_64)\n    tag_65:\n      pop\n      pop\n      pop\n      pop\n      swap1\n      pop\n        /* \"simplestorage.sol\":361:441  function showlist() public view returns(string[] memory){... */\n      swap1\n      jump\t// out\n        /* \"simplestorage.sol\":282:356  function viewlist() public view returns(uint[] memory){... */\n    tag_33:\n        /* \"simplestorage.sol\":322:335  uint[] memory */\n      0x60\n        /* \"simplestorage.sol\":348:351  age */\n      0x01\n        /* \"simplestorage.sol\":341:351  return age */\n      dup1\n      sload\n      dup1\n      0x20\n      mul\n      0x20\n      add\n      mload(0x40)\n      swap1\n      dup2\n      add\n      0x40\n      mstore\n      dup1\n      swap3\n      swap2\n      swap1\n      dup2\n      dup2\n      mstore\n      0x20\n      add\n      dup3\n      dup1\n      sload\n      dup1\n      iszero\n      tag_73\n      jumpi\n      0x20\n      mul\n      dup3\n      add\n      swap2\n      swap1\n      0x00\n      mstore\n      keccak256(0x00, 0x20)\n      swap1\n    tag_74:\n      dup2\n      sload\n      dup2\n      mstore\n      0x20\n      add\n      swap1\n      0x01\n      add\n      swap1\n      dup1\n      dup4\n      gt\n      tag_74\n      jumpi\n    tag_73:\n      pop\n      pop\n      pop\n      pop\n      pop\n      swap1\n      pop\n        /* \"simplestorage.sol\":282:356  function viewlist() public view returns(uint[] memory){... */\n      swap1\n      jump\t// out\n        /* \"simplestorage.sol\":115:194  function addmentees(string memory name) public {... */\n    tag_39:\n        /* \"simplestorage.sol\":169:176  mentees */\n      0x00\n        /* \"simplestorage.sol\":182:186  name */\n      dup2\n        /* \"simplestorage.sol\":169:187  mentees.push(name) */\n      swap1\n      dup1\n      0x01\n      dup2\n      sload\n      add\n      dup1\n      dup3\n      sstore\n      dup1\n      swap2\n      pop\n      pop\n      0x01\n      swap1\n      sub\n      swap1\n      0x00\n      mstore\n      keccak256(0x00, 0x20)\n      add\n      0x00\n      swap1\n      swap2\n      swap1\n      swap2\n      swap1\n      swap2\n      pop\n      swap1\n      dup2\n      tag_77\n      swap2\n      swap1\n      tag_43\n      jump\t// in\n    tag_77:\n      pop\n        /* \"simplestorage.sol\":115:194  function addmentees(string memory name) public {... */\n      pop\n      jump\t// out\n        /* \"#utility.yul\":7:82   */\n    tag_78:\n        /* \"#utility.yul\":40:46   */\n      0x00\n        /* \"#utility.yul\":73:75   */\n      0x40\n        /* \"#utility.yul\":67:76   */\n      mload\n        /* \"#utility.yul\":57:76   */\n      swap1\n      pop\n        /* \"#utility.yul\":7:82   */\n      swap1\n      jump\t// out\n        /* \"#utility.yul\":88:205   */\n    tag_79:\n        /* \"#utility.yul\":197:198   */\n      0x00\n        /* \"#utility.yul\":194:195   */\n      0x00\n        /* \"#utility.yul\":187:199   */\n      revert\n        /* \"#utility.yul\":211:328   */\n    tag_80:\n        /* \"#utility.yul\":320:321   */\n      0x00\n        /* \"#utility.yul\":317:318   */\n      0x00\n        /* \"#utility.yul\":310:322   */\n      revert\n        /* \"#utility.yul\":334:451   */\n    tag_81:\n        /* \"#utility.yul\":443:444   */\n      0x00\n        /* \"#utility.yul\":440:441   */\n      0x00\n        /* \"#utility.yul\":433:445   */\n      revert\n        /* \"#utility.yul\":457:574   */\n    tag_82:\n        /* \"#utility.yul\":566:567   */\n      0x00\n        /* \"#utility.yul\":563:564   */\n      0x00\n        /* \"#utility.yul\":556:568   */\n      revert\n        /* \"#utility.yul\":580:682   */\n    tag_83:\n        /* \"#utility.yul\":621:627   */\n      0x00\n        /* \"#utility.yul\":672:674   */\n      0x1f\n        /* \"#utility.yul\":668:675   */\n      not\n        /* \"#utility.yul\":663:665   */\n      0x1f\n        /* \"#utility.yul\":656:661   */\n      dup4\n        /* \"#utility.yul\":652:666   */\n      add\n        /* \"#utility.yul\":648:676   */\n      and\n        /* \"#utility.yul\":638:676   */\n      swap1\n      pop\n        /* \"#utility.yul\":580:682   */\n      swap2\n      swap1\n      pop\n      jump\t// out\n        /* \"#utility.yul\":688:868   */\n    tag_84:\n        /* \"#utility.yul\":736:813   */\n      0x4e487b7100000000000000000000000000000000000000000000000000000000\n        /* \"#utility.yul\":733:734   */\n      0x00\n        /* \"#utility.yul\":726:814   */\n      mstore\n        /* \"#utility.yul\":833:837   */\n      0x41\n        /* \"#utility.yul\":830:831   */\n      0x04\n        /* \"#utility.yul\":823:838   */\n      mstore\n        /* \"#utility.yul\":857:861   */\n      0x24\n        /* \"#utility.yul\":854:855   */\n      0x00\n        /* \"#utility.yul\":847:862   */\n      revert\n        /* \"#utility.yul\":874:1155   */\n    tag_85:\n        /* \"#utility.yul\":957:984   */\n      tag_151\n        /* \"#utility.yul\":979:983   */\n      dup3\n        /* \"#utility.yul\":957:984   */\n      tag_83\n      jump\t// in\n    tag_151:\n        /* \"#utility.yul\":949:955   */\n      dup2\n        /* \"#utility.yul\":945:985   */\n      add\n        /* \"#utility.yul\":1087:1093   */\n      dup2\n        /* \"#utility.yul\":1075:1085   */\n      dup2\n        /* \"#utility.yul\":1072:1094   */\n      lt\n        /* \"#utility.yul\":1051:1069   */\n      0xffffffffffffffff\n        /* \"#utility.yul\":1039:1049   */\n      dup3\n        /* \"#utility.yul\":1036:1070   */\n      gt\n        /* \"#utility.yul\":1033:1095   */\n      or\n        /* \"#utility.yul\":1030:1118   */\n      iszero\n      tag_152\n      jumpi\n        /* \"#utility.yul\":1098:1116   */\n      tag_153\n      tag_84\n      jump\t// in\n    tag_153:\n        /* \"#utility.yul\":1030:1118   */\n    tag_152:\n        /* \"#utility.yul\":1138:1148   */\n      dup1\n        /* \"#utility.yul\":1134:1136   */\n      0x40\n        /* \"#utility.yul\":1127:1149   */\n      mstore\n        /* \"#utility.yul\":917:1155   */\n      pop\n        /* \"#utility.yul\":874:1155   */\n      pop\n      pop\n      jump\t// out\n        /* \"#utility.yul\":1161:1290   */\n    tag_86:\n        /* \"#utility.yul\":1195:1201   */\n      0x00\n        /* \"#utility.yul\":1222:1242   */\n      tag_155\n      tag_78\n      jump\t// in\n    tag_155:\n        /* \"#utility.yul\":1212:1242   */\n      swap1\n      pop\n        /* \"#utility.yul\":1251:1284   */\n      tag_156\n        /* \"#utility.yul\":1279:1283   */\n      dup3\n        /* \"#utility.yul\":1271:1277   */\n      dup3\n        /* \"#utility.yul\":1251:1284   */\n      tag_85\n      jump\t// in\n    tag_156:\n        /* \"#utility.yul\":1161:1290   */\n      swap2\n      swap1\n      pop\n      jump\t// out\n        /* \"#utility.yul\":1296:1604   */\n    tag_87:\n        /* \"#utility.yul\":1358:1362   */\n      0x00\n        /* \"#utility.yul\":1448:1466   */\n      0xffffffffffffffff\n        /* \"#utility.yul\":1440:1446   */\n      dup3\n        /* \"#utility.yul\":1437:1467   */\n      gt\n        /* \"#utility.yul\":1434:1490   */\n      iszero\n      tag_158\n      jumpi\n        /* \"#utility.yul\":1470:1488   */\n      tag_159\n      tag_84\n      jump\t// in\n    tag_159:\n        /* \"#utility.yul\":1434:1490   */\n    tag_158:\n        /* \"#utility.yul\":1508:1537   */\n      tag_160\n        /* \"#utility.yul\":1530:1536   */\n      dup3\n        /* \"#utility.yul\":1508:1537   */\n      tag_83\n      jump\t// in\n    tag_160:\n        /* \"#utility.yul\":1500:1537   */\n      swap1\n      pop\n        /* \"#utility.yul\":1592:1596   */\n      0x20\n        /* \"#utility.yul\":1586:1590   */\n      dup2\n        /* \"#utility.yul\":1582:1597   */\n      add\n        /* \"#utility.yul\":1574:1597   */\n      swap1\n      pop\n        /* \"#utility.yul\":1296:1604   */\n      swap2\n      swap1\n      pop\n      jump\t// out\n        /* \"#utility.yul\":1610:1758   */\n    tag_88:\n        /* \"#utility.yul\":1708:1714   */\n      dup3\n        /* \"#utility.yul\":1703:1706   */\n      dup2\n        /* \"#utility.yul\":1698:1701   */\n      dup4\n        /* \"#utility.yul\":1685:1715   */\n      calldatacopy\n        /* \"#utility.yul\":1749:1750   */\n      0x00\n        /* \"#utility.yul\":1740:1746   */\n      dup4\n        /* \"#utility.yul\":1735:1738   */\n      dup4\n        /* \"#utility.yul\":1731:1747   */\n      add\n        /* \"#utility.yul\":1724:1751   */\n      mstore\n        /* \"#utility.yul\":1610:1758   */\n      pop\n      pop\n      pop\n      jump\t// out\n        /* \"#utility.yul\":1764:2189   */\n    tag_89:\n        /* \"#utility.yul\":1842:1847   */\n      0x00\n        /* \"#utility.yul\":1867:1933   */\n      tag_163\n        /* \"#utility.yul\":1883:1932   */\n      tag_164\n        /* \"#utility.yul\":1925:1931   */\n      dup5\n        /* \"#utility.yul\":1883:1932   */\n      tag_87\n      jump\t// in\n    tag_164:\n        /* \"#utility.yul\":1867:1933   */\n      tag_86\n      jump\t// in\n    tag_163:\n        /* \"#utility.yul\":1858:1933   */\n      swap1\n      pop\n        /* \"#utility.yul\":1956:1962   */\n      dup3\n        /* \"#utility.yul\":1949:1954   */\n      dup2\n        /* \"#utility.yul\":1942:1963   */\n      mstore\n        /* \"#utility.yul\":1994:1998   */\n      0x20\n        /* \"#utility.yul\":1987:1992   */\n      dup2\n        /* \"#utility.yul\":1983:1999   */\n      add\n        /* \"#utility.yul\":2032:2035   */\n      dup5\n        /* \"#utility.yul\":2023:2029   */\n      dup5\n        /* \"#utility.yul\":2018:2021   */\n      dup5\n        /* \"#utility.yul\":2014:2030   */\n      add\n        /* \"#utility.yul\":2011:2036   */\n      gt\n        /* \"#utility.yul\":2008:2120   */\n      iszero\n      tag_165\n      jumpi\n        /* \"#utility.yul\":2039:2118   */\n      tag_166\n      tag_82\n      jump\t// in\n    tag_166:\n        /* \"#utility.yul\":2008:2120   */\n    tag_165:\n        /* \"#utility.yul\":2129:2183   */\n      tag_167\n        /* \"#utility.yul\":2176:2182   */\n      dup5\n        /* \"#utility.yul\":2171:2174   */\n      dup3\n        /* \"#utility.yul\":2166:2169   */\n      dup6\n        /* \"#utility.yul\":2129:2183   */\n      tag_88\n      jump\t// in\n    tag_167:\n        /* \"#utility.yul\":1848:2189   */\n      pop\n        /* \"#utility.yul\":1764:2189   */\n      swap4\n      swap3\n      pop\n      pop\n      pop\n      jump\t// out\n        /* \"#utility.yul\":2209:2549   */\n    tag_90:\n        /* \"#utility.yul\":2265:2270   */\n      0x00\n        /* \"#utility.yul\":2314:2317   */\n      dup3\n        /* \"#utility.yul\":2307:2311   */\n      0x1f\n        /* \"#utility.yul\":2299:2305   */\n      dup4\n        /* \"#utility.yul\":2295:2312   */\n      add\n        /* \"#utility.yul\":2291:2318   */\n      slt\n        /* \"#utility.yul\":2281:2403   */\n      tag_169\n      jumpi\n        /* \"#utility.yul\":2322:2401   */\n      tag_170\n      tag_81\n      jump\t// in\n    tag_170:\n        /* \"#utility.yul\":2281:2403   */\n    tag_169:\n        /* \"#utility.yul\":2439:2445   */\n      dup2\n        /* \"#utility.yul\":2426:2446   */\n      calldataload\n        /* \"#utility.yul\":2464:2543   */\n      tag_171\n        /* \"#utility.yul\":2539:2542   */\n      dup5\n        /* \"#utility.yul\":2531:2537   */\n      dup3\n        /* \"#utility.yul\":2524:2528   */\n      0x20\n        /* \"#utility.yul\":2516:2522   */\n      dup7\n        /* \"#utility.yul\":2512:2529   */\n      add\n        /* \"#utility.yul\":2464:2543   */\n      tag_89\n      jump\t// in\n    tag_171:\n        /* \"#utility.yul\":2455:2543   */\n      swap2\n      pop\n        /* \"#utility.yul\":2271:2549   */\n      pop\n        /* \"#utility.yul\":2209:2549   */\n      swap3\n      swap2\n      pop\n      pop\n      jump\t// out\n        /* \"#utility.yul\":2555:2632   */\n    tag_91:\n        /* \"#utility.yul\":2592:2599   */\n      0x00\n        /* \"#utility.yul\":2621:2626   */\n      dup2\n        /* \"#utility.yul\":2610:2626   */\n      swap1\n      pop\n        /* \"#utility.yul\":2555:2632   */\n      swap2\n      swap1\n      pop\n      jump\t// out\n        /* \"#utility.yul\":2638:2760   */\n    tag_92:\n        /* \"#utility.yul\":2711:2735   */\n      tag_174\n        /* \"#utility.yul\":2729:2734   */\n      dup2\n        /* \"#utility.yul\":2711:2735   */\n      tag_91\n      jump\t// in\n    tag_174:\n        /* \"#utility.yul\":2704:2709   */\n      dup2\n        /* \"#utility.yul\":2701:2736   */\n      eq\n        /* \"#utility.yul\":2691:2754   */\n      tag_175\n      jumpi\n        /* \"#utility.yul\":2750:2751   */\n      0x00\n        /* \"#utility.yul\":2747:2748   */\n      0x00\n        /* \"#utility.yul\":2740:2752   */\n      revert\n        /* \"#utility.yul\":2691:2754   */\n    tag_175:\n        /* \"#utility.yul\":2638:2760   */\n      pop\n      jump\t// out\n        /* \"#utility.yul\":2766:2905   */\n    tag_93:\n        /* \"#utility.yul\":2812:2817   */\n      0x00\n        /* \"#utility.yul\":2850:2856   */\n      dup2\n        /* \"#utility.yul\":2837:2857   */\n      calldataload\n        /* \"#utility.yul\":2828:2857   */\n      swap1\n      pop\n        /* \"#utility.yul\":2866:2899   */\n      tag_177\n        /* \"#utility.yul\":2893:2898   */\n      dup2\n        /* \"#utility.yul\":2866:2899   */\n      tag_92\n      jump\t// in\n    tag_177:\n        /* \"#utility.yul\":2766:2905   */\n      swap3\n      swap2\n      pop\n      pop\n      jump\t// out\n        /* \"#utility.yul\":2911:3001   */\n    tag_94:\n        /* \"#utility.yul\":2945:2952   */\n      0x00\n        /* \"#utility.yul\":2988:2993   */\n      dup2\n        /* \"#utility.yul\":2981:2994   */\n      iszero\n        /* \"#utility.yul\":2974:2995   */\n      iszero\n        /* \"#utility.yul\":2963:2995   */\n      swap1\n      pop\n        /* \"#utility.yul\":2911:3001   */\n      swap2\n      swap1\n      pop\n      jump\t// out\n        /* \"#utility.yul\":3007:3123   */\n    tag_95:\n        /* \"#utility.yul\":3077:3098   */\n      tag_180\n        /* \"#utility.yul\":3092:3097   */\n      dup2\n        /* \"#utility.yul\":3077:3098   */\n      tag_94\n      jump\t// in\n    tag_180:\n        /* \"#utility.yul\":3070:3075   */\n      dup2\n        /* \"#utility.yul\":3067:3099   */\n      eq\n        /* \"#utility.yul\":3057:3117   */\n      tag_181\n      jumpi\n        /* \"#utility.yul\":3113:3114   */\n      0x00\n        /* \"#utility.yul\":3110:3111   */\n      0x00\n        /* \"#utility.yul\":3103:3115   */\n      revert\n        /* \"#utility.yul\":3057:3117   */\n    tag_181:\n        /* \"#utility.yul\":3007:3123   */\n      pop\n      jump\t// out\n        /* \"#utility.yul\":3129:3262   */\n    tag_96:\n        /* \"#utility.yul\":3172:3177   */\n      0x00\n        /* \"#utility.yul\":3210:3216   */\n      dup2\n        /* \"#utility.yul\":3197:3217   */\n      calldataload\n        /* \"#utility.yul\":3188:3217   */\n      swap1\n      pop\n        /* \"#utility.yul\":3226:3256   */\n      tag_183\n        /* \"#utility.yul\":3250:3255   */\n      dup2\n        /* \"#utility.yul\":3226:3256   */\n      tag_95\n      jump\t// in\n    tag_183:\n        /* \"#utility.yul\":3129:3262   */\n      swap3\n      swap2\n      pop\n      pop\n      jump\t// out\n        /* \"#utility.yul\":3268:4061   */\n    tag_13:\n        /* \"#utility.yul\":3352:3358   */\n      0x00\n        /* \"#utility.yul\":3360:3366   */\n      0x00\n        /* \"#utility.yul\":3368:3374   */\n      0x00\n        /* \"#utility.yul\":3417:3419   */\n      0x60\n        /* \"#utility.yul\":3405:3414   */\n      dup5\n        /* \"#utility.yul\":3396:3403   */\n      dup7\n        /* \"#utility.yul\":3392:3415   */\n      sub\n        /* \"#utility.yul\":3388:3420   */\n      slt\n        /* \"#utility.yul\":3385:3504   */\n      iszero\n      tag_185\n      jumpi\n        /* \"#utility.yul\":3423:3502   */\n      tag_186\n      tag_79\n      jump\t// in\n    tag_186:\n        /* \"#utility.yul\":3385:3504   */\n    tag_185:\n        /* \"#utility.yul\":3571:3572   */\n      0x00\n        /* \"#utility.yul\":3560:3569   */\n      dup5\n        /* \"#utility.yul\":3556:3573   */\n      add\n        /* \"#utility.yul\":3543:3574   */\n      calldataload\n        /* \"#utility.yul\":3601:3619   */\n      0xffffffffffffffff\n        /* \"#utility.yul\":3593:3599   */\n      dup2\n        /* \"#utility.yul\":3590:3620   */\n      gt\n        /* \"#utility.yul\":3587:3704   */\n      iszero\n      tag_187\n      jumpi\n        /* \"#utility.yul\":3623:3702   */\n      tag_188\n      tag_80\n      jump\t// in\n    tag_188:\n        /* \"#utility.yul\":3587:3704   */\n    tag_187:\n        /* \"#utility.yul\":3728:3791   */\n      tag_189\n        /* \"#utility.yul\":3783:3790   */\n      dup7\n        /* \"#utility.yul\":3774:3780   */\n      dup3\n        /* \"#utility.yul\":3763:3772   */\n      dup8\n        /* \"#utility.yul\":3759:3781   */\n      add\n        /* \"#utility.yul\":3728:3791   */\n      tag_90\n      jump\t// in\n    tag_189:\n        /* \"#utility.yul\":3718:3791   */\n      swap4\n      pop\n        /* \"#utility.yul\":3514:3801   */\n      pop\n        /* \"#utility.yul\":3840:3842   */\n      0x20\n        /* \"#utility.yul\":3866:3919   */\n      tag_190\n        /* \"#utility.yul\":3911:3918   */\n      dup7\n        /* \"#utility.yul\":3902:3908   */\n      dup3\n        /* \"#utility.yul\":3891:3900   */\n      dup8\n        /* \"#utility.yul\":3887:3909   */\n      add\n        /* \"#utility.yul\":3866:3919   */\n      tag_93\n      jump\t// in\n    tag_190:\n        /* \"#utility.yul\":3856:3919   */\n      swap3\n      pop\n        /* \"#utility.yul\":3811:3929   */\n      pop\n        /* \"#utility.yul\":3968:3970   */\n      0x40\n        /* \"#utility.yul\":3994:4044   */\n      tag_191\n        /* \"#utility.yul\":4036:4043   */\n      dup7\n        /* \"#utility.yul\":4027:4033   */\n      dup3\n        /* \"#utility.yul\":4016:4025   */\n      dup8\n        /* \"#utility.yul\":4012:4034   */\n      add\n        /* \"#utility.yul\":3994:4044   */\n      tag_96\n      jump\t// in\n    tag_191:\n        /* \"#utility.yul\":3984:4044   */\n      swap2\n      pop\n        /* \"#utility.yul\":3939:4054   */\n      pop\n        /* \"#utility.yul\":3268:4061   */\n      swap3\n      pop\n      swap3\n      pop\n      swap3\n      jump\t// out\n        /* \"#utility.yul\":4067:4203   */\n    tag_97:\n        /* \"#utility.yul\":4156:4162   */\n      0x00\n        /* \"#utility.yul\":4190:4195   */\n      dup2\n        /* \"#utility.yul\":4184:4196   */\n      mload\n        /* \"#utility.yul\":4174:4196   */\n      swap1\n      pop\n        /* \"#utility.yul\":4067:4203   */\n      swap2\n      swap1\n      pop\n      jump\t// out\n        /* \"#utility.yul\":4209:4415   */\n    tag_98:\n        /* \"#utility.yul\":4330:4341   */\n      0x00\n        /* \"#utility.yul\":4364:4370   */\n      dup3\n        /* \"#utility.yul\":4359:4362   */\n      dup3\n        /* \"#utility.yul\":4352:4371   */\n      mstore\n        /* \"#utility.yul\":4404:4408   */\n      0x20\n        /* \"#utility.yul\":4399:4402   */\n      dup3\n        /* \"#utility.yul\":4395:4409   */\n      add\n        /* \"#utility.yul\":4380:4409   */\n      swap1\n      pop\n        /* \"#utility.yul\":4209:4415   */\n      swap3\n      swap2\n      pop\n      pop\n      jump\t// out\n        /* \"#utility.yul\":4421:4575   */\n    tag_99:\n        /* \"#utility.yul\":4510:4514   */\n      0x00\n        /* \"#utility.yul\":4533:4536   */\n      dup2\n        /* \"#utility.yul\":4525:4536   */\n      swap1\n      pop\n        /* \"#utility.yul\":4563:4567   */\n      0x20\n        /* \"#utility.yul\":4558:4561   */\n      dup3\n        /* \"#utility.yul\":4554:4568   */\n      add\n        /* \"#utility.yul\":4546:4568   */\n      swap1\n      pop\n        /* \"#utility.yul\":4421:4575   */\n      swap2\n      swap1\n      pop\n      jump\t// out\n        /* \"#utility.yul\":4581:4680   */\n    tag_100:\n        /* \"#utility.yul\":4633:4639   */\n      0x00\n        /* \"#utility.yul\":4667:4672   */\n      dup2\n        /* \"#utility.yul\":4661:4673   */\n      mload\n        /* \"#utility.yul\":4651:4673   */\n      swap1\n      pop\n        /* \"#utility.yul\":4581:4680   */\n      swap2\n      swap1\n      pop\n      jump\t// out\n        /* \"#utility.yul\":4686:4845   */\n    tag_101:\n        /* \"#utility.yul\":4760:4771   */\n      0x00\n        /* \"#utility.yul\":4794:4800   */\n      dup3\n        /* \"#utility.yul\":4789:4792   */\n      dup3\n        /* \"#utility.yul\":4782:4801   */\n      mstore\n        /* \"#utility.yul\":4834:4838   */\n      0x20\n        /* \"#utility.yul\":4829:4832   */\n      dup3\n        /* \"#utility.yul\":4825:4839   */\n      add\n        /* \"#utility.yul\":4810:4839   */\n      swap1\n      pop\n        /* \"#utility.yul\":4686:4845   */\n      swap3\n      swap2\n      pop\n      pop\n      jump\t// out\n        /* \"#utility.yul\":4851:4990   */\n    tag_102:\n        /* \"#utility.yul\":4940:4946   */\n      dup3\n        /* \"#utility.yul\":4935:4938   */\n      dup2\n        /* \"#utility.yul\":4930:4933   */\n      dup4\n        /* \"#utility.yul\":4924:4947   */\n      mcopy\n        /* \"#utility.yul\":4981:4982   */\n      0x00\n        /* \"#utility.yul\":4972:4978   */\n      dup4\n        /* \"#utility.yul\":4967:4970   */\n      dup4\n        /* \"#utility.yul\":4963:4979   */\n      add\n        /* \"#utility.yul\":4956:4983   */\n      mstore\n        /* \"#utility.yul\":4851:4990   */\n      pop\n      pop\n      pop\n      jump\t// out\n        /* \"#utility.yul\":4996:5353   */\n    tag_103:\n        /* \"#utility.yul\":5074:5077   */\n      0x00\n        /* \"#utility.yul\":5102:5141   */\n      tag_199\n        /* \"#utility.yul\":5135:5140   */\n      dup3\n        /* \"#utility.yul\":5102:5141   */\n      tag_100\n      jump\t// in\n    tag_199:\n        /* \"#utility.yul\":5157:5218   */\n      tag_200\n        /* \"#utility.yul\":5211:5217   */\n      dup2\n        /* \"#utility.yul\":5206:5209   */\n      dup6\n        /* \"#utility.yul\":5157:5218   */\n      tag_101\n      jump\t// in\n    tag_200:\n        /* \"#utility.yul\":5150:5218   */\n      swap4\n      pop\n        /* \"#utility.yul\":5227:5292   */\n      tag_201\n        /* \"#utility.yul\":5285:5291   */\n      dup2\n        /* \"#utility.yul\":5280:5283   */\n      dup6\n        /* \"#utility.yul\":5273:5277   */\n      0x20\n        /* \"#utility.yul\":5266:5271   */\n      dup7\n        /* \"#utility.yul\":5262:5278   */\n      add\n        /* \"#utility.yul\":5227:5292   */\n      tag_102\n      jump\t// in\n    tag_201:\n        /* \"#utility.yul\":5317:5346   */\n      tag_202\n        /* \"#utility.yul\":5339:5345   */\n      dup2\n        /* \"#utility.yul\":5317:5346   */\n      tag_83\n      jump\t// in\n    tag_202:\n        /* \"#utility.yul\":5312:5315   */\n      dup5\n        /* \"#utility.yul\":5308:5347   */\n      add\n        /* \"#utility.yul\":5301:5347   */\n      swap2\n      pop\n        /* \"#utility.yul\":5078:5353   */\n      pop\n        /* \"#utility.yul\":4996:5353   */\n      swap3\n      swap2\n      pop\n      pop\n      jump\t// out\n        /* \"#utility.yul\":5359:5467   */\n    tag_104:\n        /* \"#utility.yul\":5436:5460   */\n      tag_204\n        /* \"#utility.yul\":5454:5459   */\n      dup2\n        /* \"#utility.yul\":5436:5460   */\n      tag_91\n      jump\t// in\n    tag_204:\n        /* \"#utility.yul\":5431:5434   */\n      dup3\n        /* \"#utility.yul\":5424:5461   */\n      mstore\n        /* \"#utility.yul\":5359:5467   */\n      pop\n      pop\n      jump\t// out\n        /* \"#utility.yul\":5473:5572   */\n    tag_105:\n        /* \"#utility.yul\":5544:5565   */\n      tag_206\n        /* \"#utility.yul\":5559:5564   */\n      dup2\n        /* \"#utility.yul\":5544:5565   */\n      tag_94\n      jump\t// in\n    tag_206:\n        /* \"#utility.yul\":5539:5542   */\n      dup3\n        /* \"#utility.yul\":5532:5566   */\n      mstore\n        /* \"#utility.yul\":5473:5572   */\n      pop\n      pop\n      jump\t// out\n        /* \"#utility.yul\":5644:6406   */\n    tag_106:\n        /* \"#utility.yul\":5747:5750   */\n      0x00\n        /* \"#utility.yul\":5783:5787   */\n      0x60\n        /* \"#utility.yul\":5778:5781   */\n      dup4\n        /* \"#utility.yul\":5774:5788   */\n      add\n        /* \"#utility.yul\":5870:5874   */\n      0x00\n        /* \"#utility.yul\":5863:5868   */\n      dup4\n        /* \"#utility.yul\":5859:5875   */\n      add\n        /* \"#utility.yul\":5853:5876   */\n      mload\n        /* \"#utility.yul\":5923:5926   */\n      dup5\n        /* \"#utility.yul\":5917:5921   */\n      dup3\n        /* \"#utility.yul\":5913:5927   */\n      sub\n        /* \"#utility.yul\":5906:5910   */\n      0x00\n        /* \"#utility.yul\":5901:5904   */\n      dup7\n        /* \"#utility.yul\":5897:5911   */\n      add\n        /* \"#utility.yul\":5890:5928   */\n      mstore\n        /* \"#utility.yul\":5949:6022   */\n      tag_208\n        /* \"#utility.yul\":6017:6021   */\n      dup3\n        /* \"#utility.yul\":6003:6015   */\n      dup3\n        /* \"#utility.yul\":5949:6022   */\n      tag_103\n      jump\t// in\n    tag_208:\n        /* \"#utility.yul\":5941:6022   */\n      swap2\n      pop\n        /* \"#utility.yul\":5798:6033   */\n      pop\n        /* \"#utility.yul\":6114:6118   */\n      0x20\n        /* \"#utility.yul\":6107:6112   */\n      dup4\n        /* \"#utility.yul\":6103:6119   */\n      add\n        /* \"#utility.yul\":6097:6120   */\n      mload\n        /* \"#utility.yul\":6133:6196   */\n      tag_209\n        /* \"#utility.yul\":6190:6194   */\n      0x20\n        /* \"#utility.yul\":6185:6188   */\n      dup7\n        /* \"#utility.yul\":6181:6195   */\n      add\n        /* \"#utility.yul\":6167:6179   */\n      dup3\n        /* \"#utility.yul\":6133:6196   */\n      tag_104\n      jump\t// in\n    tag_209:\n        /* \"#utility.yul\":6043:6206   */\n      pop\n        /* \"#utility.yul\":6293:6297   */\n      0x40\n        /* \"#utility.yul\":6286:6291   */\n      dup4\n        /* \"#utility.yul\":6282:6298   */\n      add\n        /* \"#utility.yul\":6276:6299   */\n      mload\n        /* \"#utility.yul\":6312:6369   */\n      tag_210\n        /* \"#utility.yul\":6363:6367   */\n      0x40\n        /* \"#utility.yul\":6358:6361   */\n      dup7\n        /* \"#utility.yul\":6354:6368   */\n      add\n        /* \"#utility.yul\":6340:6352   */\n      dup3\n        /* \"#utility.yul\":6312:6369   */\n      tag_105\n      jump\t// in\n    tag_210:\n        /* \"#utility.yul\":6216:6379   */\n      pop\n        /* \"#utility.yul\":6396:6400   */\n      dup1\n        /* \"#utility.yul\":6389:6400   */\n      swap2\n      pop\n        /* \"#utility.yul\":5752:6406   */\n      pop\n        /* \"#utility.yul\":5644:6406   */\n      swap3\n      swap2\n      pop\n      pop\n      jump\t// out\n        /* \"#utility.yul\":6412:6656   */\n    tag_107:\n        /* \"#utility.yul\":6525:6535   */\n      0x00\n        /* \"#utility.yul\":6560:6650   */\n      tag_212\n        /* \"#utility.yul\":6646:6649   */\n      dup4\n        /* \"#utility.yul\":6638:6644   */\n      dup4\n        /* \"#utility.yul\":6560:6650   */\n      tag_106\n      jump\t// in\n    tag_212:\n        /* \"#utility.yul\":6546:6650   */\n      swap1\n      pop\n        /* \"#utility.yul\":6412:6656   */\n      swap3\n      swap2\n      pop\n      pop\n      jump\t// out\n        /* \"#utility.yul\":6662:6797   */\n    tag_108:\n        /* \"#utility.yul\":6754:6758   */\n      0x00\n        /* \"#utility.yul\":6786:6790   */\n      0x20\n        /* \"#utility.yul\":6781:6784   */\n      dup3\n        /* \"#utility.yul\":6777:6791   */\n      add\n        /* \"#utility.yul\":6769:6791   */\n      swap1\n      pop\n        /* \"#utility.yul\":6662:6797   */\n      swap2\n      swap1\n      pop\n      jump\t// out\n        /* \"#utility.yul\":6873:7960   */\n    tag_109:\n        /* \"#utility.yul\":7036:7039   */\n      0x00\n        /* \"#utility.yul\":7065:7141   */\n      tag_215\n        /* \"#utility.yul\":7135:7140   */\n      dup3\n        /* \"#utility.yul\":7065:7141   */\n      tag_97\n      jump\t// in\n    tag_215:\n        /* \"#utility.yul\":7157:7265   */\n      tag_216\n        /* \"#utility.yul\":7258:7264   */\n      dup2\n        /* \"#utility.yul\":7253:7256   */\n      dup6\n        /* \"#utility.yul\":7157:7265   */\n      tag_98\n      jump\t// in\n    tag_216:\n        /* \"#utility.yul\":7150:7265   */\n      swap4\n      pop\n        /* \"#utility.yul\":7291:7294   */\n      dup4\n        /* \"#utility.yul\":7336:7340   */\n      0x20\n        /* \"#utility.yul\":7328:7334   */\n      dup3\n        /* \"#utility.yul\":7324:7341   */\n      mul\n        /* \"#utility.yul\":7319:7322   */\n      dup6\n        /* \"#utility.yul\":7315:7342   */\n      add\n        /* \"#utility.yul\":7366:7444   */\n      tag_217\n        /* \"#utility.yul\":7438:7443   */\n      dup6\n        /* \"#utility.yul\":7366:7444   */\n      tag_99\n      jump\t// in\n    tag_217:\n        /* \"#utility.yul\":7467:7474   */\n      dup1\n        /* \"#utility.yul\":7498:7499   */\n      0x00\n        /* \"#utility.yul\":7483:7915   */\n    tag_218:\n        /* \"#utility.yul\":7508:7514   */\n      dup6\n        /* \"#utility.yul\":7505:7506   */\n      dup2\n        /* \"#utility.yul\":7502:7515   */\n      lt\n        /* \"#utility.yul\":7483:7915   */\n      iszero\n      tag_220\n      jumpi\n        /* \"#utility.yul\":7579:7588   */\n      dup5\n        /* \"#utility.yul\":7573:7577   */\n      dup5\n        /* \"#utility.yul\":7569:7589   */\n      sub\n        /* \"#utility.yul\":7564:7567   */\n      dup10\n        /* \"#utility.yul\":7557:7590   */\n      mstore\n        /* \"#utility.yul\":7630:7636   */\n      dup2\n        /* \"#utility.yul\":7624:7637   */\n      mload\n        /* \"#utility.yul\":7658:7766   */\n      tag_221\n        /* \"#utility.yul\":7761:7765   */\n      dup6\n        /* \"#utility.yul\":7746:7759   */\n      dup3\n        /* \"#utility.yul\":7658:7766   */\n      tag_107\n      jump\t// in\n    tag_221:\n        /* \"#utility.yul\":7650:7766   */\n      swap5\n      pop\n        /* \"#utility.yul\":7789:7871   */\n      tag_222\n        /* \"#utility.yul\":7864:7870   */\n      dup4\n        /* \"#utility.yul\":7789:7871   */\n      tag_108\n      jump\t// in\n    tag_222:\n        /* \"#utility.yul\":7779:7871   */\n      swap3\n      pop\n        /* \"#utility.yul\":7900:7904   */\n      0x20\n        /* \"#utility.yul\":7895:7898   */\n      dup11\n        /* \"#utility.yul\":7891:7905   */\n      add\n        /* \"#utility.yul\":7884:7905   */\n      swap10\n      pop\n        /* \"#utility.yul\":7543:7915   */\n      pop\n        /* \"#utility.yul\":7530:7531   */\n      0x01\n        /* \"#utility.yul\":7527:7528   */\n      dup2\n        /* \"#utility.yul\":7523:7532   */\n      add\n        /* \"#utility.yul\":7518:7532   */\n      swap1\n      pop\n        /* \"#utility.yul\":7483:7915   */\n      jump(tag_218)\n    tag_220:\n        /* \"#utility.yul\":7487:7501   */\n      pop\n        /* \"#utility.yul\":7931:7935   */\n      dup3\n        /* \"#utility.yul\":7924:7935   */\n      swap8\n      pop\n        /* \"#utility.yul\":7951:7954   */\n      dup8\n        /* \"#utility.yul\":7944:7954   */\n      swap6\n      pop\n        /* \"#utility.yul\":7041:7960   */\n      pop\n      pop\n      pop\n      pop\n      pop\n        /* \"#utility.yul\":6873:7960   */\n      swap3\n      swap2\n      pop\n      pop\n      jump\t// out\n        /* \"#utility.yul\":7966:8427   */\n    tag_18:\n        /* \"#utility.yul\":8153:8157   */\n      0x00\n        /* \"#utility.yul\":8191:8193   */\n      0x20\n        /* \"#utility.yul\":8180:8189   */\n      dup3\n        /* \"#utility.yul\":8176:8194   */\n      add\n        /* \"#utility.yul\":8168:8194   */\n      swap1\n      pop\n        /* \"#utility.yul\":8240:8249   */\n      dup2\n        /* \"#utility.yul\":8234:8238   */\n      dup2\n        /* \"#utility.yul\":8230:8250   */\n      sub\n        /* \"#utility.yul\":8226:8227   */\n      0x00\n        /* \"#utility.yul\":8215:8224   */\n      dup4\n        /* \"#utility.yul\":8211:8228   */\n      add\n        /* \"#utility.yul\":8204:8251   */\n      mstore\n        /* \"#utility.yul\":8268:8420   */\n      tag_224\n        /* \"#utility.yul\":8415:8419   */\n      dup2\n        /* \"#utility.yul\":8406:8412   */\n      dup5\n        /* \"#utility.yul\":8268:8420   */\n      tag_109\n      jump\t// in\n    tag_224:\n        /* \"#utility.yul\":8260:8420   */\n      swap1\n      pop\n        /* \"#utility.yul\":7966:8427   */\n      swap3\n      swap2\n      pop\n      pop\n      jump\t// out\n        /* \"#utility.yul\":8433:8762   */\n    tag_21:\n        /* \"#utility.yul\":8492:8498   */\n      0x00\n        /* \"#utility.yul\":8541:8543   */\n      0x20\n        /* \"#utility.yul\":8529:8538   */\n      dup3\n        /* \"#utility.yul\":8520:8527   */\n      dup5\n        /* \"#utility.yul\":8516:8539   */\n      sub\n        /* \"#utility.yul\":8512:8544   */\n      slt\n        /* \"#utility.yul\":8509:8628   */\n      iszero\n      tag_226\n      jumpi\n        /* \"#utility.yul\":8547:8626   */\n      tag_227\n      tag_79\n      jump\t// in\n    tag_227:\n        /* \"#utility.yul\":8509:8628   */\n    tag_226:\n        /* \"#utility.yul\":8667:8668   */\n      0x00\n        /* \"#utility.yul\":8692:8745   */\n      tag_228\n        /* \"#utility.yul\":8737:8744   */\n      dup5\n        /* \"#utility.yul\":8728:8734   */\n      dup3\n        /* \"#utility.yul\":8717:8726   */\n      dup6\n        /* \"#utility.yul\":8713:8735   */\n      add\n        /* \"#utility.yul\":8692:8745   */\n      tag_93\n      jump\t// in\n    tag_228:\n        /* \"#utility.yul\":8682:8745   */\n      swap2\n      pop\n        /* \"#utility.yul\":8638:8755   */\n      pop\n        /* \"#utility.yul\":8433:8762   */\n      swap3\n      swap2\n      pop\n      pop\n      jump\t// out\n        /* \"#utility.yul\":8768:8937   */\n    tag_110:\n        /* \"#utility.yul\":8852:8863   */\n      0x00\n        /* \"#utility.yul\":8886:8892   */\n      dup3\n        /* \"#utility.yul\":8881:8884   */\n      dup3\n        /* \"#utility.yul\":8874:8893   */\n      mstore\n        /* \"#utility.yul\":8926:8930   */\n      0x20\n        /* \"#utility.yul\":8921:8924   */\n      dup3\n        /* \"#utility.yul\":8917:8931   */\n      add\n        /* \"#utility.yul\":8902:8931   */\n      swap1\n      pop\n        /* \"#utility.yul\":8768:8937   */\n      swap3\n      swap2\n      pop\n      pop\n      jump\t// out\n        /* \"#utility.yul\":8943:9320   */\n    tag_111:\n        /* \"#utility.yul\":9031:9034   */\n      0x00\n        /* \"#utility.yul\":9059:9098   */\n      tag_231\n        /* \"#utility.yul\":9092:9097   */\n      dup3\n        /* \"#utility.yul\":9059:9098   */\n      tag_100\n      jump\t// in\n    tag_231:\n        /* \"#utility.yul\":9114:9185   */\n      tag_232\n        /* \"#utility.yul\":9178:9184   */\n      dup2\n        /* \"#utility.yul\":9173:9176   */\n      dup6\n        /* \"#utility.yul\":9114:9185   */\n      tag_110\n      jump\t// in\n    tag_232:\n        /* \"#utility.yul\":9107:9185   */\n      swap4\n      pop\n        /* \"#utility.yul\":9194:9259   */\n      tag_233\n        /* \"#utility.yul\":9252:9258   */\n      dup2\n        /* \"#utility.yul\":9247:9250   */\n      dup6\n        /* \"#utility.yul\":9240:9244   */\n      0x20\n        /* \"#utility.yul\":9233:9238   */\n      dup7\n        /* \"#utility.yul\":9229:9245   */\n      add\n        /* \"#utility.yul\":9194:9259   */\n      tag_102\n      jump\t// in\n    tag_233:\n        /* \"#utility.yul\":9284:9313   */\n      tag_234\n        /* \"#utility.yul\":9306:9312   */\n      dup2\n        /* \"#utility.yul\":9284:9313   */\n      tag_83\n      jump\t// in\n    tag_234:\n        /* \"#utility.yul\":9279:9282   */\n      dup5\n        /* \"#utility.yul\":9275:9314   */\n      add\n        /* \"#utility.yul\":9268:9314   */\n      swap2\n      pop\n        /* \"#utility.yul\":9035:9320   */\n      pop\n        /* \"#utility.yul\":8943:9320   */\n      swap3\n      swap2\n      pop\n      pop\n      jump\t// out\n        /* \"#utility.yul\":9326:9444   */\n    tag_112:\n        /* \"#utility.yul\":9413:9437   */\n      tag_236\n        /* \"#utility.yul\":9431:9436   */\n      dup2\n        /* \"#utility.yul\":9413:9437   */\n      tag_91\n      jump\t// in\n    tag_236:\n        /* \"#utility.yul\":9408:9411   */\n      dup3\n        /* \"#utility.yul\":9401:9438   */\n      mstore\n        /* \"#utility.yul\":9326:9444   */\n      pop\n      pop\n      jump\t// out\n        /* \"#utility.yul\":9450:9559   */\n    tag_113:\n        /* \"#utility.yul\":9531:9552   */\n      tag_238\n        /* \"#utility.yul\":9546:9551   */\n      dup2\n        /* \"#utility.yul\":9531:9552   */\n      tag_94\n      jump\t// in\n    tag_238:\n        /* \"#utility.yul\":9526:9529   */\n      dup3\n        /* \"#utility.yul\":9519:9553   */\n      mstore\n        /* \"#utility.yul\":9450:9559   */\n      pop\n      pop\n      jump\t// out\n        /* \"#utility.yul\":9565:10086   */\n    tag_27:\n        /* \"#utility.yul\":9728:9732   */\n      0x00\n        /* \"#utility.yul\":9766:9768   */\n      0x60\n        /* \"#utility.yul\":9755:9764   */\n      dup3\n        /* \"#utility.yul\":9751:9769   */\n      add\n        /* \"#utility.yul\":9743:9769   */\n      swap1\n      pop\n        /* \"#utility.yul\":9815:9824   */\n      dup2\n        /* \"#utility.yul\":9809:9813   */\n      dup2\n        /* \"#utility.yul\":9805:9825   */\n      sub\n        /* \"#utility.yul\":9801:9802   */\n      0x00\n        /* \"#utility.yul\":9790:9799   */\n      dup4\n        /* \"#utility.yul\":9786:9803   */\n      add\n        /* \"#utility.yul\":9779:9826   */\n      mstore\n        /* \"#utility.yul\":9843:9921   */\n      tag_240\n        /* \"#utility.yul\":9916:9920   */\n      dup2\n        /* \"#utility.yul\":9907:9913   */\n      dup7\n        /* \"#utility.yul\":9843:9921   */\n      tag_111\n      jump\t// in\n    tag_240:\n        /* \"#utility.yul\":9835:9921   */\n      swap1\n      pop\n        /* \"#utility.yul\":9931:10003   */\n      tag_241\n        /* \"#utility.yul\":9999:10001   */\n      0x20\n        /* \"#utility.yul\":9988:9997   */\n      dup4\n        /* \"#utility.yul\":9984:10002   */\n      add\n        /* \"#utility.yul\":9975:9981   */\n      dup6\n        /* \"#utility.yul\":9931:10003   */\n      tag_112\n      jump\t// in\n    tag_241:\n        /* \"#utility.yul\":10013:10079   */\n      tag_242\n        /* \"#utility.yul\":10075:10077   */\n      0x40\n        /* \"#utility.yul\":10064:10073   */\n      dup4\n        /* \"#utility.yul\":10060:10078   */\n      add\n        /* \"#utility.yul\":10051:10057   */\n      dup5\n        /* \"#utility.yul\":10013:10079   */\n      tag_113\n      jump\t// in\n    tag_242:\n        /* \"#utility.yul\":9565:10086   */\n      swap5\n      swap4\n      pop\n      pop\n      pop\n      pop\n      jump\t// out\n        /* \"#utility.yul\":10092:10216   */\n    tag_114:\n        /* \"#utility.yul\":10169:10175   */\n      0x00\n        /* \"#utility.yul\":10203:10208   */\n      dup2\n        /* \"#utility.yul\":10197:10209   */\n      mload\n        /* \"#utility.yul\":10187:10209   */\n      swap1\n      pop\n        /* \"#utility.yul\":10092:10216   */\n      swap2\n      swap1\n      pop\n      jump\t// out\n        /* \"#utility.yul\":10222:10416   */\n    tag_115:\n        /* \"#utility.yul\":10331:10342   */\n      0x00\n        /* \"#utility.yul\":10365:10371   */\n      dup3\n        /* \"#utility.yul\":10360:10363   */\n      dup3\n        /* \"#utility.yul\":10353:10372   */\n      mstore\n        /* \"#utility.yul\":10405:10409   */\n      0x20\n        /* \"#utility.yul\":10400:10403   */\n      dup3\n        /* \"#utility.yul\":10396:10410   */\n      add\n        /* \"#utility.yul\":10381:10410   */\n      swap1\n      pop\n        /* \"#utility.yul\":10222:10416   */\n      swap3\n      swap2\n      pop\n      pop\n      jump\t// out\n        /* \"#utility.yul\":10422:10564   */\n    tag_116:\n        /* \"#utility.yul\":10499:10503   */\n      0x00\n        /* \"#utility.yul\":10522:10525   */\n      dup2\n        /* \"#utility.yul\":10514:10525   */\n      swap1\n      pop\n        /* \"#utility.yul\":10552:10556   */\n      0x20\n        /* \"#utility.yul\":10547:10550   */\n      dup3\n        /* \"#utility.yul\":10543:10557   */\n      add\n        /* \"#utility.yul\":10535:10557   */\n      swap1\n      pop\n        /* \"#utility.yul\":10422:10564   */\n      swap2\n      swap1\n      pop\n      jump\t// out\n        /* \"#utility.yul\":10570:10766   */\n    tag_117:\n        /* \"#utility.yul\":10659:10669   */\n      0x00\n        /* \"#utility.yul\":10694:10760   */\n      tag_247\n        /* \"#utility.yul\":10756:10759   */\n      dup4\n        /* \"#utility.yul\":10748:10754   */\n      dup4\n        /* \"#utility.yul\":10694:10760   */\n      tag_103\n      jump\t// in\n    tag_247:\n        /* \"#utility.yul\":10680:10760   */\n      swap1\n      pop\n        /* \"#utility.yul\":10570:10766   */\n      swap3\n      swap2\n      pop\n      pop\n      jump\t// out\n        /* \"#utility.yul\":10772:10895   */\n    tag_118:\n        /* \"#utility.yul\":10852:10856   */\n      0x00\n        /* \"#utility.yul\":10884:10888   */\n      0x20\n        /* \"#utility.yul\":10879:10882   */\n      dup3\n        /* \"#utility.yul\":10875:10889   */\n      add\n        /* \"#utility.yul\":10867:10889   */\n      swap1\n      pop\n        /* \"#utility.yul\":10772:10895   */\n      swap2\n      swap1\n      pop\n      jump\t// out\n        /* \"#utility.yul\":10929:11920   */\n    tag_119:\n        /* \"#utility.yul\":11068:11071   */\n      0x00\n        /* \"#utility.yul\":11097:11161   */\n      tag_250\n        /* \"#utility.yul\":11155:11160   */\n      dup3\n        /* \"#utility.yul\":11097:11161   */\n      tag_114\n      jump\t// in\n    tag_250:\n        /* \"#utility.yul\":11177:11273   */\n      tag_251\n        /* \"#utility.yul\":11266:11272   */\n      dup2\n        /* \"#utility.yul\":11261:11264   */\n      dup6\n        /* \"#utility.yul\":11177:11273   */\n      tag_115\n      jump\t// in\n    tag_251:\n        /* \"#utility.yul\":11170:11273   */\n      swap4\n      pop\n        /* \"#utility.yul\":11299:11302   */\n      dup4\n        /* \"#utility.yul\":11344:11348   */\n      0x20\n        /* \"#utility.yul\":11336:11342   */\n      dup3\n        /* \"#utility.yul\":11332:11349   */\n      mul\n        /* \"#utility.yul\":11327:11330   */\n      dup6\n        /* \"#utility.yul\":11323:11350   */\n      add\n        /* \"#utility.yul\":11374:11440   */\n      tag_252\n        /* \"#utility.yul\":11434:11439   */\n      dup6\n        /* \"#utility.yul\":11374:11440   */\n      tag_116\n      jump\t// in\n    tag_252:\n        /* \"#utility.yul\":11463:11470   */\n      dup1\n        /* \"#utility.yul\":11494:11495   */\n      0x00\n        /* \"#utility.yul\":11479:11875   */\n    tag_253:\n        /* \"#utility.yul\":11504:11510   */\n      dup6\n        /* \"#utility.yul\":11501:11502   */\n      dup2\n        /* \"#utility.yul\":11498:11511   */\n      lt\n        /* \"#utility.yul\":11479:11875   */\n      iszero\n      tag_255\n      jumpi\n        /* \"#utility.yul\":11575:11584   */\n      dup5\n        /* \"#utility.yul\":11569:11573   */\n      dup5\n        /* \"#utility.yul\":11565:11585   */\n      sub\n        /* \"#utility.yul\":11560:11563   */\n      dup10\n        /* \"#utility.yul\":11553:11586   */\n      mstore\n        /* \"#utility.yul\":11626:11632   */\n      dup2\n        /* \"#utility.yul\":11620:11633   */\n      mload\n        /* \"#utility.yul\":11654:11738   */\n      tag_256\n        /* \"#utility.yul\":11733:11737   */\n      dup6\n        /* \"#utility.yul\":11718:11731   */\n      dup3\n        /* \"#utility.yul\":11654:11738   */\n      tag_117\n      jump\t// in\n    tag_256:\n        /* \"#utility.yul\":11646:11738   */\n      swap5\n      pop\n        /* \"#utility.yul\":11761:11831   */\n      tag_257\n        /* \"#utility.yul\":11824:11830   */\n      dup4\n        /* \"#utility.yul\":11761:11831   */\n      tag_118\n      jump\t// in\n    tag_257:\n        /* \"#utility.yul\":11751:11831   */\n      swap3\n      pop\n        /* \"#utility.yul\":11860:11864   */\n      0x20\n        /* \"#utility.yul\":11855:11858   */\n      dup11\n        /* \"#utility.yul\":11851:11865   */\n      add\n        /* \"#utility.yul\":11844:11865   */\n      swap10\n      pop\n        /* \"#utility.yul\":11539:11875   */\n      pop\n        /* \"#utility.yul\":11526:11527   */\n      0x01\n        /* \"#utility.yul\":11523:11524   */\n      dup2\n        /* \"#utility.yul\":11519:11528   */\n      add\n        /* \"#utility.yul\":11514:11528   */\n      swap1\n      pop\n        /* \"#utility.yul\":11479:11875   */\n      jump(tag_253)\n    tag_255:\n        /* \"#utility.yul\":11483:11497   */\n      pop\n        /* \"#utility.yul\":11891:11895   */\n      dup3\n        /* \"#utility.yul\":11884:11895   */\n      swap8\n      pop\n        /* \"#utility.yul\":11911:11914   */\n      dup8\n        /* \"#utility.yul\":11904:11914   */\n      swap6\n      pop\n        /* \"#utility.yul\":11073:11920   */\n      pop\n      pop\n      pop\n      pop\n      pop\n        /* \"#utility.yul\":10929:11920   */\n      swap3\n      swap2\n      pop\n      pop\n      jump\t// out\n        /* \"#utility.yul\":11926:12339   */\n    tag_31:\n        /* \"#utility.yul\":12089:12093   */\n      0x00\n        /* \"#utility.yul\":12127:12129   */\n      0x20\n        /* \"#utility.yul\":12116:12125   */\n      dup3\n        /* \"#utility.yul\":12112:12130   */\n      add\n        /* \"#utility.yul\":12104:12130   */\n      swap1\n      pop\n        /* \"#utility.yul\":12176:12185   */\n      dup2\n        /* \"#utility.yul\":12170:12174   */\n      dup2\n        /* \"#utility.yul\":12166:12186   */\n      sub\n        /* \"#utility.yul\":12162:12163   */\n      0x00\n        /* \"#utility.yul\":12151:12160   */\n      dup4\n        /* \"#utility.yul\":12147:12164   */\n      add\n        /* \"#utility.yul\":12140:12187   */\n      mstore\n        /* \"#utility.yul\":12204:12332   */\n      tag_259\n        /* \"#utility.yul\":12327:12331   */\n      dup2\n        /* \"#utility.yul\":12318:12324   */\n      dup5\n        /* \"#utility.yul\":12204:12332   */\n      tag_119\n      jump\t// in\n    tag_259:\n        /* \"#utility.yul\":12196:12332   */\n      swap1\n      pop\n        /* \"#utility.yul\":11926:12339   */\n      swap3\n      swap2\n      pop\n      pop\n      jump\t// out\n        /* \"#utility.yul\":12345:12459   */\n    tag_120:\n        /* \"#utility.yul\":12412:12418   */\n      0x00\n        /* \"#utility.yul\":12446:12451   */\n      dup2\n        /* \"#utility.yul\":12440:12452   */\n      mload\n        /* \"#utility.yul\":12430:12452   */\n      swap1\n      pop\n        /* \"#utility.yul\":12345:12459   */\n      swap2\n      swap1\n      pop\n      jump\t// out\n        /* \"#utility.yul\":12465:12649   */\n    tag_121:\n        /* \"#utility.yul\":12564:12575   */\n      0x00\n        /* \"#utility.yul\":12598:12604   */\n      dup3\n        /* \"#utility.yul\":12593:12596   */\n      dup3\n        /* \"#utility.yul\":12586:12605   */\n      mstore\n        /* \"#utility.yul\":12638:12642   */\n      0x20\n        /* \"#utility.yul\":12633:12636   */\n      dup3\n        /* \"#utility.yul\":12629:12643   */\n      add\n        /* \"#utility.yul\":12614:12643   */\n      swap1\n      pop\n        /* \"#utility.yul\":12465:12649   */\n      swap3\n      swap2\n      pop\n      pop\n      jump\t// out\n        /* \"#utility.yul\":12655:12787   */\n    tag_122:\n        /* \"#utility.yul\":12722:12726   */\n      0x00\n        /* \"#utility.yul\":12745:12748   */\n      dup2\n        /* \"#utility.yul\":12737:12748   */\n      swap1\n      pop\n        /* \"#utility.yul\":12775:12779   */\n      0x20\n        /* \"#utility.yul\":12770:12773   */\n      dup3\n        /* \"#utility.yul\":12766:12780   */\n      add\n        /* \"#utility.yul\":12758:12780   */\n      swap1\n      pop\n        /* \"#utility.yul\":12655:12787   */\n      swap2\n      swap1\n      pop\n      jump\t// out\n        /* \"#utility.yul\":12793:12972   */\n    tag_123:\n        /* \"#utility.yul\":12862:12872   */\n      0x00\n        /* \"#utility.yul\":12883:12929   */\n      tag_264\n        /* \"#utility.yul\":12925:12928   */\n      dup4\n        /* \"#utility.yul\":12917:12923   */\n      dup4\n        /* \"#utility.yul\":12883:12929   */\n      tag_104\n      jump\t// in\n    tag_264:\n        /* \"#utility.yul\":12961:12965   */\n      0x20\n        /* \"#utility.yul\":12956:12959   */\n      dup4\n        /* \"#utility.yul\":12952:12966   */\n      add\n        /* \"#utility.yul\":12938:12966   */\n      swap1\n      pop\n        /* \"#utility.yul\":12793:12972   */\n      swap3\n      swap2\n      pop\n      pop\n      jump\t// out\n        /* \"#utility.yul\":12978:13091   */\n    tag_124:\n        /* \"#utility.yul\":13048:13052   */\n      0x00\n        /* \"#utility.yul\":13080:13084   */\n      0x20\n        /* \"#utility.yul\":13075:13078   */\n      dup3\n        /* \"#utility.yul\":13071:13085   */\n      add\n        /* \"#utility.yul\":13063:13085   */\n      swap1\n      pop\n        /* \"#utility.yul\":12978:13091   */\n      swap2\n      swap1\n      pop\n      jump\t// out\n        /* \"#utility.yul\":13127:13859   */\n    tag_125:\n        /* \"#utility.yul\":13246:13249   */\n      0x00\n        /* \"#utility.yul\":13275:13329   */\n      tag_267\n        /* \"#utility.yul\":13323:13328   */\n      dup3\n        /* \"#utility.yul\":13275:13329   */\n      tag_120\n      jump\t// in\n    tag_267:\n        /* \"#utility.yul\":13345:13431   */\n      tag_268\n        /* \"#utility.yul\":13424:13430   */\n      dup2\n        /* \"#utility.yul\":13419:13422   */\n      dup6\n        /* \"#utility.yul\":13345:13431   */\n      tag_121\n      jump\t// in\n    tag_268:\n        /* \"#utility.yul\":13338:13431   */\n      swap4\n      pop\n        /* \"#utility.yul\":13455:13511   */\n      tag_269\n        /* \"#utility.yul\":13505:13510   */\n      dup4\n        /* \"#utility.yul\":13455:13511   */\n      tag_122\n      jump\t// in\n    tag_269:\n        /* \"#utility.yul\":13534:13541   */\n      dup1\n        /* \"#utility.yul\":13565:13566   */\n      0x00\n        /* \"#utility.yul\":13550:13834   */\n    tag_270:\n        /* \"#utility.yul\":13575:13581   */\n      dup4\n        /* \"#utility.yul\":13572:13573   */\n      dup2\n        /* \"#utility.yul\":13569:13582   */\n      lt\n        /* \"#utility.yul\":13550:13834   */\n      iszero\n      tag_272\n      jumpi\n        /* \"#utility.yul\":13651:13657   */\n      dup2\n        /* \"#utility.yul\":13645:13658   */\n      mload\n        /* \"#utility.yul\":13678:13741   */\n      tag_273\n        /* \"#utility.yul\":13737:13740   */\n      dup9\n        /* \"#utility.yul\":13722:13735   */\n      dup3\n        /* \"#utility.yul\":13678:13741   */\n      tag_123\n      jump\t// in\n    tag_273:\n        /* \"#utility.yul\":13671:13741   */\n      swap8\n      pop\n        /* \"#utility.yul\":13764:13824   */\n      tag_274\n        /* \"#utility.yul\":13817:13823   */\n      dup4\n        /* \"#utility.yul\":13764:13824   */\n      tag_124\n      jump\t// in\n    tag_274:\n        /* \"#utility.yul\":13754:13824   */\n      swap3\n      pop\n        /* \"#utility.yul\":13610:13834   */\n      pop\n        /* \"#utility.yul\":13597:13598   */\n      0x01\n        /* \"#utility.yul\":13594:13595   */\n      dup2\n        /* \"#utility.yul\":13590:13599   */\n      add\n        /* \"#utility.yul\":13585:13599   */\n      swap1\n      pop\n        /* \"#utility.yul\":13550:13834   */\n      jump(tag_270)\n    tag_272:\n        /* \"#utility.yul\":13554:13568   */\n      pop\n        /* \"#utility.yul\":13850:13853   */\n      dup6\n        /* \"#utility.yul\":13843:13853   */\n      swap4\n      pop\n        /* \"#utility.yul\":13251:13859   */\n      pop\n      pop\n      pop\n        /* \"#utility.yul\":13127:13859   */\n      swap3\n      swap2\n      pop\n      pop\n      jump\t// out\n        /* \"#utility.yul\":13865:14238   */\n    tag_35:\n        /* \"#utility.yul\":14008:14012   */\n      0x00\n        /* \"#utility.yul\":14046:14048   */\n      0x20\n        /* \"#utility.yul\":14035:14044   */\n      dup3\n        /* \"#utility.yul\":14031:14049   */\n      add\n        /* \"#utility.yul\":14023:14049   */\n      swap1\n      pop\n        /* \"#utility.yul\":14095:14104   */\n      dup2\n        /* \"#utility.yul\":14089:14093   */\n      dup2\n        /* \"#utility.yul\":14085:14105   */\n      sub\n        /* \"#utility.yul\":14081:14082   */\n      0x00\n        /* \"#utility.yul\":14070:14079   */\n      dup4\n        /* \"#utility.yul\":14066:14083   */\n      add\n        /* \"#utility.yul\":14059:14106   */\n      mstore\n        /* \"#utility.yul\":14123:14231   */\n      tag_276\n        /* \"#utility.yul\":14226:14230   */\n      dup2\n        /* \"#utility.yul\":14217:14223   */\n      dup5\n        /* \"#utility.yul\":14123:14231   */\n      tag_125\n      jump\t// in\n    tag_276:\n        /* \"#utility.yul\":14115:14231   */\n      swap1\n      pop\n        /* \"#utility.yul\":13865:14238   */\n      swap3\n      swap2\n      pop\n      pop\n      jump\t// out\n        /* \"#utility.yul\":14244:14753   */\n    tag_38:\n        /* \"#utility.yul\":14313:14319   */\n      0x00\n        /* \"#utility.yul\":14362:14364   */\n      0x20\n        /* \"#utility.yul\":14350:14359   */\n      dup3\n        /* \"#utility.yul\":14341:14348   */\n      dup5\n        /* \"#utility.yul\":14337:14360   */\n      sub\n        /* \"#utility.yul\":14333:14365   */\n      slt\n        /* \"#utility.yul\":14330:14449   */\n      iszero\n      tag_278\n      jumpi\n        /* \"#utility.yul\":14368:14447   */\n      tag_279\n      tag_79\n      jump\t// in\n    tag_279:\n        /* \"#utility.yul\":14330:14449   */\n    tag_278:\n        /* \"#utility.yul\":14516:14517   */\n      0x00\n        /* \"#utility.yul\":14505:14514   */\n      dup3\n        /* \"#utility.yul\":14501:14518   */\n      add\n        /* \"#utility.yul\":14488:14519   */\n      calldataload\n        /* \"#utility.yul\":14546:14564   */\n      0xffffffffffffffff\n        /* \"#utility.yul\":14538:14544   */\n      dup2\n        /* \"#utility.yul\":14535:14565   */\n      gt\n        /* \"#utility.yul\":14532:14649   */\n      iszero\n      tag_280\n      jumpi\n        /* \"#utility.yul\":14568:14647   */\n      tag_281\n      tag_80\n      jump\t// in\n    tag_281:\n        /* \"#utility.yul\":14532:14649   */\n    tag_280:\n        /* \"#utility.yul\":14673:14736   */\n      tag_282\n        /* \"#utility.yul\":14728:14735   */\n      dup5\n        /* \"#utility.yul\":14719:14725   */\n      dup3\n        /* \"#utility.yul\":14708:14717   */\n      dup6\n        /* \"#utility.yul\":14704:14726   */\n      add\n        /* \"#utility.yul\":14673:14736   */\n      tag_90\n      jump\t// in\n    tag_282:\n        /* \"#utility.yul\":14663:14736   */\n      swap2\n      pop\n        /* \"#utility.yul\":14459:14746   */\n      pop\n        /* \"#utility.yul\":14244:14753   */\n      swap3\n      swap2\n      pop\n      pop\n      jump\t// out\n        /* \"#utility.yul\":14759:14939   */\n    tag_126:\n        /* \"#utility.yul\":14807:14884   */\n      0x4e487b7100000000000000000000000000000000000000000000000000000000\n        /* \"#utility.yul\":14804:14805   */\n      0x00\n        /* \"#utility.yul\":14797:14885   */\n      mstore\n        /* \"#utility.yul\":14904:14908   */\n      0x22\n        /* \"#utility.yul\":14901:14902   */\n      0x04\n        /* \"#utility.yul\":14894:14909   */\n      mstore\n        /* \"#utility.yul\":14928:14932   */\n      0x24\n        /* \"#utility.yul\":14925:14926   */\n      0x00\n        /* \"#utility.yul\":14918:14933   */\n      revert\n        /* \"#utility.yul\":14945:15265   */\n    tag_49:\n        /* \"#utility.yul\":14989:14995   */\n      0x00\n        /* \"#utility.yul\":15026:15027   */\n      0x02\n        /* \"#utility.yul\":15020:15024   */\n      dup3\n        /* \"#utility.yul\":15016:15028   */\n      div\n        /* \"#utility.yul\":15006:15028   */\n      swap1\n      pop\n        /* \"#utility.yul\":15073:15074   */\n      0x01\n        /* \"#utility.yul\":15067:15071   */\n      dup3\n        /* \"#utility.yul\":15063:15075   */\n      and\n        /* \"#utility.yul\":15094:15112   */\n      dup1\n        /* \"#utility.yul\":15084:15165   */\n      tag_285\n      jumpi\n        /* \"#utility.yul\":15150:15154   */\n      0x7f\n        /* \"#utility.yul\":15142:15148   */\n      dup3\n        /* \"#utility.yul\":15138:15155   */\n      and\n        /* \"#utility.yul\":15128:15155   */\n      swap2\n      pop\n        /* \"#utility.yul\":15084:15165   */\n    tag_285:\n        /* \"#utility.yul\":15212:15214   */\n      0x20\n        /* \"#utility.yul\":15204:15210   */\n      dup3\n        /* \"#utility.yul\":15201:15215   */\n      lt\n        /* \"#utility.yul\":15181:15199   */\n      dup2\n        /* \"#utility.yul\":15178:15216   */\n      sub\n        /* \"#utility.yul\":15175:15259   */\n      tag_286\n      jumpi\n        /* \"#utility.yul\":15231:15249   */\n      tag_287\n      tag_126\n      jump\t// in\n    tag_287:\n        /* \"#utility.yul\":15175:15259   */\n    tag_286:\n        /* \"#utility.yul\":14996:15265   */\n      pop\n        /* \"#utility.yul\":14945:15265   */\n      swap2\n      swap1\n      pop\n      jump\t// out\n        /* \"#utility.yul\":15271:15412   */\n    tag_127:\n        /* \"#utility.yul\":15320:15324   */\n      0x00\n        /* \"#utility.yul\":15343:15346   */\n      dup2\n        /* \"#utility.yul\":15335:15346   */\n      swap1\n      pop\n        /* \"#utility.yul\":15366:15369   */\n      dup2\n        /* \"#utility.yul\":15363:15364   */\n      0x00\n        /* \"#utility.yul\":15356:15370   */\n      mstore\n        /* \"#utility.yul\":15400:15404   */\n      0x20\n        /* \"#utility.yul\":15397:15398   */\n      0x00\n        /* \"#utility.yul\":15387:15405   */\n      keccak256\n        /* \"#utility.yul\":15379:15405   */\n      swap1\n      pop\n        /* \"#utility.yul\":15271:15412   */\n      swap2\n      swap1\n      pop\n      jump\t// out\n        /* \"#utility.yul\":15418:15511   */\n    tag_128:\n        /* \"#utility.yul\":15455:15461   */\n      0x00\n        /* \"#utility.yul\":15502:15504   */\n      0x20\n        /* \"#utility.yul\":15497:15499   */\n      0x1f\n        /* \"#utility.yul\":15490:15495   */\n      dup4\n        /* \"#utility.yul\":15486:15500   */\n      add\n        /* \"#utility.yul\":15482:15505   */\n      div\n        /* \"#utility.yul\":15472:15505   */\n      swap1\n      pop\n        /* \"#utility.yul\":15418:15511   */\n      swap2\n      swap1\n      pop\n      jump\t// out\n        /* \"#utility.yul\":15517:15624   */\n    tag_129:\n        /* \"#utility.yul\":15561:15569   */\n      0x00\n        /* \"#utility.yul\":15611:15616   */\n      dup3\n        /* \"#utility.yul\":15605:15609   */\n      dup3\n        /* \"#utility.yul\":15601:15617   */\n      shl\n        /* \"#utility.yul\":15580:15617   */\n      swap1\n      pop\n        /* \"#utility.yul\":15517:15624   */\n      swap3\n      swap2\n      pop\n      pop\n      jump\t// out\n        /* \"#utility.yul\":15630:16023   */\n    tag_130:\n        /* \"#utility.yul\":15699:15705   */\n      0x00\n        /* \"#utility.yul\":15749:15750   */\n      0x08\n        /* \"#utility.yul\":15737:15747   */\n      dup4\n        /* \"#utility.yul\":15733:15751   */\n      mul\n        /* \"#utility.yul\":15772:15869   */\n      tag_292\n        /* \"#utility.yul\":15802:15868   */\n      0xffffffffffffffffffffffffffffffffffffffffffffffffffffffffffffffff\n        /* \"#utility.yul\":15791:15800   */\n      dup3\n        /* \"#utility.yul\":15772:15869   */\n      tag_129\n      jump\t// in\n    tag_292:\n        /* \"#utility.yul\":15890:15929   */\n      tag_293\n        /* \"#utility.yul\":15920:15928   */\n      dup7\n        /* \"#utility.yul\":15909:15918   */\n      dup4\n        /* \"#utility.yul\":15890:15929   */\n      tag_129\n      jump\t// in\n    tag_293:\n        /* \"#utility.yul\":15878:15929   */\n      swap6\n      pop\n        /* \"#utility.yul\":15962:15966   */\n      dup1\n        /* \"#utility.yul\":15958:15967   */\n      not\n        /* \"#utility.yul\":15951:15956   */\n      dup5\n        /* \"#utility.yul\":15947:15968   */\n      and\n        /* \"#utility.yul\":15938:15968   */\n      swap4\n      pop\n        /* \"#utility.yul\":16011:16015   */\n      dup1\n        /* \"#utility.yul\":16001:16009   */\n      dup7\n        /* \"#utility.yul\":15997:16016   */\n      and\n        /* \"#utility.yul\":15990:15995   */\n      dup5\n        /* \"#utility.yul\":15987:16017   */\n      or\n        /* \"#utility.yul\":15977:16017   */\n      swap3\n      pop\n        /* \"#utility.yul\":15706:16023   */\n      pop\n      pop\n        /* \"#utility.yul\":15630:16023   */\n      swap4\n      swap3\n      pop\n      pop\n      pop\n      jump\t// out\n        /* \"#utility.yul\":16029:16089   */\n    tag_131:\n        /* \"#utility.yul\":16057:16060   */\n      0x00\n        /* \"#utility.yul\":16078:16083   */\n      dup2\n        /* \"#utility.yul\":16071:16083   */\n      swap1\n      pop\n        /* \"#utility.yul\":16029:16089   */\n      swap2\n      swap1\n      pop\n      jump\t// out\n        /* \"#utility.yul\":16095:16237   */\n    tag_132:\n        /* \"#utility.yul\":16145:16154   */\n      0x00\n        /* \"#utility.yul\":16178:16231   */\n      tag_296\n        /* \"#utility.yul\":16196:16230   */\n      tag_297\n        /* \"#utility.yul\":16205:16229   */\n      tag_298\n        /* \"#utility.yul\":16223:16228   */\n      dup5\n        /* \"#utility.yul\":16205:16229   */\n      tag_91\n      jump\t// in\n    tag_298:\n        /* \"#utility.yul\":16196:16230   */\n      tag_131\n      jump\t// in\n    tag_297:\n        /* \"#utility.yul\":16178:16231   */\n      tag_91\n      jump\t// in\n    tag_296:\n        /* \"#utility.yul\":16165:16231   */\n      swap1\n      pop\n        /* \"#utility.yul\":16095:16237   */\n      swap2\n      swap1\n      pop\n      jump\t// out\n        /* \"#utility.yul\":16243:16318   */\n    tag_133:\n        /* \"#utility.yul\":16286:16289   */\n      0x00\n        /* \"#utility.yul\":16307:16312   */\n      dup2\n        /* \"#utility.yul\":16300:16312   */\n      swap1\n      pop\n        /* \"#utility.yul\":16243:16318   */\n      swap2\n      swap1\n      pop\n      jump\t// out\n        /* \"#utility.yul\":16324:16593   */\n    tag_134:\n        /* \"#utility.yul\":16434:16473   */\n      tag_301\n        /* \"#utility.yul\":16465:16472   */\n      dup4\n        /* \"#utility.yul\":16434:16473   */\n      tag_132\n      jump\t// in\n    tag_301:\n        /* \"#utility.yul\":16495:16586   */\n      tag_302\n        /* \"#utility.yul\":16544:16585   */\n      tag_303\n        /* \"#utility.yul\":16568:16584   */\n      dup3\n        /* \"#utility.yul\":16544:16585   */\n      tag_133\n      jump\t// in\n    tag_303:\n        /* \"#utility.yul\":16536:16542   */\n      dup5\n        /* \"#utility.yul\":16529:16533   */\n      dup5\n        /* \"#utility.yul\":16523:16534   */\n      sload\n        /* \"#utility.yul\":16495:16586   */\n      tag_130\n      jump\t// in\n    tag_302:\n        /* \"#utility.yul\":16489:16493   */\n      dup3\n        /* \"#utility.yul\":16482:16587   */\n      sstore\n        /* \"#utility.yul\":16400:16593   */\n      pop\n        /* \"#utility.yul\":16324:16593   */\n      pop\n      pop\n      pop\n      jump\t// out\n        /* \"#utility.yul\":16599:16672   */\n    tag_135:\n        /* \"#utility.yul\":16644:16647   */\n      0x00\n        /* \"#utility.yul\":16665:16666   */\n      0x00\n        /* \"#utility.yul\":16658:16666   */\n      swap1\n      pop\n        /* \"#utility.yul\":16599:16672   */\n      swap1\n      jump\t// out\n        /* \"#utility.yul\":16678:16867   */\n    tag_136:\n        /* \"#utility.yul\":16755:16787   */\n      tag_306\n      tag_135\n      jump\t// in\n    tag_306:\n        /* \"#utility.yul\":16796:16861   */\n      tag_307\n        /* \"#utility.yul\":16854:16860   */\n      dup2\n        /* \"#utility.yul\":16846:16852   */\n      dup5\n        /* \"#utility.yul\":16840:16844   */\n      dup5\n        /* \"#utility.yul\":16796:16861   */\n      tag_134\n      jump\t// in\n    tag_307:\n        /* \"#utility.yul\":16731:16867   */\n      pop\n        /* \"#utility.yul\":16678:16867   */\n      pop\n      pop\n      jump\t// out\n        /* \"#utility.yul\":16873:17059   */\n    tag_137:\n        /* \"#utility.yul\":16933:17053   */\n    tag_309:\n        /* \"#utility.yul\":16950:16953   */\n      dup2\n        /* \"#utility.yul\":16943:16948   */\n      dup2\n        /* \"#utility.yul\":16940:16954   */\n      lt\n        /* \"#utility.yul\":16933:17053   */\n      iszero\n      tag_311\n      jumpi\n        /* \"#utility.yul\":17004:17043   */\n      tag_312\n        /* \"#utility.yul\":17041:17042   */\n      0x00\n        /* \"#utility.yul\":17034:17039   */\n      dup3\n        /* \"#utility.yul\":17004:17043   */\n      tag_136\n      jump\t// in\n    tag_312:\n        /* \"#utility.yul\":16977:16978   */\n      0x01\n        /* \"#utility.yul\":16970:16975   */\n      dup2\n        /* \"#utility.yul\":16966:16979   */\n      add\n        /* \"#utility.yul\":16957:16979   */\n      swap1\n      pop\n        /* \"#utility.yul\":16933:17053   */\n      jump(tag_309)\n    tag_311:\n        /* \"#utility.yul\":16873:17059   */\n      pop\n      pop\n      jump\t// out\n        /* \"#utility.yul\":17065:17608   */\n    tag_138:\n        /* \"#utility.yul\":17166:17168   */\n      0x1f\n        /* \"#utility.yul\":17161:17164   */\n      dup3\n        /* \"#utility.yul\":17158:17169   */\n      gt\n        /* \"#utility.yul\":17155:17601   */\n      iszero\n      tag_314\n      jumpi\n        /* \"#utility.yul\":17200:17238   */\n      tag_315\n        /* \"#utility.yul\":17232:17237   */\n      dup2\n        /* \"#utility.yul\":17200:17238   */\n      tag_127\n      jump\t// in\n    tag_315:\n        /* \"#utility.yul\":17284:17313   */\n      tag_316\n        /* \"#utility.yul\":17302:17312   */\n      dup5\n        /* \"#utility.yul\":17284:17313   */\n      tag_128\n      jump\t// in\n    tag_316:\n        /* \"#utility.yul\":17274:17282   */\n      dup2\n        /* \"#utility.yul\":17270:17314   */\n      add\n        /* \"#utility.yul\":17467:17469   */\n      0x20\n        /* \"#utility.yul\":17455:17465   */\n      dup6\n        /* \"#utility.yul\":17452:17470   */\n      lt\n        /* \"#utility.yul\":17449:17498   */\n      iszero\n      tag_317\n      jumpi\n        /* \"#utility.yul\":17488:17496   */\n      dup2\n        /* \"#utility.yul\":17473:17496   */\n      swap1\n      pop\n        /* \"#utility.yul\":17449:17498   */\n    tag_317:\n        /* \"#utility.yul\":17511:17591   */\n      tag_318\n        /* \"#utility.yul\":17567:17589   */\n      tag_319\n        /* \"#utility.yul\":17585:17588   */\n      dup6\n        /* \"#utility.yul\":17567:17589   */\n      tag_128\n      jump\t// in\n    tag_319:\n        /* \"#utility.yul\":17557:17565   */\n      dup4\n        /* \"#utility.yul\":17553:17590   */\n      add\n        /* \"#utility.yul\":17540:17551   */\n      dup3\n        /* \"#utility.yul\":17511:17591   */\n      tag_137\n      jump\t// in\n    tag_318:\n        /* \"#utility.yul\":17170:17601   */\n      pop\n      pop\n        /* \"#utility.yul\":17155:17601   */\n    tag_314:\n        /* \"#utility.yul\":17065:17608   */\n      pop\n      pop\n      pop\n      jump\t// out\n        /* \"#utility.yul\":17614:17731   */\n    tag_139:\n        /* \"#utility.yul\":17668:17676   */\n      0x00\n        /* \"#utility.yul\":17718:17723   */\n      dup3\n        /* \"#utility.yul\":17712:17716   */\n      dup3\n        /* \"#utility.yul\":17708:17724   */\n      shr\n        /* \"#utility.yul\":17687:17724   */\n      swap1\n      pop\n        /* \"#utility.yul\":17614:17731   */\n      swap3\n      swap2\n      pop\n      pop\n      jump\t// out\n        /* \"#utility.yul\":17737:17906   */\n    tag_140:\n        /* \"#utility.yul\":17781:17787   */\n      0x00\n        /* \"#utility.yul\":17814:17865   */\n      tag_322\n        /* \"#utility.yul\":17862:17863   */\n      0x00\n        /* \"#utility.yul\":17858:17864   */\n      not\n        /* \"#utility.yul\":17850:17855   */\n      dup5\n        /* \"#utility.yul\":17847:17848   */\n      0x08\n        /* \"#utility.yul\":17843:17856   */\n      mul\n        /* \"#utility.yul\":17814:17865   */\n      tag_139\n      jump\t// in\n    tag_322:\n        /* \"#utility.yul\":17810:17866   */\n      not\n        /* \"#utility.yul\":17895:17899   */\n      dup1\n        /* \"#utility.yul\":17889:17893   */\n      dup4\n        /* \"#utility.yul\":17885:17900   */\n      and\n        /* \"#utility.yul\":17875:17900   */\n      swap2\n      pop\n        /* \"#utility.yul\":17788:17906   */\n      pop\n        /* \"#utility.yul\":17737:17906   */\n      swap3\n      swap2\n      pop\n      pop\n      jump\t// out\n        /* \"#utility.yul\":17911:18206   */\n    tag_141:\n        /* \"#utility.yul\":17987:17991   */\n      0x00\n        /* \"#utility.yul\":18133:18162   */\n      tag_324\n        /* \"#utility.yul\":18158:18161   */\n      dup4\n        /* \"#utility.yul\":18152:18156   */\n      dup4\n        /* \"#utility.yul\":18133:18162   */\n      tag_140\n      jump\t// in\n    tag_324:\n        /* \"#utility.yul\":18125:18162   */\n      swap2\n      pop\n        /* \"#utility.yul\":18195:18198   */\n      dup3\n        /* \"#utility.yul\":18192:18193   */\n      0x02\n        /* \"#utility.yul\":18188:18199   */\n      mul\n        /* \"#utility.yul\":18182:18186   */\n      dup3\n        /* \"#utility.yul\":18179:18200   */\n      or\n        /* \"#utility.yul\":18171:18200   */\n      swap1\n      pop\n        /* \"#utility.yul\":17911:18206   */\n      swap3\n      swap2\n      pop\n      pop\n      jump\t// out\n        /* \"#utility.yul\":18211:19606   */\n    tag_43:\n        /* \"#utility.yul\":18328:18365   */\n      tag_326\n        /* \"#utility.yul\":18361:18364   */\n      dup3\n        /* \"#utility.yul\":18328:18365   */\n      tag_100\n      jump\t// in\n    tag_326:\n        /* \"#utility.yul\":18430:18448   */\n      0xffffffffffffffff\n        /* \"#utility.yul\":18422:18428   */\n      dup2\n        /* \"#utility.yul\":18419:18449   */\n      gt\n        /* \"#utility.yul\":18416:18472   */\n      iszero\n      tag_327\n      jumpi\n        /* \"#utility.yul\":18452:18470   */\n      tag_328\n      tag_84\n      jump\t// in\n    tag_328:\n        /* \"#utility.yul\":18416:18472   */\n    tag_327:\n        /* \"#utility.yul\":18496:18534   */\n      tag_329\n        /* \"#utility.yul\":18528:18532   */\n      dup3\n        /* \"#utility.yul\":18522:18533   */\n      sload\n        /* \"#utility.yul\":18496:18534   */\n      tag_49\n      jump\t// in\n    tag_329:\n        /* \"#utility.yul\":18581:18648   */\n      tag_330\n        /* \"#utility.yul\":18641:18647   */\n      dup3\n        /* \"#utility.yul\":18633:18639   */\n      dup3\n        /* \"#utility.yul\":18627:18631   */\n      dup6\n        /* \"#utility.yul\":18581:18648   */\n      tag_138\n      jump\t// in\n    tag_330:\n        /* \"#utility.yul\":18675:18676   */\n      0x00\n        /* \"#utility.yul\":18699:18703   */\n      0x20\n        /* \"#utility.yul\":18686:18703   */\n      swap1\n      pop\n        /* \"#utility.yul\":18731:18733   */\n      0x1f\n        /* \"#utility.yul\":18723:18729   */\n      dup4\n        /* \"#utility.yul\":18720:18734   */\n      gt\n        /* \"#utility.yul\":18748:18749   */\n      0x01\n        /* \"#utility.yul\":18743:19361   */\n      dup2\n      eq\n      tag_332\n      jumpi\n        /* \"#utility.yul\":19405:19406   */\n      0x00\n        /* \"#utility.yul\":19422:19428   */\n      dup5\n        /* \"#utility.yul\":19419:19496   */\n      iszero\n      tag_333\n      jumpi\n        /* \"#utility.yul\":19471:19480   */\n      dup3\n        /* \"#utility.yul\":19466:19469   */\n      dup8\n        /* \"#utility.yul\":19462:19481   */\n      add\n        /* \"#utility.yul\":19456:19482   */\n      mload\n        /* \"#utility.yul\":19447:19482   */\n      swap1\n      pop\n        /* \"#utility.yul\":19419:19496   */\n    tag_333:\n        /* \"#utility.yul\":19522:19589   */\n      tag_334\n        /* \"#utility.yul\":19582:19588   */\n      dup6\n        /* \"#utility.yul\":19575:19580   */\n      dup3\n        /* \"#utility.yul\":19522:19589   */\n      tag_141\n      jump\t// in\n    tag_334:\n        /* \"#utility.yul\":19516:19520   */\n      dup7\n        /* \"#utility.yul\":19509:19590   */\n      sstore\n        /* \"#utility.yul\":19378:19600   */\n      pop\n        /* \"#utility.yul\":18713:19600   */\n      jump(tag_331)\n        /* \"#utility.yul\":18743:19361   */\n    tag_332:\n        /* \"#utility.yul\":18795:18799   */\n      0x1f\n        /* \"#utility.yul\":18791:18800   */\n      not\n        /* \"#utility.yul\":18783:18789   */\n      dup5\n        /* \"#utility.yul\":18779:18801   */\n      and\n        /* \"#utility.yul\":18829:18866   */\n      tag_335\n        /* \"#utility.yul\":18861:18865   */\n      dup7\n        /* \"#utility.yul\":18829:18866   */\n      tag_127\n      jump\t// in\n    tag_335:\n        /* \"#utility.yul\":18888:18889   */\n      0x00\n        /* \"#utility.yul\":18902:19110   */\n    tag_336:\n        /* \"#utility.yul\":18916:18923   */\n      dup3\n        /* \"#utility.yul\":18913:18914   */\n      dup2\n        /* \"#utility.yul\":18910:18924   */\n      lt\n        /* \"#utility.yul\":18902:19110   */\n      iszero\n      tag_338\n      jumpi\n        /* \"#utility.yul\":18995:19004   */\n      dup5\n        /* \"#utility.yul\":18990:18993   */\n      dup10\n        /* \"#utility.yul\":18986:19005   */\n      add\n        /* \"#utility.yul\":18980:19006   */\n      mload\n        /* \"#utility.yul\":18972:18978   */\n      dup3\n        /* \"#utility.yul\":18965:19007   */\n      sstore\n        /* \"#utility.yul\":19046:19047   */\n      0x01\n        /* \"#utility.yul\":19038:19044   */\n      dup3\n        /* \"#utility.yul\":19034:19048   */\n      add\n        /* \"#utility.yul\":19024:19048   */\n      swap2\n      pop\n        /* \"#utility.yul\":19093:19095   */\n      0x20\n        /* \"#utility.yul\":19082:19091   */\n      dup6\n        /* \"#utility.yul\":19078:19096   */\n      add\n        /* \"#utility.yul\":19065:19096   */\n      swap5\n      pop\n        /* \"#utility.yul\":18939:18943   */\n      0x20\n        /* \"#utility.yul\":18936:18937   */\n      dup2\n        /* \"#utility.yul\":18932:18944   */\n      add\n        /* \"#utility.yul\":18927:18944   */\n      swap1\n      pop\n        /* \"#utility.yul\":18902:19110   */\n      jump(tag_336)\n    tag_338:\n        /* \"#utility.yul\":19138:19144   */\n      dup7\n        /* \"#utility.yul\":19129:19136   */\n      dup4\n        /* \"#utility.yul\":19126:19145   */\n      lt\n        /* \"#utility.yul\":19123:19302   */\n      iszero\n      tag_339\n      jumpi\n        /* \"#utility.yul\":19196:19205   */\n      dup5\n        /* \"#utility.yul\":19191:19194   */\n      dup10\n        /* \"#utility.yul\":19187:19206   */\n      add\n        /* \"#utility.yul\":19181:19207   */\n      mload\n        /* \"#utility.yul\":19239:19287   */\n      tag_340\n        /* \"#utility.yul\":19281:19285   */\n      0x1f\n        /* \"#utility.yul\":19273:19279   */\n      dup10\n        /* \"#utility.yul\":19269:19286   */\n      and\n        /* \"#utility.yul\":19258:19267   */\n      dup3\n        /* \"#utility.yul\":19239:19287   */\n      tag_140\n      jump\t// in\n    tag_340:\n        /* \"#utility.yul\":19231:19237   */\n      dup4\n        /* \"#utility.yul\":19224:19288   */\n      sstore\n        /* \"#utility.yul\":19146:19302   */\n      pop\n        /* \"#utility.yul\":19123:19302   */\n    tag_339:\n        /* \"#utility.yul\":19348:19349   */\n      0x01\n        /* \"#utility.yul\":19344:19345   */\n      0x02\n        /* \"#utility.yul\":19336:19342   */\n      dup9\n        /* \"#utility.yul\":19332:19346   */\n      mul\n        /* \"#utility.yul\":19328:19350   */\n      add\n        /* \"#utility.yul\":19322:19326   */\n      dup9\n        /* \"#utility.yul\":19315:19351   */\n      sstore\n        /* \"#utility.yul\":18750:19361   */\n      pop\n      pop\n      pop\n        /* \"#utility.yul\":18713:19600   */\n    tag_331:\n      pop\n        /* \"#utility.yul\":18303:19606   */\n      pop\n      pop\n      pop\n        /* \"#utility.yul\":18211:19606   */\n      pop\n      pop\n      jump\t// out\n\n    auxdata: 0xa26469706673582212203e9815dcf3504fd037658a34f9bfd3f4ff1fa0cc23f09132bc41415c9f0a7fb264736f6c634300081e0033\n}\n",
				"bytecode": {
					"linkReferences": {},
					"object": "6080604052348015600e575f5ffd5b50610ec48061001c5f395ff3fe608060405234801561000f575f5ffd5b506004361061007b575f3560e01c80636ff4ea7c116100595780636ff4ea7c146100d55780638931940d1461010757806389347d6014610125578063d0ad7bed146101435761007b565b80630d4e76b01461007f57806313bdfacd1461009b578063278be2e8146100b9575b5f5ffd5b610099600480360381019061009491906106f9565b61015f565b005b6100a36101e8565b6040516100b091906108eb565b60405180910390f35b6100d360048036038101906100ce919061090b565b6102f7565b005b6100ef60048036038101906100ea919061090b565b610320565b6040516100fe9392919061099c565b60405180910390f35b61010f6103e7565b60405161011c9190610a93565b60405180910390f35b61012d6104ba565b60405161013a9190610b5b565b60405180910390f35b61015d60048036038101906101589190610b7b565b610510565b005b60026040518060600160405280858152602001848152602001831515815250908060018154018082558091505060019003905f5260205f2090600302015f909190919091505f820151815f0190816101b79190610dbf565b50602082015181600101556040820151816002015f6101000a81548160ff0219169083151502179055505050505050565b60606002805480602002602001604051908101604052809291908181526020015f905b828210156102ee578382905f5260205f2090600302016040518060600160405290815f8201805461023b90610bef565b80601f016020809104026020016040519081016040528092919081815260200182805461026790610bef565b80156102b25780601f10610289576101008083540402835291602001916102b2565b820191905f5260205f20905b81548152906001019060200180831161029557829003601f168201915b5050505050815260200160018201548152602001600282015f9054906101000a900460ff1615151515815250508152602001906001019061020b565b50505050905090565b600181908060018154018082558091505060019003905f5260205f20015f909190919091505550565b6002818154811061032f575f80fd5b905f5260205f2090600302015f91509050805f01805461034e90610bef565b80601f016020809104026020016040519081016040528092919081815260200182805461037a90610bef565b80156103c55780601f1061039c576101008083540402835291602001916103c5565b820191905f5260205f20905b8154815290600101906020018083116103a857829003601f168201915b505050505090806001015490806002015f9054906101000a900460ff16905083565b60605f805480602002602001604051908101604052809291908181526020015f905b828210156104b1578382905f5260205f2001805461042690610bef565b80601f016020809104026020016040519081016040528092919081815260200182805461045290610bef565b801561049d5780601f106104745761010080835404028352916020019161049d565b820191905f5260205f20905b81548152906001019060200180831161048057829003601f168201915b505050505081526020019060010190610409565b50505050905090565b6060600180548060200260200160405190810160405280929190818152602001828054801561050657602002820191905f5260205f20905b8154815260200190600101908083116104f2575b5050505050905090565b5f81908060018154018082558091505060019003905f5260205f20015f9091909190915090816105409190610dbf565b5050565b5f604051905090565b5f5ffd5b5f5ffd5b5f5ffd5b5f5ffd5b5f601f19601f8301169050919050565b7f4e487b71000000000000000000000000000000000000000000000000000000005f52604160045260245ffd5b6105a38261055d565b810181811067ffffffffffffffff821117156105c2576105c161056d565b5b80604052505050565b5f6105d4610544565b90506105e0828261059a565b919050565b5f67ffffffffffffffff8211156105ff576105fe61056d565b5b6106088261055d565b9050602081019050919050565b828183375f83830152505050565b5f610635610630846105e5565b6105cb565b90508281526020810184848401111561065157610650610559565b5b61065c848285610615565b509392505050565b5f82601f83011261067857610677610555565b5b8135610688848260208601610623565b91505092915050565b5f819050919050565b6106a381610691565b81146106ad575f5ffd5b50565b5f813590506106be8161069a565b92915050565b5f8115159050919050565b6106d8816106c4565b81146106e2575f5ffd5b50565b5f813590506106f3816106cf565b92915050565b5f5f5f606084860312156107105761070f61054d565b5b5f84013567ffffffffffffffff81111561072d5761072c610551565b5b61073986828701610664565b935050602061074a868287016106b0565b925050604061075b868287016106e5565b9150509250925092565b5f81519050919050565b5f82825260208201905092915050565b5f819050602082019050919050565b5f81519050919050565b5f82825260208201905092915050565b8281835e5f83830152505050565b5f6107c08261078e565b6107ca8185610798565b93506107da8185602086016107a8565b6107e38161055d565b840191505092915050565b6107f781610691565b82525050565b610806816106c4565b82525050565b5f606083015f8301518482035f86015261082682826107b6565b915050602083015161083b60208601826107ee565b50604083015161084e60408601826107fd565b508091505092915050565b5f610864838361080c565b905092915050565b5f602082019050919050565b5f61088282610765565b61088c818561076f565b93508360208202850161089e8561077f565b805f5b858110156108d957848403895281516108ba8582610859565b94506108c58361086c565b925060208a019950506001810190506108a1565b50829750879550505050505092915050565b5f6020820190508181035f8301526109038184610878565b905092915050565b5f602082840312156109205761091f61054d565b5b5f61092d848285016106b0565b91505092915050565b5f82825260208201905092915050565b5f6109508261078e565b61095a8185610936565b935061096a8185602086016107a8565b6109738161055d565b840191505092915050565b61098781610691565b82525050565b610996816106c4565b82525050565b5f6060820190508181035f8301526109b48186610946565b90506109c3602083018561097e565b6109d0604083018461098d565b949350505050565b5f81519050919050565b5f82825260208201905092915050565b5f819050602082019050919050565b5f610a0c83836107b6565b905092915050565b5f602082019050919050565b5f610a2a826109d8565b610a3481856109e2565b935083602082028501610a46856109f2565b805f5b85811015610a815784840389528151610a628582610a01565b9450610a6d83610a14565b925060208a01995050600181019050610a49565b50829750879550505050505092915050565b5f6020820190508181035f830152610aab8184610a20565b905092915050565b5f81519050919050565b5f82825260208201905092915050565b5f819050602082019050919050565b5f610ae783836107ee565b60208301905092915050565b5f602082019050919050565b5f610b0982610ab3565b610b138185610abd565b9350610b1e83610acd565b805f5b83811015610b4e578151610b358882610adc565b9750610b4083610af3565b925050600181019050610b21565b5085935050505092915050565b5f6020820190508181035f830152610b738184610aff565b905092915050565b5f60208284031215610b9057610b8f61054d565b5b5f82013567ffffffffffffffff811115610bad57610bac610551565b5b610bb984828501610664565b91505092915050565b7f4e487b71000000000000000000000000000000000000000000000000000000005f52602260045260245ffd5b5f6002820490506001821680610c0657607f821691505b602082108103610c1957610c18610bc2565b5b50919050565b5f819050815f5260205f209050919050565b5f6020601f8301049050919050565b5f82821b905092915050565b5f60088302610c7b7fffffffffffffffffffffffffffffffffffffffffffffffffffffffffffffffff82610c40565b610c858683610c40565b95508019841693508086168417925050509392505050565b5f819050919050565b5f610cc0610cbb610cb684610691565b610c9d565b610691565b9050919050565b5f819050919050565b610cd983610ca6565b610ced610ce582610cc7565b848454610c4c565b825550505050565b5f5f905090565b610d04610cf5565b610d0f818484610cd0565b505050565b5b81811015610d3257610d275f82610cfc565b600181019050610d15565b5050565b601f821115610d7757610d4881610c1f565b610d5184610c31565b81016020851015610d60578190505b610d74610d6c85610c31565b830182610d14565b50505b505050565b5f82821c905092915050565b5f610d975f1984600802610d7c565b1980831691505092915050565b5f610daf8383610d88565b9150826002028217905092915050565b610dc88261078e565b67ffffffffffffffff811115610de157610de061056d565b5b610deb8254610bef565b610df6828285610d36565b5f60209050601f831160018114610e27575f8415610e15578287015190505b610e1f8582610da4565b865550610e86565b601f198416610e3586610c1f565b5f5b82811015610e5c57848901518255600182019150602085019450602081019050610e37565b86831015610e795784890151610e75601f891682610d88565b8355505b6001600288020188555050505b50505050505056fea26469706673582212203e9815dcf3504fd037658a34f9bfd3f4ff1fa0cc23f09132bc41415c9f0a7fb264736f6c634300081e0033",
					"opcodes": "PUSH1 0x80 PUSH1 0x40 MSTORE CALLVALUE DUP1 ISZERO PUSH1 0xE JUMPI PUSH0 PUSH0 REVERT JUMPDEST POP PUSH2 0xEC4 DUP1 PUSH2 0x1C PUSH0 CODECOPY PUSH0 RETURN INVALID PUSH1 0x80 PUSH1 0x40 MSTORE CALLVALUE DUP1 ISZERO PUSH2 0xF JUMPI PUSH0 PUSH0 REVERT JUMPDEST POP PUSH1 0x4 CALLDATASIZE LT PUSH2 0x7B JUMPI PUSH0 CALLDATALOAD PUSH1 0xE0 SHR DUP1 PUSH4 0x6FF4EA7C GT PUSH2 0x59 JUMPI DUP1 PUSH4 0x6FF4EA7C EQ PUSH2 0xD5 JUMPI DUP1 PUSH4 0x8931940D EQ PUSH2 0x107 JUMPI DUP1 PUSH4 0x89347D60 EQ PUSH2 0x125 JUMPI DUP1 PUSH4 0xD0AD7BED EQ PUSH2 0x143 JUMPI PUSH2 0x7B JUMP JUMPDEST DUP1 PUSH4 0xD4E76B0 EQ PUSH2 0x7F JUMPI DUP1 PUSH4 0x13BDFACD EQ PUSH2 0x9B JUMPI DUP1 PUSH4 0x278BE2E8 EQ PUSH2 0xB9 JUMPI JUMPDEST PUSH0 PUSH0 REVERT JUMPDEST PUSH2 0x99 PUSH1 0x4 DUP1 CALLDATASIZE SUB DUP2 ADD SWAP1 PUSH2 0x94 SWAP2 SWAP1 PUSH2 0x6F9 JUMP JUMPDEST PUSH2 0x15F JUMP JUMPDEST STOP JUMPDEST PUSH2 0xA3 PUSH2 0x1E8 JUMP JUMPDEST PUSH1 0x40 MLOAD PUSH2 0xB0 SWAP2 SWAP1 PUSH2 0x8EB JUMP JUMPDEST PUSH1 0x40 MLOAD DUP1 SWAP2 SUB SWAP1 RETURN JUMPDEST PUSH2 0xD3 PUSH1 0x4 DUP1 CALLDATASIZE SUB DUP2 ADD SWAP1 PUSH2 0xCE SWAP2 SWAP1 PUSH2 0x90B JUMP JUMPDEST PUSH2 0x2F7 JUMP JUMPDEST STOP JUMPDEST PUSH2 0xEF PUSH1 0x4 DUP1 CALLDATASIZE SUB DUP2 ADD SWAP1 PUSH2 0xEA SWAP2 SWAP1 PUSH2 0x90B JUMP JUMPDEST PUSH2 0x320 JUMP JUMPDEST PUSH1 0x40 MLOAD PUSH2 0xFE SWAP4 SWAP3 SWAP2 SWAP1 PUSH2 0x99C JUMP JUMPDEST PUSH1 0x40 MLOAD DUP1 SWAP2 SUB SWAP1 RETURN JUMPDEST PUSH2 0x10F PUSH2 0x3E7 JUMP JUMPDEST PUSH1 0x40 MLOAD PUSH2 0x11C SWAP2 SWAP1 PUSH2 0xA93 JUMP JUMPDEST PUSH1 0x40 MLOAD DUP1 SWAP2 SUB SWAP1 RETURN JUMPDEST PUSH2 0x12D PUSH2 0x4BA JUMP JUMPDEST PUSH1 0x40 MLOAD PUSH2 0x13A SWAP2 SWAP1 PUSH2 0xB5B JUMP JUMPDEST PUSH1 0x40 MLOAD DUP1 SWAP2 SUB SWAP1 RETURN JUMPDEST PUSH2 0x15D PUSH1 0x4 DUP1 CALLDATASIZE SUB DUP2 ADD SWAP1 PUSH2 0x158 SWAP2 SWAP1 PUSH2 0xB7B JUMP JUMPDEST PUSH2 0x510 JUMP JUMPDEST STOP JUMPDEST PUSH1 0x2 PUSH1 0x40 MLOAD DUP1 PUSH1 0x60 ADD PUSH1 0x40 MSTORE DUP1 DUP6 DUP2 MSTORE PUSH1 0x20 ADD DUP5 DUP2 MSTORE PUSH1 0x20 ADD DUP4 ISZERO ISZERO DUP2 MSTORE POP SWAP1 DUP1 PUSH1 0x1 DUP2 SLOAD ADD DUP1 DUP3 SSTORE DUP1 SWAP2 POP POP PUSH1 0x1 SWAP1 SUB SWAP1 PUSH0 MSTORE PUSH1 0x20 PUSH0 KECCAK256 SWAP1 PUSH1 0x3 MUL ADD PUSH0 SWAP1 SWAP2 SWAP1 SWAP2 SWAP1 SWAP2 POP PUSH0 DUP3 ADD MLOAD DUP2 PUSH0 ADD SWAP1 DUP2 PUSH2 0x1B7 SWAP2 SWAP1 PUSH2 0xDBF JUMP JUMPDEST POP PUSH1 0x20 DUP3 ADD MLOAD DUP2 PUSH1 0x1 ADD SSTORE PUSH1 0x40 DUP3 ADD MLOAD DUP2 PUSH1 0x2 ADD PUSH0 PUSH2 0x100 EXP DUP2 SLOAD DUP2 PUSH1 0xFF MUL NOT AND SWAP1 DUP4 ISZERO ISZERO MUL OR SWAP1 SSTORE POP POP POP POP POP POP JUMP JUMPDEST PUSH1 0x60 PUSH1 0x2 DUP1 SLOAD DUP1 PUSH1 0x20 MUL PUSH1 0x20 ADD PUSH1 0x40 MLOAD SWAP1 DUP2 ADD PUSH1 0x40 MSTORE DUP1 SWAP3 SWAP2 SWAP1 DUP2 DUP2 MSTORE PUSH1 0x20 ADD PUSH0 SWAP1 JUMPDEST DUP3 DUP3 LT ISZERO PUSH2 0x2EE JUMPI DUP4 DUP3 SWAP1 PUSH0 MSTORE PUSH1 0x20 PUSH0 KECCAK256 SWAP1 PUSH1 0x3 MUL ADD PUSH1 0x40 MLOAD DUP1 PUSH1 0x60 ADD PUSH1 0x40 MSTORE SWAP1 DUP2 PUSH0 DUP3 ADD DUP1 SLOAD PUSH2 0x23B SWAP1 PUSH2 0xBEF JUMP JUMPDEST DUP1 PUSH1 0x1F ADD PUSH1 0x20 DUP1 SWAP2 DIV MUL PUSH1 0x20 ADD PUSH1 0x40 MLOAD SWAP1 DUP2 ADD PUSH1 0x40 MSTORE DUP1 SWAP3 SWAP2 SWAP1 DUP2 DUP2 MSTORE PUSH1 0x20 ADD DUP3 DUP1 SLOAD PUSH2 0x267 SWAP1 PUSH2 0xBEF JUMP JUMPDEST DUP1 ISZERO PUSH2 0x2B2 JUMPI DUP1 PUSH1 0x1F LT PUSH2 0x289 JUMPI PUSH2 0x100 DUP1 DUP4 SLOAD DIV MUL DUP4 MSTORE SWAP2 PUSH1 0x20 ADD SWAP2 PUSH2 0x2B2 JUMP JUMPDEST DUP3 ADD SWAP2 SWAP1 PUSH0 MSTORE PUSH1 0x20 PUSH0 KECCAK256 SWAP1 JUMPDEST DUP2 SLOAD DUP2 MSTORE SWAP1 PUSH1 0x1 ADD SWAP1 PUSH1 0x20 ADD DUP1 DUP4 GT PUSH2 0x295 JUMPI DUP3 SWAP1 SUB PUSH1 0x1F AND DUP3 ADD SWAP2 JUMPDEST POP POP POP POP POP DUP2 MSTORE PUSH1 0x20 ADD PUSH1 0x1 DUP3 ADD SLOAD DUP2 MSTORE PUSH1 0x20 ADD PUSH1 0x2 DUP3 ADD PUSH0 SWAP1 SLOAD SWAP1 PUSH2 0x100 EXP SWAP1 DIV PUSH1 0xFF AND ISZERO ISZERO ISZERO ISZERO DUP2 MSTORE POP POP DUP2 MSTORE PUSH1 0x20 ADD SWAP1 PUSH1 0x1 ADD SWAP1 PUSH2 0x20B JUMP JUMPDEST POP POP POP POP SWAP1 POP SWAP1 JUMP JUMPDEST PUSH1 0x1 DUP2 SWAP1 DUP1 PUSH1 0x1 DUP2 SLOAD ADD DUP1 DUP3 SSTORE DUP1 SWAP2 POP POP PUSH1 0x1 SWAP1 SUB SWAP1 PUSH0 MSTORE PUSH1 0x20 PUSH0 KECCAK256 ADD PUSH0 SWAP1 SWAP2 SWAP1 SWAP2 SWAP1 SWAP2 POP SSTORE POP JUMP JUMPDEST PUSH1 0x2 DUP2 DUP2 SLOAD DUP2 LT PUSH2 0x32F JUMPI PUSH0 DUP1 REVERT JUMPDEST SWAP1 PUSH0 MSTORE PUSH1 0x20 PUSH0 KECCAK256 SWAP1 PUSH1 0x3 MUL ADD PUSH0 SWAP2 POP SWAP1 POP DUP1 PUSH0 ADD DUP1 SLOAD PUSH2 0x34E SWAP1 PUSH2 0xBEF JUMP JUMPDEST DUP1 PUSH1 0x1F ADD PUSH1 0x20 DUP1 SWAP2 DIV MUL PUSH1 0x20 ADD PUSH1 0x40 MLOAD SWAP1 DUP2 ADD PUSH1 0x40 MSTORE DUP1 SWAP3 SWAP2 SWAP1 DUP2 DUP2 MSTORE PUSH1 0x20 ADD DUP3 DUP1 SLOAD PUSH2 0x37A SWAP1 PUSH2 0xBEF JUMP JUMPDEST DUP1 ISZERO PUSH2 0x3C5 JUMPI DUP1 PUSH1 0x1F LT PUSH2 0x39C JUMPI PUSH2 0x100 DUP1 DUP4 SLOAD DIV MUL DUP4 MSTORE SWAP2 PUSH1 0x20 ADD SWAP2 PUSH2 0x3C5 JUMP JUMPDEST DUP3 ADD SWAP2 SWAP1 PUSH0 MSTORE PUSH1 0x20 PUSH0 KECCAK256 SWAP1 JUMPDEST DUP2 SLOAD DUP2 MSTORE SWAP1 PUSH1 0x1 ADD SWAP1 PUSH1 0x20 ADD DUP1 DUP4 GT PUSH2 0x3A8 JUMPI DUP3 SWAP1 SUB PUSH1 0x1F AND DUP3 ADD SWAP2 JUMPDEST POP POP POP POP POP SWAP1 DUP1 PUSH1 0x1 ADD SLOAD SWAP1 DUP1 PUSH1 0x2 ADD PUSH0 SWAP1 SLOAD SWAP1 PUSH2 0x100 EXP SWAP1 DIV PUSH1 0xFF AND SWAP1 POP DUP4 JUMP JUMPDEST PUSH1 0x60 PUSH0 DUP1 SLOAD DUP1 PUSH1 0x20 MUL PUSH1 0x20 ADD PUSH1 0x40 MLOAD SWAP1 DUP2 ADD PUSH1 0x40 MSTORE DUP1 SWAP3 SWAP2 SWAP1 DUP2 DUP2 MSTORE PUSH1 0x20 ADD PUSH0 SWAP1 JUMPDEST DUP3 DUP3 LT ISZERO PUSH2 0x4B1 JUMPI DUP4 DUP3 SWAP1 PUSH0 MSTORE PUSH1 0x20 PUSH0 KECCAK256 ADD DUP1 SLOAD PUSH2 0x426 SWAP1 PUSH2 0xBEF JUMP JUMPDEST DUP1 PUSH1 0x1F ADD PUSH1 0x20 DUP1 SWAP2 DIV MUL PUSH1 0x20 ADD PUSH1 0x40 MLOAD SWAP1 DUP2 ADD PUSH1 0x40 MSTORE DUP1 SWAP3 SWAP2 SWAP1 DUP2 DUP2 MSTORE PUSH1 0x20 ADD DUP3 DUP1 SLOAD PUSH2 0x452 SWAP1 PUSH2 0xBEF JUMP JUMPDEST DUP1 ISZERO PUSH2 0x49D JUMPI DUP1 PUSH1 0x1F LT PUSH2 0x474 JUMPI PUSH2 0x100 DUP1 DUP4 SLOAD DIV MUL DUP4 MSTORE SWAP2 PUSH1 0x20 ADD SWAP2 PUSH2 0x49D JUMP JUMPDEST DUP3 ADD SWAP2 SWAP1 PUSH0 MSTORE PUSH1 0x20 PUSH0 KECCAK256 SWAP1 JUMPDEST DUP2 SLOAD DUP2 MSTORE SWAP1 PUSH1 0x1 ADD SWAP1 PUSH1 0x20 ADD DUP1 DUP4 GT PUSH2 0x480 JUMPI DUP3 SWAP1 SUB PUSH1 0x1F AND DUP3 ADD SWAP2 JUMPDEST POP POP POP POP POP DUP2 MSTORE PUSH1 0x20 ADD SWAP1 PUSH1 0x1 ADD SWAP1 PUSH2 0x409 JUMP JUMPDEST POP POP POP POP SWAP1 POP SWAP1 JUMP JUMPDEST PUSH1 0x60 PUSH1 0x1 DUP1 SLOAD DUP1 PUSH1 0x20 MUL PUSH1 0x20 ADD PUSH1 0x40 MLOAD SWAP1 DUP2 ADD PUSH1 0x40 MSTORE DUP1 SWAP3 SWAP2 SWAP1 DUP2 DUP2 MSTORE PUSH1 0x20 ADD DUP3 DUP1 SLOAD DUP1 ISZERO PUSH2 0x506 JUMPI PUSH1 0x20 MUL DUP3 ADD SWAP2 SWAP1 PUSH0 MSTORE PUSH1 0x20 PUSH0 KECCAK256 SWAP1 JUMPDEST DUP2 SLOAD DUP2 MSTORE PUSH1 0x20 ADD SWAP1 PUSH1 0x1 ADD SWAP1 DUP1 DUP4 GT PUSH2 0x4F2 JUMPI JUMPDEST POP POP POP POP POP SWAP1 POP SWAP1 JUMP JUMPDEST PUSH0 DUP2 SWAP1 DUP1 PUSH1 0x1 DUP2 SLOAD ADD DUP1 DUP3 SSTORE DUP1 SWAP2 POP POP PUSH1 0x1 SWAP1 SUB SWAP1 PUSH0 MSTORE PUSH1 0x20 PUSH0 KECCAK256 ADD PUSH0 SWAP1 SWAP2 SWAP1 SWAP2 SWAP1 SWAP2 POP SWAP1 DUP2 PUSH2 0x540 SWAP2 SWAP1 PUSH2 0xDBF JUMP JUMPDEST POP POP JUMP JUMPDEST PUSH0 PUSH1 0x40 MLOAD SWAP1 POP SWAP1 JUMP JUMPDEST PUSH0 PUSH0 REVERT JUMPDEST PUSH0 PUSH0 REVERT JUMPDEST PUSH0 PUSH0 REVERT JUMPDEST PUSH0 PUSH0 REVERT JUMPDEST PUSH0 PUSH1 0x1F NOT PUSH1 0x1F DUP4 ADD AND SWAP1 POP SWAP2 SWAP1 POP JUMP JUMPDEST PUSH32 0x4E487B7100000000000000000000000000000000000000000000000000000000 PUSH0 MSTORE PUSH1 0x41 PUSH1 0x4 MSTORE PUSH1 0x24 PUSH0 REVERT JUMPDEST PUSH2 0x5A3 DUP3 PUSH2 0x55D JUMP JUMPDEST DUP2 ADD DUP2 DUP2 LT PUSH8 0xFFFFFFFFFFFFFFFF DUP3 GT OR ISZERO PUSH2 0x5C2 JUMPI PUSH2 0x5C1 PUSH2 0x56D JUMP JUMPDEST JUMPDEST DUP1 PUSH1 0x40 MSTORE POP POP POP JUMP JUMPDEST PUSH0 PUSH2 0x5D4 PUSH2 0x544 JUMP JUMPDEST SWAP1 POP PUSH2 0x5E0 DUP3 DUP3 PUSH2 0x59A JUMP JUMPDEST SWAP2 SWAP1 POP JUMP JUMPDEST PUSH0 PUSH8 0xFFFFFFFFFFFFFFFF DUP3 GT ISZERO PUSH2 0x5FF JUMPI PUSH2 0x5FE PUSH2 0x56D JUMP JUMPDEST JUMPDEST PUSH2 0x608 DUP3 PUSH2 0x55D JUMP JUMPDEST SWAP1 POP PUSH1 0x20 DUP2 ADD SWAP1 POP SWAP2 SWAP1 POP JUMP JUMPDEST DUP3 DUP2 DUP4 CALLDATACOPY PUSH0 DUP4 DUP4 ADD MSTORE POP POP POP JUMP JUMPDEST PUSH0 PUSH2 0x635 PUSH2 0x630 DUP5 PUSH2 0x5E5 JUMP JUMPDEST PUSH2 0x5CB JUMP JUMPDEST SWAP1 POP DUP3 DUP2 MSTORE PUSH1 0x20 DUP2 ADD DUP5 DUP5 DUP5 ADD GT ISZERO PUSH2 0x651 JUMPI PUSH2 0x650 PUSH2 0x559 JUMP JUMPDEST JUMPDEST PUSH2 0x65C DUP5 DUP3 DUP6 PUSH2 0x615 JUMP JUMPDEST POP SWAP4 SWAP3 POP POP POP JUMP JUMPDEST PUSH0 DUP3 PUSH1 0x1F DUP4 ADD SLT PUSH2 0x678 JUMPI PUSH2 0x677 PUSH2 0x555 JUMP JUMPDEST JUMPDEST DUP2 CALLDATALOAD PUSH2 0x688 DUP5 DUP3 PUSH1 0x20 DUP7 ADD PUSH2 0x623 JUMP JUMPDEST SWAP2 POP POP SWAP3 SWAP2 POP POP JUMP JUMPDEST PUSH0 DUP2 SWAP1 POP SWAP2 SWAP1 POP JUMP JUMPDEST PUSH2 0x6A3 DUP2 PUSH2 0x691 JUMP JUMPDEST DUP2 EQ PUSH2 0x6AD JUMPI PUSH0 PUSH0 REVERT JUMPDEST POP JUMP JUMPDEST PUSH0 DUP2 CALLDATALOAD SWAP1 POP PUSH2 0x6BE DUP2 PUSH2 0x69A JUMP JUMPDEST SWAP3 SWAP2 POP POP JUMP JUMPDEST PUSH0 DUP2 ISZERO ISZERO SWAP1 POP SWAP2 SWAP1 POP JUMP JUMPDEST PUSH2 0x6D8 DUP2 PUSH2 0x6C4 JUMP JUMPDEST DUP2 EQ PUSH2 0x6E2 JUMPI PUSH0 PUSH0 REVERT JUMPDEST POP JUMP JUMPDEST PUSH0 DUP2 CALLDATALOAD SWAP1 POP PUSH2 0x6F3 DUP2 PUSH2 0x6CF JUMP JUMPDEST SWAP3 SWAP2 POP POP JUMP JUMPDEST PUSH0 PUSH0 PUSH0 PUSH1 0x60 DUP5 DUP7 SUB SLT ISZERO PUSH2 0x710 JUMPI PUSH2 0x70F PUSH2 0x54D JUMP JUMPDEST JUMPDEST PUSH0 DUP5 ADD CALLDATALOAD PUSH8 0xFFFFFFFFFFFFFFFF DUP2 GT ISZERO PUSH2 0x72D JUMPI PUSH2 0x72C PUSH2 0x551 JUMP JUMPDEST JUMPDEST PUSH2 0x739 DUP7 DUP3 DUP8 ADD PUSH2 0x664 JUMP JUMPDEST SWAP4 POP POP PUSH1 0x20 PUSH2 0x74A DUP7 DUP3 DUP8 ADD PUSH2 0x6B0 JUMP JUMPDEST SWAP3 POP POP PUSH1 0x40 PUSH2 0x75B DUP7 DUP3 DUP8 ADD PUSH2 0x6E5 JUMP JUMPDEST SWAP2 POP POP SWAP3 POP SWAP3 POP SWAP3 JUMP JUMPDEST PUSH0 DUP2 MLOAD SWAP1 POP SWAP2 SWAP1 POP JUMP JUMPDEST PUSH0 DUP3 DUP3 MSTORE PUSH1 0x20 DUP3 ADD SWAP1 POP SWAP3 SWAP2 POP POP JUMP JUMPDEST PUSH0 DUP2 SWAP1 POP PUSH1 0x20 DUP3 ADD SWAP1 POP SWAP2 SWAP1 POP JUMP JUMPDEST PUSH0 DUP2 MLOAD SWAP1 POP SWAP2 SWAP1 POP JUMP JUMPDEST PUSH0 DUP3 DUP3 MSTORE PUSH1 0x20 DUP3 ADD SWAP1 POP SWAP3 SWAP2 POP POP JUMP JUMPDEST DUP3 DUP2 DUP4 MCOPY PUSH0 DUP4 DUP4 ADD MSTORE POP POP POP JUMP JUMPDEST PUSH0 PUSH2 0x7C0 DUP3 PUSH2 0x78E JUMP JUMPDEST PUSH2 0x7CA DUP2 DUP6 PUSH2 0x798 JUMP JUMPDEST SWAP4 POP PUSH2 0x7DA DUP2 DUP6 PUSH1 0x20 DUP7 ADD PUSH2 0x7A8 JUMP JUMPDEST PUSH2 0x7E3 DUP2 PUSH2 0x55D JUMP JUMPDEST DUP5 ADD SWAP2 POP POP SWAP3 SWAP2 POP POP JUMP JUMPDEST PUSH2 0x7F7 DUP2 PUSH2 0x691 JUMP JUMPDEST DUP3 MSTORE POP POP JUMP JUMPDEST PUSH2 0x806 DUP2 PUSH2 0x6C4 JUMP JUMPDEST DUP3 MSTORE POP POP JUMP JUMPDEST PUSH0 PUSH1 0x60 DUP4 ADD PUSH0 DUP4 ADD MLOAD DUP5 DUP3 SUB PUSH0 DUP7 ADD MSTORE PUSH2 0x826 DUP3 DUP3 PUSH2 0x7B6 JUMP JUMPDEST SWAP2 POP POP PUSH1 0x20 DUP4 ADD MLOAD PUSH2 0x83B PUSH1 0x20 DUP7 ADD DUP3 PUSH2 0x7EE JUMP JUMPDEST POP PUSH1 0x40 DUP4 ADD MLOAD PUSH2 0x84E PUSH1 0x40 DUP7 ADD DUP3 PUSH2 0x7FD JUMP JUMPDEST POP DUP1 SWAP2 POP POP SWAP3 SWAP2 POP POP JUMP JUMPDEST PUSH0 PUSH2 0x864 DUP4 DUP4 PUSH2 0x80C JUMP JUMPDEST SWAP1 POP SWAP3 SWAP2 POP POP JUMP JUMPDEST PUSH0 PUSH1 0x20 DUP3 ADD SWAP1 POP SWAP2 SWAP1 POP JUMP JUMPDEST PUSH0 PUSH2 0x882 DUP3 PUSH2 0x765 JUMP JUMPDEST PUSH2 0x88C DUP2 DUP6 PUSH2 0x76F JUMP JUMPDEST SWAP4 POP DUP4 PUSH1 0x20 DUP3 MUL DUP6 ADD PUSH2 0x89E DUP6 PUSH2 0x77F JUMP JUMPDEST DUP1 PUSH0 JUMPDEST DUP6 DUP2 LT ISZERO PUSH2 0x8D9 JUMPI DUP5 DUP5 SUB DUP10 MSTORE DUP2 MLOAD PUSH2 0x8BA DUP6 DUP3 PUSH2 0x859 JUMP JUMPDEST SWAP5 POP PUSH2 0x8C5 DUP4 PUSH2 0x86C JUMP JUMPDEST SWAP3 POP PUSH1 0x20 DUP11 ADD SWAP10 POP POP PUSH1 0x1 DUP2 ADD SWAP1 POP PUSH2 0x8A1 JUMP JUMPDEST POP DUP3 SWAP8 POP DUP8 SWAP6 POP POP POP POP POP POP SWAP3 SWAP2 POP POP JUMP JUMPDEST PUSH0 PUSH1 0x20 DUP3 ADD SWAP1 POP DUP2 DUP2 SUB PUSH0 DUP4 ADD MSTORE PUSH2 0x903 DUP2 DUP5 PUSH2 0x878 JUMP JUMPDEST SWAP1 POP SWAP3 SWAP2 POP POP JUMP JUMPDEST PUSH0 PUSH1 0x20 DUP3 DUP5 SUB SLT ISZERO PUSH2 0x920 JUMPI PUSH2 0x91F PUSH2 0x54D JUMP JUMPDEST JUMPDEST PUSH0 PUSH2 0x92D DUP5 DUP3 DUP6 ADD PUSH2 0x6B0 JUMP JUMPDEST SWAP2 POP POP SWAP3 SWAP2 POP POP JUMP JUMPDEST PUSH0 DUP3 DUP3 MSTORE PUSH1 0x20 DUP3 ADD SWAP1 POP SWAP3 SWAP2 POP POP JUMP JUMPDEST PUSH0 PUSH2 0x950 DUP3 PUSH2 0x78E JUMP JUMPDEST PUSH2 0x95A DUP2 DUP6 PUSH2 0x936 JUMP JUMPDEST SWAP4 POP PUSH2 0x96A DUP2 DUP6 PUSH1 0x20 DUP7 ADD PUSH2 0x7A8 JUMP JUMPDEST PUSH2 0x973 DUP2 PUSH2 0x55D JUMP JUMPDEST DUP5 ADD SWAP2 POP POP SWAP3 SWAP2 POP POP JUMP JUMPDEST PUSH2 0x987 DUP2 PUSH2 0x691 JUMP JUMPDEST DUP3 MSTORE POP POP JUMP JUMPDEST PUSH2 0x996 DUP2 PUSH2 0x6C4 JUMP JUMPDEST DUP3 MSTORE POP POP JUMP JUMPDEST PUSH0 PUSH1 0x60 DUP3 ADD SWAP1 POP DUP2 DUP2 SUB PUSH0 DUP4 ADD MSTORE PUSH2 0x9B4 DUP2 DUP7 PUSH2 0x946 JUMP JUMPDEST SWAP1 POP PUSH2 0x9C3 PUSH1 0x20 DUP4 ADD DUP6 PUSH2 0x97E JUMP JUMPDEST PUSH2 0x9D0 PUSH1 0x40 DUP4 ADD DUP5 PUSH2 0x98D JUMP JUMPDEST SWAP5 SWAP4 POP POP POP POP JUMP JUMPDEST PUSH0 DUP2 MLOAD SWAP1 POP SWAP2 SWAP1 POP JUMP JUMPDEST PUSH0 DUP3 DUP3 MSTORE PUSH1 0x20 DUP3 ADD SWAP1 POP SWAP3 SWAP2 POP POP JUMP JUMPDEST PUSH0 DUP2 SWAP1 POP PUSH1 0x20 DUP3 ADD SWAP1 POP SWAP2 SWAP1 POP JUMP JUMPDEST PUSH0 PUSH2 0xA0C DUP4 DUP4 PUSH2 0x7B6 JUMP JUMPDEST SWAP1 POP SWAP3 SWAP2 POP POP JUMP JUMPDEST PUSH0 PUSH1 0x20 DUP3 ADD SWAP1 POP SWAP2 SWAP1 POP JUMP JUMPDEST PUSH0 PUSH2 0xA2A DUP3 PUSH2 0x9D8 JUMP JUMPDEST PUSH2 0xA34 DUP2 DUP6 PUSH2 0x9E2 JUMP JUMPDEST SWAP4 POP DUP4 PUSH1 0x20 DUP3 MUL DUP6 ADD PUSH2 0xA46 DUP6 PUSH2 0x9F2 JUMP JUMPDEST DUP1 PUSH0 JUMPDEST DUP6 DUP2 LT ISZERO PUSH2 0xA81 JUMPI DUP5 DUP5 SUB DUP10 MSTORE DUP2 MLOAD PUSH2 0xA62 DUP6 DUP3 PUSH2 0xA01 JUMP JUMPDEST SWAP5 POP PUSH2 0xA6D DUP4 PUSH2 0xA14 JUMP JUMPDEST SWAP3 POP PUSH1 0x20 DUP11 ADD SWAP10 POP POP PUSH1 0x1 DUP2 ADD SWAP1 POP PUSH2 0xA49 JUMP JUMPDEST POP DUP3 SWAP8 POP DUP8 SWAP6 POP POP POP POP POP POP SWAP3 SWAP2 POP POP JUMP JUMPDEST PUSH0 PUSH1 0x20 DUP3 ADD SWAP1 POP DUP2 DUP2 SUB PUSH0 DUP4 ADD MSTORE PUSH2 0xAAB DUP2 DUP5 PUSH2 0xA20 JUMP JUMPDEST SWAP1 POP SWAP3 SWAP2 POP POP JUMP JUMPDEST PUSH0 DUP2 MLOAD SWAP1 POP SWAP2 SWAP1 POP JUMP JUMPDEST PUSH0 DUP3 DUP3 MSTORE PUSH1 0x20 DUP3 ADD SWAP1 POP SWAP3 SWAP2 POP POP JUMP JUMPDEST PUSH0 DUP2 SWAP1 POP PUSH1 0x20 DUP3 ADD SWAP1 POP SWAP2 SWAP1 POP JUMP JUMPDEST PUSH0 PUSH2 0xAE7 DUP4 DUP4 PUSH2 0x7EE JUMP JUMPDEST PUSH1 0x20 DUP4 ADD SWAP1 POP SWAP3 SWAP2 POP POP JUMP JUMPDEST PUSH0 PUSH1 0x20 DUP3 ADD SWAP1 POP SWAP2 SWAP1 POP JUMP JUMPDEST PUSH0 PUSH2 0xB09 DUP3 PUSH2 0xAB3 JUMP JUMPDEST PUSH2 0xB13 DUP2 DUP6 PUSH2 0xABD JUMP JUMPDEST SWAP4 POP PUSH2 0xB1E DUP4 PUSH2 0xACD JUMP JUMPDEST DUP1 PUSH0 JUMPDEST DUP4 DUP2 LT ISZERO PUSH2 0xB4E JUMPI DUP2 MLOAD PUSH2 0xB35 DUP9 DUP3 PUSH2 0xADC JUMP JUMPDEST SWAP8 POP PUSH2 0xB40 DUP4 PUSH2 0xAF3 JUMP JUMPDEST SWAP3 POP POP PUSH1 0x1 DUP2 ADD SWAP1 POP PUSH2 0xB21 JUMP JUMPDEST POP DUP6 SWAP4 POP POP POP POP SWAP3 SWAP2 POP POP JUMP JUMPDEST PUSH0 PUSH1 0x20 DUP3 ADD SWAP1 POP DUP2 DUP2 SUB PUSH0 DUP4 ADD MSTORE PUSH2 0xB73 DUP2 DUP5 PUSH2 0xAFF JUMP JUMPDEST SWAP1 POP SWAP3 SWAP2 POP POP JUMP JUMPDEST PUSH0 PUSH1 0x20 DUP3 DUP5 SUB SLT ISZERO PUSH2 0xB90 JUMPI PUSH2 0xB8F PUSH2 0x54D JUMP JUMPDEST JUMPDEST PUSH0 DUP3 ADD CALLDATALOAD PUSH8 0xFFFFFFFFFFFFFFFF DUP2 GT ISZERO PUSH2 0xBAD JUMPI PUSH2 0xBAC PUSH2 0x551 JUMP JUMPDEST JUMPDEST PUSH2 0xBB9 DUP5 DUP3 DUP6 ADD PUSH2 0x664 JUMP JUMPDEST SWAP2 POP POP SWAP3 SWAP2 POP POP JUMP JUMPDEST PUSH32 0x4E487B7100000000000000000000000000000000000000000000000000000000 PUSH0 MSTORE PUSH1 0x22 PUSH1 0x4 MSTORE PUSH1 0x24 PUSH0 REVERT JUMPDEST PUSH0 PUSH1 0x2 DUP3 DIV SWAP1 POP PUSH1 0x1 DUP3 AND DUP1 PUSH2 0xC06 JUMPI PUSH1 0x7F DUP3 AND SWAP2 POP JUMPDEST PUSH1 0x20 DUP3 LT DUP2 SUB PUSH2 0xC19 JUMPI PUSH2 0xC18 PUSH2 0xBC2 JUMP JUMPDEST JUMPDEST POP SWAP2 SWAP1 POP JUMP JUMPDEST PUSH0 DUP2 SWAP1 POP DUP2 PUSH0 MSTORE PUSH1 0x20 PUSH0 KECCAK256 SWAP1 POP SWAP2 SWAP1 POP JUMP JUMPDEST PUSH0 PUSH1 0x20 PUSH1 0x1F DUP4 ADD DIV SWAP1 POP SWAP2 SWAP1 POP JUMP JUMPDEST PUSH0 DUP3 DUP3 SHL SWAP1 POP SWAP3 SWAP2 POP POP JUMP JUMPDEST PUSH0 PUSH1 0x8 DUP4 MUL PUSH2 0xC7B PUSH32 0xFFFFFFFFFFFFFFFFFFFFFFFFFFFFFFFFFFFFFFFFFFFFFFFFFFFFFFFFFFFFFFFF DUP3 PUSH2 0xC40 JUMP JUMPDEST PUSH2 0xC85 DUP7 DUP4 PUSH2 0xC40 JUMP JUMPDEST SWAP6 POP DUP1 NOT DUP5 AND SWAP4 POP DUP1 DUP7 AND DUP5 OR SWAP3 POP POP POP SWAP4 SWAP3 POP POP POP JUMP JUMPDEST PUSH0 DUP2 SWAP1 POP SWAP2 SWAP1 POP JUMP JUMPDEST PUSH0 PUSH2 0xCC0 PUSH2 0xCBB PUSH2 0xCB6 DUP5 PUSH2 0x691 JUMP JUMPDEST PUSH2 0xC9D JUMP JUMPDEST PUSH2 0x691 JUMP JUMPDEST SWAP1 POP SWAP2 SWAP1 POP JUMP JUMPDEST PUSH0 DUP2 SWAP1 POP SWAP2 SWAP1 POP JUMP JUMPDEST PUSH2 0xCD9 DUP4 PUSH2 0xCA6 JUMP JUMPDEST PUSH2 0xCED PUSH2 0xCE5 DUP3 PUSH2 0xCC7 JUMP JUMPDEST DUP5 DUP5 SLOAD PUSH2 0xC4C JUMP JUMPDEST DUP3 SSTORE POP POP POP POP JUMP JUMPDEST PUSH0 PUSH0 SWAP1 POP SWAP1 JUMP JUMPDEST PUSH2 0xD04 PUSH2 0xCF5 JUMP JUMPDEST PUSH2 0xD0F DUP2 DUP5 DUP5 PUSH2 0xCD0 JUMP JUMPDEST POP POP POP JUMP JUMPDEST JUMPDEST DUP2 DUP2 LT ISZERO PUSH2 0xD32 JUMPI PUSH2 0xD27 PUSH0 DUP3 PUSH2 0xCFC JUMP JUMPDEST PUSH1 0x1 DUP2 ADD SWAP1 POP PUSH2 0xD15 JUMP JUMPDEST POP POP JUMP JUMPDEST PUSH1 0x1F DUP3 GT ISZERO PUSH2 0xD77 JUMPI PUSH2 0xD48 DUP2 PUSH2 0xC1F JUMP JUMPDEST PUSH2 0xD51 DUP5 PUSH2 0xC31 JUMP JUMPDEST DUP2 ADD PUSH1 0x20 DUP6 LT ISZERO PUSH2 0xD60 JUMPI DUP2 SWAP1 POP JUMPDEST PUSH2 0xD74 PUSH2 0xD6C DUP6 PUSH2 0xC31 JUMP JUMPDEST DUP4 ADD DUP3 PUSH2 0xD14 JUMP JUMPDEST POP POP JUMPDEST POP POP POP JUMP JUMPDEST PUSH0 DUP3 DUP3 SHR SWAP1 POP SWAP3 SWAP2 POP POP JUMP JUMPDEST PUSH0 PUSH2 0xD97 PUSH0 NOT DUP5 PUSH1 0x8 MUL PUSH2 0xD7C JUMP JUMPDEST NOT DUP1 DUP4 AND SWAP2 POP POP SWAP3 SWAP2 POP POP JUMP JUMPDEST PUSH0 PUSH2 0xDAF DUP4 DUP4 PUSH2 0xD88 JUMP JUMPDEST SWAP2 POP DUP3 PUSH1 0x2 MUL DUP3 OR SWAP1 POP SWAP3 SWAP2 POP POP JUMP JUMPDEST PUSH2 0xDC8 DUP3 PUSH2 0x78E JUMP JUMPDEST PUSH8 0xFFFFFFFFFFFFFFFF DUP2 GT ISZERO PUSH2 0xDE1 JUMPI PUSH2 0xDE0 PUSH2 0x56D JUMP JUMPDEST JUMPDEST PUSH2 0xDEB DUP3 SLOAD PUSH2 0xBEF JUMP JUMPDEST PUSH2 0xDF6 DUP3 DUP3 DUP6 PUSH2 0xD36 JUMP JUMPDEST PUSH0 PUSH1 0x20 SWAP1 POP PUSH1 0x1F DUP4 GT PUSH1 0x1 DUP2 EQ PUSH2 0xE27 JUMPI PUSH0 DUP5 ISZERO PUSH2 0xE15 JUMPI DUP3 DUP8 ADD MLOAD SWAP1 POP JUMPDEST PUSH2 0xE1F DUP6 DUP3 PUSH2 0xDA4 JUMP JUMPDEST DUP7 SSTORE POP PUSH2 0xE86 JUMP JUMPDEST PUSH1 0x1F NOT DUP5 AND PUSH2 0xE35 DUP7 PUSH2 0xC1F JUMP JUMPDEST PUSH0 JUMPDEST DUP3 DUP2 LT ISZERO PUSH2 0xE5C JUMPI DUP5 DUP10 ADD MLOAD DUP3 SSTORE PUSH1 0x1 DUP3 ADD SWAP2 POP PUSH1 0x20 DUP6 ADD SWAP5 POP PUSH1 0x20 DUP2 ADD SWAP1 POP PUSH2 0xE37 JUMP JUMPDEST DUP7 DUP4 LT ISZERO PUSH2 0xE79 JUMPI DUP5 DUP10 ADD MLOAD PUSH2 0xE75 PUSH1 0x1F DUP10 AND DUP3 PUSH2 0xD88 JUMP JUMPDEST DUP4 SSTORE POP JUMPDEST PUSH1 0x1 PUSH1 0x2 DUP9 MUL ADD DUP9 SSTORE POP POP POP JUMPDEST POP POP POP POP POP POP JUMP INVALID LOG2 PUSH5 0x6970667358 0x22 SLT KECCAK256 RETURNDATACOPY SWAP9 ISZERO 0xDC RETURN POP 0x4F 0xD0 CALLDATACOPY PUSH6 0x8A34F9BFD3F4 SELFDESTRUCT 0x1F LOG0 0xCC 0x23 CREATE SWAP2 ORIGIN 0xBC COINBASE COINBASE TLOAD SWAP16 EXP PUSH32 0xB264736F6C634300081E00330000000000000000000000000000000000000000 "
				},
				"gasEstimates": {
					"creation": {
						"codeDepositCost": "756000",
						"executionCost": "790",
						"totalCost": "756790"
					},
					"external": {
						"addage(uint256)": "46866",
						"addmentees(string)": "infinite",
						"mentee(uint256)": "infinite",
						"print()": "infinite",
						"setm(string,uint256,bool)": "infinite",
						"showlist()": "infinite",
						"viewlist()": "infinite"
					}
				},
				"methodIdentifiers": {
					"addage(uint256)": "278be2e8",
					"addmentees(string)": "d0ad7bed",
					"mentee(uint256)": "6ff4ea7c",
					"print()": "13bdfacd",
					"setm(string,uint256,bool)": "0d4e76b0",
					"showlist()": "8931940d",
					"viewlist()": "89347d60"
				}
			},
			"storageLayout": {
				"storage": [
					{
						"astId": 4,
						"contract": "simplestorage.sol:simplestorage",
						"label": "mentees",
						"offset": 0,
						"slot": "0",
						"type": "t_array(t_string_storage)dyn_storage"
					},
					{
						"astId": 19,
						"contract": "simplestorage.sol:simplestorage",
						"label": "age",
						"offset": 0,
						"slot": "1",
						"type": "t_array(t_uint256)dyn_storage"
					},
					{
						"astId": 60,
						"contract": "simplestorage.sol:simplestorage",
						"label": "mentee",
						"offset": 0,
						"slot": "2",
						"type": "t_array(t_struct(Mentee)56_storage)dyn_storage"
					}
				],
				"types": {
					"t_array(t_string_storage)dyn_storage": {
						"base": "t_string_storage",
						"encoding": "dynamic_array",
						"label": "string[]",
						"numberOfBytes": "32"
					},
					"t_array(t_struct(Mentee)56_storage)dyn_storage": {
						"base": "t_struct(Mentee)56_storage",
						"encoding": "dynamic_array",
						"label": "struct simplestorage.Mentee[]",
						"numberOfBytes": "32"
					},
					"t_array(t_uint256)dyn_storage": {
						"base": "t_uint256",
						"encoding": "dynamic_array",
						"label": "uint256[]",
						"numberOfBytes": "32"
					},
					"t_bool": {
						"encoding": "inplace",
						"label": "bool",
						"numberOfBytes": "1"
					},
					"t_string_storage": {
						"encoding": "bytes",
						"label": "string",
						"numberOfBytes": "32"
					},
					"t_struct(Mentee)56_storage": {
						"encoding": "inplace",
						"label": "struct simplestorage.Mentee",
						"members": [
							{
								"astId": 51,
								"contract": "simplestorage.sol:simplestorage",
								"label": "name",
								"offset": 0,
								"slot": "0",
								"type": "t_string_storage"
							},
							{
								"astId": 53,
								"contract": "simplestorage.sol:simplestorage",
								"label": "age",
								"offset": 0,
								"slot": "1",
								"type": "t_uint256"
							},
							{
								"astId": 55,
								"contract": "simplestorage.sol:simplestorage",
								"label": "ispresent",
								"offset": 0,
								"slot": "2",
								"type": "t_bool"
							}
						],
						"numberOfBytes": "96"
					},
					"t_uint256": {
						"encoding": "inplace",
						"label": "uint256",
						"numberOfBytes": "32"
					}
				}
			},
			"userdoc": {
				"kind": "user",
				"methods": {},
				"version": 1
			}
		}
	}
}