{"abi":[{"type":"constructor","inputs":[{"name":"adminAddress","type":"address","internalType":"address"}],"stateMutability":"nonpayable"},{"type":"function","name":"ADMIN_ROLE","inputs":[],"outputs":[{"name":"","type":"bytes32","internalType":"bytes32"}],"stateMutability":"view"},{"type":"function","name":"DEFAULT_ADMIN_ROLE","inputs":[],"outputs":[{"name":"","type":"bytes32","internalType":"bytes32"}],"stateMutability":"view"},{"type":"function","name":"REGISTRAR_ROLE","inputs":[],"outputs":[{"name":"","type":"bytes32","internalType":"bytes32"}],"stateMutability":"view"},{"type":"function","name":"adminTransfer","inputs":[{"name":"landId","type":"uint256","internalType":"uint256"},{"name":"to","type":"address","internalType":"address"},{"name":"reason","type":"string","internalType":"string"}],"outputs":[],"stateMutability":"nonpayable"},{"type":"function","name":"approve","inputs":[{"name":"to","type":"address","internalType":"address"},{"name":"tokenId","type":"uint256","internalType":"uint256"}],"outputs":[],"stateMutability":"nonpayable"},{"type":"function","name":"approveTransfer","inputs":[{"name":"landId","type":"uint256","internalType":"uint256"}],"outputs":[],"stateMutability":"nonpayable"},{"type":"function","name":"balanceOf","inputs":[{"name":"owner","type":"address","internalType":"address"}],"outputs":[{"name":"","type":"uint256","internalType":"uint256"}],"stateMutability":"view"},{"type":"function","name":"cancelTransfer","inputs":[{"name":"landId","type":"uint256","internalType":"uint256"}],"outputs":[],"stateMutability":"nonpayable"},{"type":"function","name":"executeTransfer","inputs":[{"name":"landId","type":"uint256","internalType":"uint256"},{"name":"reason","type":"string","internalType":"string"}],"outputs":[],"stateMutability":"nonpayable"},{"type":"function","name":"getApproved","inputs":[{"name":"tokenId","type":"uint256","internalType":"uint256"}],"outputs":[{"name":"","type":"address","internalType":"address"}],"stateMutability":"view"},{"type":"function","name":"getLand","inputs":[{"name":"landId","type":"uint256","internalType":"uint256"}],"outputs":[{"name":"","type":"tuple","internalType":"struct LandRegistry.Land","components":[{"name":"landId","type":"uint256","internalType":"uint256"},{"name":"owner","type":"address","internalType":"address"},{"name":"location","type":"string","internalType":"string"},{"name":"size","type":"uint256","internalType":"uint256"},{"name":"metadataURI","type":"string","internalType":"string"},{"name":"isVerified","type":"bool","internalType":"bool"},{"name":"registeredAt","type":"uint256","internalType":"uint256"},{"name":"lastTransferAt","type":"uint256","internalType":"uint256"}]}],"stateMutability":"view"},{"type":"function","name":"getLandsByOwner","inputs":[{"name":"owner","type":"address","internalType":"address"}],"outputs":[{"name":"","type":"uint256[]","internalType":"uint256[]"}],"stateMutability":"view"},{"type":"function","name":"getPendingTransfer","inputs":[{"name":"landId","type":"uint256","internalType":"uint256"}],"outputs":[{"name":"","type":"tuple","internalType":"struct LandRegistry.PendingTransfer","components":[{"name":"to","type":"address","internalType":"address"},{"name":"requestedAt","type":"uint256","internalType":"uint256"},{"name":"adminApproved","type":"bool","internalType":"bool"}]}],"stateMutability":"view"},{"type":"function","name":"getRoleAdmin","inputs":[{"name":"role","type":"bytes32","internalType":"bytes32"}],"outputs":[{"name":"","type":"bytes32","internalType":"bytes32"}],"stateMutability":"view"},{"type":"function","name":"getTransferHistory","inputs":[{"name":"landId","type":"uint256","internalType":"uint256"}],"outputs":[{"name":"","type":"tuple[]","internalType":"struct LandRegistry.TransferRecord[]","components":[{"name":"from","type":"address","internalType":"address"},{"name":"to","type":"address","internalType":"address"},{"name":"timestamp","type":"uint256","internalType":"uint256"},{"name":"reason","type":"string","internalType":"string"}]}],"stateMutability":"view"},{"type":"function","name":"grantRegistrarRole","inputs":[{"name":"account","type":"address","internalType":"address"}],"outputs":[],"stateMutability":"nonpayable"},{"type":"function","name":"grantRole","inputs":[{"name":"role","type":"bytes32","internalType":"bytes32"},{"name":"account","type":"address","internalType":"address"}],"outputs":[],"stateMutability":"nonpayable"},{"type":"function","name":"hasRole","inputs":[{"name":"role","type":"bytes32","internalType":"bytes32"},{"name":"account","type":"address","internalType":"address"}],"outputs":[{"name":"","type":"bool","internalType":"bool"}],"stateMutability":"view"},{"type":"function","name":"isApprovedForAll","inputs":[{"name":"owner","type":"address","internalType":"address"},{"name":"operator","type":"address","internalType":"address"}],"outputs":[{"name":"","type":"bool","internalType":"bool"}],"stateMutability":"view"},{"type":"function","name":"isLocationRegistered","inputs":[{"name":"location","type":"string","internalType":"string"}],"outputs":[{"name":"","type":"bool","internalType":"bool"}],"stateMutability":"view"},{"type":"function","name":"name","inputs":[],"outputs":[{"name":"","type":"string","internalType":"string"}],"stateMutability":"view"},{"type":"function","name":"ownerOf","inputs":[{"name":"tokenId","type":"uint256","internalType":"uint256"}],"outputs":[{"name":"","type":"address","internalType":"address"}],"stateMutability":"view"},{"type":"function","name":"pause","inputs":[],"outputs":[],"stateMutability":"nonpayable"},{"type":"function","name":"paused","inputs":[],"outputs":[{"name":"","type":"bool","internalType":"bool"}],"stateMutability":"view"},{"type":"function","name":"registerLand","inputs":[{"name":"owner","type":"address","internalType":"address"},{"name":"location","type":"string","internalType":"string"},{"name":"size","type":"uint256","internalType":"uint256"},{"name":"metadataURI","type":"string","internalType":"string"}],"outputs":[{"name":"landId","type":"uint256","internalType":"uint256"}],"stateMutability":"nonpayable"},{"type":"function","name":"renounceRole","inputs":[{"name":"role","type":"bytes32","internalType":"bytes32"},{"name":"callerConfirmation","type":"address","internalType":"address"}],"outputs":[],"stateMutability":"nonpayable"},{"type":"function","name":"requestTransfer","inputs":[{"name":"landId","type":"uint256","internalType":"uint256"},{"name":"to","type":"address","internalType":"address"}],"outputs":[],"stateMutability":"nonpayable"},{"type":"function","name":"revokeRegistrarRole","inputs":[{"name":"account","type":"address","internalType":"address"}],"outputs":[],"stateMutability":"nonpayable"},{"type":"function","name":"revokeRole","inputs":[{"name":"role","type":"bytes32","internalType":"bytes32"},{"name":"account","type":"address","internalType":"address"}],"outputs":[],"stateMutability":"nonpayable"},{"type":"function","name":"safeTransferFrom","inputs":[{"name":"from","type":"address","internalType":"address"},{"name":"to","type":"address","internalType":"address"},{"name":"tokenId","type":"uint256","internalType":"uint256"}],"outputs":[],"stateMutability":"nonpayable"},{"type":"function","name":"safeTransferFrom","inputs":[{"name":"from","type":"address","internalType":"address"},{"name":"to","type":"address","internalType":"address"},{"name":"tokenId","type":"uint256","internalType":"uint256"},{"name":"data","type":"bytes","internalType":"bytes"}],"outputs":[],"stateMutability":"nonpayable"},{"type":"function","name":"setApprovalForAll","inputs":[{"name":"operator","type":"address","internalType":"address"},{"name":"approved","type":"bool","internalType":"bool"}],"outputs":[],"stateMutability":"nonpayable"},{"type":"function","name":"supportsInterface","inputs":[{"name":"interfaceId","type":"bytes4","internalType":"bytes4"}],"outputs":[{"name":"","type":"bool","internalType":"bool"}],"stateMutability":"view"},{"type":"function","name":"symbol","inputs":[],"outputs":[{"name":"","type":"string","internalType":"string"}],"stateMutability":"view"},{"type":"function","name":"tokenURI","inputs":[{"name":"tokenId","type":"uint256","internalType":"uint256"}],"outputs":[{"name":"","type":"string","internalType":"string"}],"stateMutability":"view"},{"type":"function","name":"totalLands","inputs":[],"outputs":[{"name":"","type":"uint256","internalType":"uint256"}],"stateMutability":"view"},{"type":"function","name":"transferFrom","inputs":[{"name":"from","type":"address","internalType":"address"},{"name":"to","type":"address","internalType":"address"},{"name":"tokenId","type":"uint256","internalType":"uint256"}],"outputs":[],"stateMutability":"nonpayable"},{"type":"function","name":"unpause","inputs":[],"outputs":[],"stateMutability":"nonpayable"},{"type":"function","name":"updateMetadata","inputs":[{"name":"landId","type":"uint256","internalType":"uint256"},{"name":"newMetadataURI","type":"string","internalType":"string"}],"outputs":[],"stateMutability":"nonpayable"},{"type":"function","name":"verifyLand","inputs":[{"name":"landId","type":"uint256","internalType":"uint256"}],"outputs":[],"stateMutability":"nonpayable"},{"type":"event","name":"Approval","inputs":[{"name":"owner","type":"address","indexed":true,"internalType":"address"},{"name":"approved","type":"address","indexed":true,"internalType":"address"},{"name":"tokenId","type":"uint256","indexed":true,"internalType":"uint256"}],"anonymous":false},{"type":"event","name":"ApprovalForAll","inputs":[{"name":"owner","type":"address","indexed":true,"internalType":"address"},{"name":"operator","type":"address","indexed":true,"internalType":"address"},{"name":"approved","type":"bool","indexed":false,"internalType":"bool"}],"anonymous":false},{"type":"event","name":"BatchMetadataUpdate","inputs":[{"name":"_fromTokenId","type":"uint256","indexed":false,"internalType":"uint256"},{"name":"_toTokenId","type":"uint256","indexed":false,"internalType":"uint256"}],"anonymous":false},{"type":"event","name":"LandMetadataUpdated","inputs":[{"name":"landId","type":"uint256","indexed":true,"internalType":"uint256"},{"name":"newMetadataURI","type":"string","indexed":false,"internalType":"string"},{"name":"timestamp","type":"uint256","indexed":false,"internalType":"uint256"}],"anonymous":false},{"type":"event","name":"LandRegistered","inputs":[{"name":"landId","type":"uint256","indexed":true,"internalType":"uint256"},{"name":"owner","type":"address","indexed":true,"internalType":"address"},{"name":"location","type":"string","indexed":false,"internalType":"string"},{"name":"size","type":"uint256","indexed":false,"internalType":"uint256"},{"name":"metadataURI","type":"string","indexed":false,"internalType":"string"},{"name":"timestamp","type":"uint256","indexed":false,"internalType":"uint256"}],"anonymous":false},{"type":"event","name":"LandVerified","inputs":[{"name":"landId","type":"uint256","indexed":true,"internalType":"uint256"},{"name":"verifiedBy","type":"address","indexed":true,"internalType":"address"},{"name":"timestamp","type":"uint256","indexed":false,"internalType":"uint256"}],"anonymous":false},{"type":"event","name":"MetadataUpdate","inputs":[{"name":"_tokenId","type":"uint256","indexed":false,"internalType":"uint256"}],"anonymous":false},{"type":"event","name":"OwnershipTransferApproved","inputs":[{"name":"landId","type":"uint256","indexed":true,"internalType":"uint256"},{"name":"approvedBy","type":"address","indexed":true,"internalType":"address"},{"name":"timestamp","type":"uint256","indexed":false,"internalType":"uint256"}],"anonymous":false},{"type":"event","name":"OwnershipTransferRequested","inputs":[{"name":"landId","type":"uint256","indexed":true,"internalType":"uint256"},{"name":"from","type":"address","indexed":true,"internalType":"address"},{"name":"to","type":"address","indexed":true,"internalType":"address"},{"name":"timestamp","type":"uint256","indexed":false,"internalType":"uint256"}],"anonymous":false},{"type":"event","name":"OwnershipTransferred","inputs":[{"name":"landId","type":"uint256","indexed":true,"internalType":"uint256"},{"name":"from","type":"address","indexed":true,"internalType":"address"},{"name":"to","type":"address","indexed":true,"internalType":"address"},{"name":"timestamp","type":"uint256","indexed":false,"internalType":"uint256"},{"name":"reason","type":"string","indexed":false,"internalType":"string"}],"anonymous":false},{"type":"event","name":"Paused","inputs":[{"name":"account","type":"address","indexed":false,"internalType":"address"}],"anonymous":false},{"type":"event","name":"RoleAdminChanged","inputs":[{"name":"role","type":"bytes32","indexed":true,"internalType":"bytes32"},{"name":"previousAdminRole","type":"bytes32","indexed":true,"internalType":"bytes32"},{"name":"newAdminRole","type":"bytes32","indexed":true,"internalType":"bytes32"}],"anonymous":false},{"type":"event","name":"RoleGranted","inputs":[{"name":"role","type":"bytes32","indexed":true,"internalType":"bytes32"},{"name":"account","type":"address","indexed":true,"internalType":"address"},{"name":"sender","type":"address","indexed":true,"internalType":"address"}],"anonymous":false},{"type":"event","name":"RoleRevoked","inputs":[{"name":"role","type":"bytes32","indexed":true,"internalType":"bytes32"},{"name":"account","type":"address","indexed":true,"internalType":"address"},{"name":"sender","type":"address","indexed":true,"internalType":"address"}],"anonymous":false},{"type":"event","name":"Transfer","inputs":[{"name":"from","type":"address","indexed":true,"internalType":"address"},{"name":"to","type":"address","indexed":true,"internalType":"address"},{"name":"tokenId","type":"uint256","indexed":true,"internalType":"uint256"}],"anonymous":false},{"type":"event","name":"TransferRequestCancelled","inputs":[{"name":"landId","type":"uint256","indexed":true,"internalType":"uint256"},{"name":"cancelledBy","type":"address","indexed":true,"internalType":"address"},{"name":"timestamp","type":"uint256","indexed":false,"internalType":"uint256"}],"anonymous":false},{"type":"event","name":"Unpaused","inputs":[{"name":"account","type":"address","indexed":false,"internalType":"address"}],"anonymous":false},{"type":"error","name":"AccessControlBadConfirmation","inputs":[]},{"type":"error","name":"AccessControlUnauthorizedAccount","inputs":[{"name":"account","type":"address","internalType":"address"},{"name":"neededRole","type":"bytes32","internalType":"bytes32"}]},{"type":"error","name":"ERC721IncorrectOwner","inputs":[{"name":"sender","type":"address","internalType":"address"},{"name":"tokenId","type":"uint256","internalType":"uint256"},{"name":"owner","type":"address","internalType":"address"}]},{"type":"error","name":"ERC721InsufficientApproval","inputs":[{"name":"operator","type":"address","internalType":"address"},{"name":"tokenId","type":"uint256","internalType":"uint256"}]},{"type":"error","name":"ERC721InvalidApprover","inputs":[{"name":"approver","type":"address","internalType":"address"}]},{"type":"error","name":"ERC721InvalidOperator","inputs":[{"name":"operator","type":"address","internalType":"address"}]},{"type":"error","name":"ERC721InvalidOwner","inputs":[{"name":"owner","type":"address","internalType":"address"}]},{"type":"error","name":"ERC721InvalidReceiver","inputs":[{"name":"receiver","type":"address","internalType":"address"}]},{"type":"error","name":"ERC721InvalidSender","inputs":[{"name":"sender","type":"address","internalType":"address"}]},{"type":"error","name":"ERC721NonexistentToken","inputs":[{"name":"tokenId","type":"uint256","internalType":"uint256"}]},{"type":"error","name":"EmptyLocation","inputs":[]},{"type":"error","name":"EnforcedPause","inputs":[]},{"type":"error","name":"ExpectedPause","inputs":[]},{"type":"error","name":"InvalidAddress","inputs":[]},{"type":"error","name":"InvalidSize","inputs":[]},{"type":"error","name":"LandNotFound","inputs":[{"name":"landId","type":"uint256","internalType":"uint256"}]},{"type":"error","name":"LandNotVerified","inputs":[{"name":"landId","type":"uint256","internalType":"uint256"}]},{"type":"error","name":"LocationAlreadyRegistered","inputs":[{"name":"location","type":"string","internalType":"string"}]},{"type":"error","name":"NoPendingTransfer","inputs":[{"name":"landId","type":"uint256","internalType":"uint256"}]},{"type":"error","name":"NotLandOwner","inputs":[{"name":"landId","type":"uint256","internalType":"uint256"},{"name":"caller","type":"address","internalType":"address"}]},{"type":"error","name":"PendingTransferExists","inputs":[{"name":"landId","type":"uint256","internalType":"uint256"}]},{"type":"error","name":"ReentrancyGuardReentrantCall","inputs":[]},{"type":"error","name":"SelfTransfer","inputs":[]},{"type":"error","name":"TransferNotApproved","inputs":[{"name":"landId","type":"uint256","internalType":"uint256"}]}],"bytecode":{"object":"0x608060405234801562000010575f80fd5b506040516200374c3803806200374c833981016040819052620000339162000220565b6040518060400160405280600c81526020016b4c616e64526567697374727960a01b815250604051806040016040528060048152602001631310539160e21b815250815f9081620000859190620002ed565b506001620000948282620002ed565b5050506001620000b0620000ad6200014c60201b60201c565b90565b556001600160a01b038116620000d95760405163e6c4247b60e01b815260040160405180910390fd5b620000e55f8262000170565b50620001127fa49807205ce4d355092ef5a8a18f56e8913cf4a201fbe287825b095693c217758262000170565b506200013f7fedcc084d3dcd65a1f7f23c65c46722faca6953d28e43150a467cf43e5c3092388262000170565b50506001600955620003b9565b7f9b779b17422d0df92223018b32b4d1fa46e071723d6817e2486d003becc55f0090565b5f8281526007602090815260408083206001600160a01b038516845290915281205460ff1662000217575f8381526007602090815260408083206001600160a01b03861684529091529020805460ff19166001179055620001ce3390565b6001600160a01b0316826001600160a01b0316847f2f8788117e7eff1d82e926ec794901d17c78024a50270940304540a733656f0d60405160405180910390a45060016200021a565b505f5b92915050565b5f6020828403121562000231575f80fd5b81516001600160a01b038116811462000248575f80fd5b9392505050565b634e487b7160e01b5f52604160045260245ffd5b600181811c908216806200027857607f821691505b6020821081036200029757634e487b7160e01b5f52602260045260245ffd5b50919050565b601f821115620002e857805f5260205f20601f840160051c81016020851015620002c45750805b601f840160051c820191505b81811015620002e5575f8155600101620002d0565b50505b505050565b81516001600160401b038111156200030957620003096200024f565b62000321816200031a845462000263565b846200029d565b602080601f83116001811462000357575f84156200033f5750858301515b5f19600386901b1c1916600185901b178555620003b1565b5f85815260208120601f198616915b82811015620003875788860151825594840194600190910190840162000366565b5085821015620003a557878501515f19600388901b60f8161c191681555b505060018460011b0185555b505050505050565b61338580620003c75f395ff3fe608060405234801561000f575f80fd5b506004361061023f575f3560e01c80638456cb5911610135578063cacca4a0116100b4578063ee3ee5b811610079578063ee3ee5b814610505578063f02dd53f14610518578063f68e955314610538578063f91a7b891461054c578063f9c43bdf1461058c575f80fd5b8063cacca4a0146104a6578063d547741f146104b9578063d74a0d0e146104cc578063d8ccac38146104df578063e985e9c5146104f2575f80fd5b8063a217fddf116100fa578063a217fddf14610453578063a22cb4651461045a578063b88d4fde1461046d578063be00b50d14610480578063c87b56dd14610493575f80fd5b80638456cb59146103fd5780638bb27d021461040557806391d148541461042557806395d89b4114610438578063a0d596cc14610440575f80fd5b806340344232116101c157806359caecb51161018657806359caecb5146103a55780635c975abb146103b85780636352211e146103c357806370a08231146103d657806375b238fc146103e9575f80fd5b8063403442321461033957806342842e0e1461034c5780634539971e1461035f578063455b9d231461037257806353c8388e14610392575f80fd5b806323b872dd1161020757806323b872dd146102d6578063248a9ca3146102e95780632f2ff15d1461030b57806336568abe1461031e5780633f4ba83a14610331575f80fd5b806301ffc9a71461024357806306fdde031461026b578063081812fc14610280578063095ea7b3146102ab5780631d8de063146102c0575b5f80fd5b610256610251366004612998565b61059f565b60405190151581526020015b60405180910390f35b6102736105af565b6040516102629190612a00565b61029361028e366004612a12565b61063e565b6040516001600160a01b039091168152602001610262565b6102be6102b9366004612a44565b610665565b005b6102c8610674565b604051908152602001610262565b6102be6102e4366004612a6c565b610689565b6102c86102f7366004612a12565b5f9081526007602052604090206001015490565b6102be610319366004612aa5565b610717565b6102be61032c366004612aa5565b61073b565b6102be610773565b6102be610347366004612aa5565b610795565b6102be61035a366004612a6c565b610969565b6102be61036d366004612b14565b610983565b610385610380366004612b6a565b610c36565b6040516102629190612b83565b6102be6103a0366004612bc6565b610c9f565b6102be6103b3366004612a12565b610d91565b60085460ff16610256565b6102936103d1366004612a12565b610edc565b6102c86103e4366004612b6a565b610ee6565b6102c85f8051602061333083398151915281565b6102be610f2b565b610418610413366004612a12565b610f4a565b6040516102629190612c0e565b610256610433366004612aa5565b6110a5565b6102736110cf565b6102be61044e366004612b6a565b6110de565b6102c85f81565b6102be610468366004612ca5565b61110c565b6102be61047b366004612cf2565b611117565b6102be61048e366004612bc6565b61112f565b6102736104a1366004612a12565b6113dd565b6102be6104b4366004612a12565b6113e8565b6102be6104c7366004612aa5565b6114d1565b6102566104da366004612dc7565b6114f5565b6102c86104ed366004612e06565b611523565b610256610500366004612e8a565b611847565b6102be610513366004612b6a565b611874565b61052b610526366004612a12565b6118a2565b6040516102629190612eb2565b6102c85f805160206132f083398151915281565b61055f61055a366004612a12565b611ab3565b6040805182516001600160a01b031681526020808401519082015291810151151590820152606001610262565b6102be61059a366004612a12565b611b4b565b5f6105a982611bf0565b92915050565b60605f80546105bd90612f48565b80601f01602080910402602001604051908101604052809291908181526020018280546105e990612f48565b80156106345780601f1061060b57610100808354040283529160200191610634565b820191905f5260205f20905b81548152906001019060200180831161061757829003601f168201915b5050505050905090565b5f61064882611c14565b505f828152600460205260409020546001600160a01b03166105a9565b610670828233611c4b565b5050565b5f60016009546106849190612f8e565b905090565b6001600160a01b0382166106b757604051633250574960e11b81525f60048201526024015b60405180910390fd5b5f6106c3838333611c58565b9050836001600160a01b0316816001600160a01b031614610711576040516364283d7b60e01b81526001600160a01b03808616600483015260248201849052821660448201526064016106ae565b50505050565b5f8281526007602052604090206001015461073181611c6c565b6107118383611c76565b6001600160a01b03811633146107645760405163334bd91960e11b815260040160405180910390fd5b61076e8282611d07565b505050565b5f8051602061333083398151915261078a81611c6c565b610792611d72565b50565b81336107a082610edc565b6001600160a01b0316146107d057604051639f2a66ed60e01b8152600481018290523360248201526044016106ae565b825f6107db82611dc4565b6001600160a01b031603610805576040516316a2f8ed60e11b8152600481018290526024016106ae565b61080d611dde565b6001600160a01b0383166108345760405163e6c4247b60e01b815260040160405180910390fd5b336001600160a01b0384160361085d57604051634d9ecd9160e01b815260040160405180910390fd5b5f848152600a602052604090206005015460ff1661089157604051632394c4f160e21b8152600481018590526024016106ae565b5f848152600f60205260409020546001600160a01b0316156108c9576040516374c6d9bb60e11b8152600481018590526024016106ae565b604080516060810182526001600160a01b038581168083524260208085018281525f8688018181528c8252600f845290889020965187546001600160a01b031916961695909517865551600186015592516002909401805460ff1916941515949094179093559251918252339187917f93dfe0f95803b383e0fc94b5c9054d6e38ac4ab6af257c1669a285f0ededbaf8910160405180910390a450505050565b61076e83838360405180602001604052805f815250611117565b5f8051602061333083398151915261099a81611c6c565b845f6109a582611dc4565b6001600160a01b0316036109cf576040516316a2f8ed60e11b8152600481018290526024016106ae565b6109d7611dde565b6109df611e04565b6001600160a01b038516610a065760405163e6c4247b60e01b815260040160405180910390fd5b5f610a1087610edc565b9050856001600160a01b0316816001600160a01b031603610a4457604051634d9ecd9160e01b815260040160405180910390fd5b5f878152600f60205260409020546001600160a01b031615610a8f575f878152600f6020526040812080546001600160a01b03191681556001810191909155600201805460ff191690555b600e5f8881526020019081526020015f206040518060800160405280836001600160a01b03168152602001886001600160a01b0316815260200142815260200187878080601f0160208091040260200160405190810160405280939291908181526020018383808284375f920182905250939094525050835460018082018655948252602091829020845160049092020180546001600160a01b03199081166001600160a01b0393841617825592850151958101805490931695909116949094179055506040810151600283015560608101519091906003820190610b749082612fe5565b5050505f878152600a602052604090206001810180546001600160a01b0319166001600160a01b038916179055426007820155610bb18289611e1f565b610bbb8789611f34565b610bc682888a611f71565b866001600160a01b0316826001600160a01b0316897ff4d95fc8796a54b02be0f62c2ba539fdb5bc830f9178ca1534e4d35af6e8d71e428a8a604051610c0e939291906130c9565b60405180910390a45050610c2e60015f8051602061331083398151915255565b505050505050565b6001600160a01b0381165f908152600c6020908152604091829020805483518184028101840190945280845260609392830182828015610c9357602002820191905f5260205f20905b815481526020019060010190808311610c7f575b50505050509050919050565b5f805160206132f0833981519152610cb681611c6c565b835f610cc182611dc4565b6001600160a01b031603610ceb576040516316a2f8ed60e11b8152600481018290526024016106ae565b610cf3611dde565b5f858152600a60205260409020600401610d0e8486836130eb565b50610d4e8585858080601f0160208091040260200160405190810160405280939291908181526020018383808284375f9201919091525061201e92505050565b847fdbf39517a4f5e84d2f199087c39a2c276e34be7f5746300828c7eff5be0b5a6a858542604051610d82939291906131a5565b60405180910390a25050505050565b805f610d9c82611dc4565b6001600160a01b031603610dc6576040516316a2f8ed60e11b8152600481018290526024016106ae565b610dce611dde565b5f33610dd984610edc565b6001600160a01b03161490505f610dfd5f80516020613330833981519152336110a5565b905081158015610e0b575080155b15610e3257604051639f2a66ed60e01b8152600481018590523360248201526044016106ae565b5f848152600f60205260409020546001600160a01b0316610e6957604051633cb794ef60e11b8152600481018590526024016106ae565b5f848152600f602052604080822080546001600160a01b031916815560018101929092556002909101805460ff1916905551339085907f3b14be3323bc35489fac521fbbe99a1cd6f526e66f309d90ffd7ae56d3857a7990610ece9042815260200190565b60405180910390a350505050565b5f6105a982611c14565b5f6001600160a01b038216610f10576040516322718ad960e21b81525f60048201526024016106ae565b506001600160a01b03165f9081526003602052604090205490565b5f80516020613330833981519152610f4281611c6c565b61079261206d565b6060815f610f5782611dc4565b6001600160a01b031603610f81576040516316a2f8ed60e11b8152600481018290526024016106ae565b5f838152600e6020908152604080832080548251818502810185019093528083529193909284015b82821015611098575f848152602090819020604080516080810182526004860290920180546001600160a01b0390811684526001820154169383019390935260028301549082015260038201805491929160608401919061100990612f48565b80601f016020809104026020016040519081016040528092919081815260200182805461103590612f48565b80156110805780601f1061105757610100808354040283529160200191611080565b820191905f5260205f20905b81548152906001019060200180831161106357829003601f168201915b50505050508152505081526020019060010190610fa9565b5050505091505b50919050565b5f9182526007602090815260408084206001600160a01b0393909316845291905290205460ff1690565b6060600180546105bd90612f48565b5f805160206133308339815191526110f581611c6c565b61076e5f805160206132f083398151915283611c76565b6106703383836120aa565b611122848484610689565b6107113385858585612169565b823361113a82610edc565b6001600160a01b03161461116a57604051639f2a66ed60e01b8152600481018290523360248201526044016106ae565b835f61117582611dc4565b6001600160a01b03160361119f576040516316a2f8ed60e11b8152600481018290526024016106ae565b6111a7611dde565b6111af611e04565b5f858152600f6020526040902080546001600160a01b03166111e757604051633cb794ef60e11b8152600481018790526024016106ae565b600281015460ff1661120f57604051630ef082d760e21b8152600481018790526024016106ae565b80545f878152600e60209081526040918290208251608081018452338082526001600160a01b0390951681840181905242828601528451601f8b01859004850281018501909552898552939192909160608301918b908b90819084018382808284375f920182905250939094525050835460018082018655948252602091829020845160049092020180546001600160a01b03199081166001600160a01b03938416178255928501519581018054909316959091169490941790555060408101516002830155606081015190919060038201906112ec9082612fe5565b5050505f888152600a602052604090206001810180546001600160a01b0319166001600160a01b038416179055426007820155611329838a611e1f565b611333828a611f34565b5f898152600f6020526040812080546001600160a01b03191681556001810191909155600201805460ff1916905561136c83838b611f71565b816001600160a01b0316836001600160a01b03168a7ff4d95fc8796a54b02be0f62c2ba539fdb5bc830f9178ca1534e4d35af6e8d71e428c8c6040516113b4939291906130c9565b60405180910390a4505050506113d660015f8051602061331083398151915255565b5050505050565b60606105a982612288565b5f805160206133308339815191526113ff81611c6c565b815f61140a82611dc4565b6001600160a01b031603611434576040516316a2f8ed60e11b8152600481018290526024016106ae565b61143c611dde565b5f838152600f60205260409020546001600160a01b031661147357604051633cb794ef60e11b8152600481018490526024016106ae565b5f838152600f602052604090819020600201805460ff1916600117905551339084907ffce7b52f9c682c4c193f1bf525dfa5d1e77402a22d6601bd3e1a2ee613e33bc5906114c49042815260200190565b60405180910390a3505050565b5f828152600760205260409020600101546114eb81611c6c565b6107118383611d07565b5f600b83836040516115089291906131c8565b9081526040519081900360200190205460ff16905092915050565b5f5f805160206132f083398151915261153b81611c6c565b611543611dde565b61154b611e04565b6001600160a01b0388166115725760405163e6c4247b60e01b815260040160405180910390fd5b845f0361159257604051630ffd11ad60e01b815260040160405180910390fd5b5f8690036115b357604051632656eee560e01b815260040160405180910390fd5b600b87876040516115c59291906131c8565b9081526040519081900360200190205460ff16156115fa57868660405163a5fa7eeb60e01b81526004016106ae9291906131d7565b60098054905f611609836131ea565b919050559150604051806101000160405280838152602001896001600160a01b0316815260200188888080601f0160208091040260200160405190810160405280939291908181526020018383808284375f92019190915250505090825250602080820188905260408051601f880183900483028101830182528781529201919087908790819084018382808284375f9201829052509385525050506020808301829052426040808501829052606090940152858252600a81529082902083518155908301516001820180546001600160a01b0319166001600160a01b039092169190911790559082015160028201906117039082612fe5565b5060608201516003820155608082015160048201906117229082612fe5565b5060a082015160058201805460ff191691151591909117905560c0820151600682015560e090910151600790910155604051600190600b90611767908a908a906131c8565b908152604051908190036020019020805491151560ff199092169190911790556117918883611f34565b61179b8883612301565b6117da8285858080601f0160208091040260200160405190810160405280939291908181526020018383808284375f9201919091525061201e92505050565b876001600160a01b0316827f0f6c2a5ef0725496d4185a3b20c8dad00524532056afe6a4d7014cbaa983569b89898989894260405161181e96959493929190613202565b60405180910390a361183c60015f8051602061331083398151915255565b509695505050505050565b6001600160a01b039182165f90815260056020908152604080832093909416825291909152205460ff1690565b5f8051602061333083398151915261188b81611c6c565b61076e5f805160206132f083398151915283611d07565b6118ef6040518061010001604052805f81526020015f6001600160a01b03168152602001606081526020015f8152602001606081526020015f151581526020015f81526020015f81525090565b815f6118fa82611dc4565b6001600160a01b031603611924576040516316a2f8ed60e11b8152600481018290526024016106ae565b5f838152600a60209081526040918290208251610100810184528154815260018201546001600160a01b031692810192909252600281018054929391929184019161196e90612f48565b80601f016020809104026020016040519081016040528092919081815260200182805461199a90612f48565b80156119e55780601f106119bc576101008083540402835291602001916119e5565b820191905f5260205f20905b8154815290600101906020018083116119c857829003601f168201915b5050505050815260200160038201548152602001600482018054611a0890612f48565b80601f0160208091040260200160405190810160405280929190818152602001828054611a3490612f48565b8015611a7f5780601f10611a5657610100808354040283529160200191611a7f565b820191905f5260205f20905b815481529060010190602001808311611a6257829003601f168201915b5050509183525050600582015460ff1615156020820152600682015460408201526007909101546060909101529392505050565b604080516060810182525f8082526020820181905291810191909152815f611ada82611dc4565b6001600160a01b031603611b04576040516316a2f8ed60e11b8152600481018290526024016106ae565b50505f908152600f6020908152604091829020825160608101845281546001600160a01b031681526001820154928101929092526002015460ff1615159181019190915290565b5f80516020613330833981519152611b6281611c6c565b815f611b6d82611dc4565b6001600160a01b031603611b97576040516316a2f8ed60e11b8152600481018290526024016106ae565b611b9f611dde565b5f838152600a602052604090819020600501805460ff1916600117905551339084907f3a50d62f47e18d9f4e9816e3ff154bcc0d81d99bec4e87565299b7c5d1a0a61b906114c49042815260200190565b5f6001600160e01b03198216637965db0b60e01b14806105a957506105a982612362565b5f80611c1f83611dc4565b90506001600160a01b0381166105a957604051637e27328960e01b8152600481018490526024016106ae565b61076e8383836001612386565b5f611c6484848461248a565b949350505050565b6107928133612577565b5f611c8183836110a5565b611d00575f8381526007602090815260408083206001600160a01b03861684529091529020805460ff19166001179055611cb83390565b6001600160a01b0316826001600160a01b0316847f2f8788117e7eff1d82e926ec794901d17c78024a50270940304540a733656f0d60405160405180910390a45060016105a9565b505f6105a9565b5f611d1283836110a5565b15611d00575f8381526007602090815260408083206001600160a01b0386168085529252808320805460ff1916905551339286917ff6391f5c32d9c69d2a47ea670b442974b53935d1edc7fd64eb21e047a839171b9190a45060016105a9565b611d7a6125b0565b6008805460ff191690557f5db9ee0a495bf2e6ff9c91a7834c1ba4fdd244a5e8aa4e537bd38aeae4b073aa335b6040516001600160a01b03909116815260200160405180910390a1565b5f908152600260205260409020546001600160a01b031690565b60085460ff1615611e025760405163d93c066560e01b815260040160405180910390fd5b565b611e0c6125d3565b60025f8051602061331083398151915255565b6001600160a01b0382165f908152600c6020526040812054611e4390600190612f8e565b5f838152600d6020526040902054909150808214611ee3576001600160a01b0384165f908152600c60205260408120805484908110611e8457611e84613242565b905f5260205f200154905080600c5f876001600160a01b03166001600160a01b031681526020019081526020015f208381548110611ec457611ec4613242565b5f918252602080832090910192909255918252600d9052604090208190555b6001600160a01b0384165f908152600c60205260409020805480611f0957611f09613256565b5f828152602080822083015f19908101839055909201909255938152600d9093525050604081205550565b6001600160a01b039091165f908152600c602081815260408084208054868652600d84529185208290559282526001810183559183529091200155565b6001600160a01b038216611f9a57604051633250574960e11b81525f60048201526024016106ae565b5f611fa683835f611c58565b90506001600160a01b038116611fd257604051637e27328960e01b8152600481018390526024016106ae565b836001600160a01b0316816001600160a01b031614610711576040516364283d7b60e01b81526001600160a01b03808616600483015260248201849052821660448201526064016106ae565b5f8281526006602052604090206120358282612fe5565b506040518281527ff8e1a15aba9398e019f0b49df1a4fde98ee17ae345cb5f6b5e2c27f5033e8ce79060200160405180910390a15050565b612075611dde565b6008805460ff191660011790557f62e78cea01bee320cd4e420270b5ea74000d11b0c9f74754ebdbfc544b05a258611da73390565b6001600160a01b0383166120d35760405163a9fbf51f60e01b81525f60048201526024016106ae565b6001600160a01b03821661210557604051630b61174360e31b81526001600160a01b03831660048201526024016106ae565b6001600160a01b038381165f81815260056020908152604080832094871680845294825291829020805460ff191686151590811790915591519182527f17307eab39ab6107e8899845ad3d59bd9653f200f220920489ca2b5937696c3191016114c4565b6001600160a01b0383163b156113d657604051630a85bd0160e11b81526001600160a01b0384169063150b7a02906121ab90889088908790879060040161326a565b6020604051808303815f875af19250505080156121e5575060408051601f3d908101601f191682019092526121e2918101906132a6565b60015b61224c573d808015612212576040519150601f19603f3d011682016040523d82523d5f602084013e612217565b606091505b5080515f0361224457604051633250574960e11b81526001600160a01b03851660048201526024016106ae565b805160208201fd5b6001600160e01b03198116630a85bd0160e11b14610c2e57604051633250574960e11b81526001600160a01b03851660048201526024016106ae565b606061229382611c14565b505f6122a960408051602081019091525f815290565b90505f6122b584612602565b905081515f036122c6579392505050565b8051156122f85781816040516020016122e09291906132c1565b60405160208183030381529060405292505050919050565b611c6484612697565b6001600160a01b03821661232a57604051633250574960e11b81525f60048201526024016106ae565b5f61233683835f611c58565b90506001600160a01b0381161561076e576040516339e3563760e11b81525f60048201526024016106ae565b5f6001600160e01b03198216632483248360e11b14806105a957506105a982612708565b808061239a57506001600160a01b03821615155b1561245b575f6123a984611c14565b90506001600160a01b038316158015906123d55750826001600160a01b0316816001600160a01b031614155b80156123e857506123e68184611847565b155b156124115760405163a9fbf51f60e01b81526001600160a01b03841660048201526024016106ae565b81156124595783856001600160a01b0316826001600160a01b03167f8c5be1e5ebec7d5bd14f71427d1e84f3dd0314c0f7b2291e5b200ac8c7c3b92560405160405180910390a45b505b50505f90815260046020526040902080546001600160a01b0319166001600160a01b0392909216919091179055565b5f8061249584611dc4565b90506001600160a01b038316156124b1576124b1818486612757565b6001600160a01b038116156124eb576124cc5f855f80612386565b6001600160a01b0381165f90815260036020526040902080545f190190555b6001600160a01b03851615612519576001600160a01b0385165f908152600360205260409020805460010190555b5f8481526002602052604080822080546001600160a01b0319166001600160a01b0389811691821790925591518793918516917fddf252ad1be2c89b69c2b068fc378daa952ba7f163c4a11628f55a4df523b3ef91a4949350505050565b61258182826110a5565b6106705760405163e2517d3f60e01b81526001600160a01b0382166004820152602481018390526044016106ae565b60085460ff16611e0257604051638dfc202b60e01b815260040160405180910390fd5b5f8051602061331083398151915254600203611e0257604051633ee5aeb560e01b815260040160405180910390fd5b5f81815260066020526040902080546060919061261e90612f48565b80601f016020809104026020016040519081016040528092919081815260200182805461264a90612f48565b8015610c935780601f1061266c57610100808354040283529160200191610c93565b820191905f5260205f20905b8154815290600101906020018083116126785750939695505050505050565b60606126a282611c14565b505f6126b860408051602081019091525f815290565b90505f8151116126d65760405180602001604052805f815250612701565b806126e0846127bb565b6040516020016126f19291906132c1565b6040516020818303038152906040525b9392505050565b5f6001600160e01b031982166380ac58cd60e01b148061273857506001600160e01b03198216635b5e139f60e01b145b806105a957506301ffc9a760e01b6001600160e01b03198316146105a9565b61276283838361284b565b61076e576001600160a01b03831661279057604051637e27328960e01b8152600481018290526024016106ae565b60405163177e802f60e01b81526001600160a01b0383166004820152602481018290526044016106ae565b60605f6127c7836128ac565b60010190505f8167ffffffffffffffff8111156127e6576127e6612cde565b6040519080825280601f01601f191660200182016040528015612810576020820181803683370190505b5090508181016020015b5f19016f181899199a1a9b1b9c1cb0b131b232b360811b600a86061a8153600a850494508461281a57509392505050565b5f6001600160a01b03831615801590611c645750826001600160a01b0316846001600160a01b0316148061288457506128848484611847565b80611c645750505f908152600460205260409020546001600160a01b03908116911614919050565b5f8072184f03e93ff9f4daa797ed6e38ed64bf6a1f0160401b83106128ea5772184f03e93ff9f4daa797ed6e38ed64bf6a1f0160401b830492506040015b6d04ee2d6d415b85acef81000000008310612916576d04ee2d6d415b85acef8100000000830492506020015b662386f26fc10000831061293457662386f26fc10000830492506010015b6305f5e100831061294c576305f5e100830492506008015b612710831061296057612710830492506004015b60648310612972576064830492506002015b600a83106105a95760010192915050565b6001600160e01b031981168114610792575f80fd5b5f602082840312156129a8575f80fd5b813561270181612983565b5f5b838110156129cd5781810151838201526020016129b5565b50505f910152565b5f81518084526129ec8160208601602086016129b3565b601f01601f19169290920160200192915050565b602081525f61270160208301846129d5565b5f60208284031215612a22575f80fd5b5035919050565b80356001600160a01b0381168114612a3f575f80fd5b919050565b5f8060408385031215612a55575f80fd5b612a5e83612a29565b946020939093013593505050565b5f805f60608486031215612a7e575f80fd5b612a8784612a29565b9250612a9560208501612a29565b9150604084013590509250925092565b5f8060408385031215612ab6575f80fd5b82359150612ac660208401612a29565b90509250929050565b5f8083601f840112612adf575f80fd5b50813567ffffffffffffffff811115612af6575f80fd5b602083019150836020828501011115612b0d575f80fd5b9250929050565b5f805f8060608587031215612b27575f80fd5b84359350612b3760208601612a29565b9250604085013567ffffffffffffffff811115612b52575f80fd5b612b5e87828801612acf565b95989497509550505050565b5f60208284031215612b7a575f80fd5b61270182612a29565b602080825282518282018190525f9190848201906040850190845b81811015612bba57835183529284019291840191600101612b9e565b50909695505050505050565b5f805f60408486031215612bd8575f80fd5b83359250602084013567ffffffffffffffff811115612bf5575f80fd5b612c0186828701612acf565b9497909650939450505050565b5f60208083018184528085518083526040925060408601915060408160051b8701018488015f5b83811015612c9757888303603f19018552815180516001600160a01b0390811685528882015116888501528681015187850152606090810151608091850182905290612c83818601836129d5565b968901969450505090860190600101612c35565b509098975050505050505050565b5f8060408385031215612cb6575f80fd5b612cbf83612a29565b915060208301358015158114612cd3575f80fd5b809150509250929050565b634e487b7160e01b5f52604160045260245ffd5b5f805f8060808587031215612d05575f80fd5b612d0e85612a29565b9350612d1c60208601612a29565b925060408501359150606085013567ffffffffffffffff80821115612d3f575f80fd5b818701915087601f830112612d52575f80fd5b813581811115612d6457612d64612cde565b604051601f8201601f19908116603f01168101908382118183101715612d8c57612d8c612cde565b816040528281528a6020848701011115612da4575f80fd5b826020860160208301375f60208483010152809550505050505092959194509250565b5f8060208385031215612dd8575f80fd5b823567ffffffffffffffff811115612dee575f80fd5b612dfa85828601612acf565b90969095509350505050565b5f805f805f8060808789031215612e1b575f80fd5b612e2487612a29565b9550602087013567ffffffffffffffff80821115612e40575f80fd5b612e4c8a838b01612acf565b9097509550604089013594506060890135915080821115612e6b575f80fd5b50612e7889828a01612acf565b979a9699509497509295939492505050565b5f8060408385031215612e9b575f80fd5b612ea483612a29565b9150612ac660208401612a29565b602081528151602082015260018060a01b0360208301511660408201525f6040830151610100806060850152612eec6101208501836129d5565b9150606085015160808501526080850151601f198584030160a0860152612f1383826129d5565b92505060a0850151612f2960c086018215159052565b5060c085015160e085015260e085015181850152508091505092915050565b600181811c90821680612f5c57607f821691505b60208210810361109f57634e487b7160e01b5f52602260045260245ffd5b634e487b7160e01b5f52601160045260245ffd5b818103818111156105a9576105a9612f7a565b601f82111561076e57805f5260205f20601f840160051c81016020851015612fc65750805b601f840160051c820191505b818110156113d6575f8155600101612fd2565b815167ffffffffffffffff811115612fff57612fff612cde565b6130138161300d8454612f48565b84612fa1565b602080601f831160018114613046575f841561302f5750858301515b5f19600386901b1c1916600185901b178555610c2e565b5f85815260208120601f198616915b8281101561307457888601518255948401946001909101908401613055565b508582101561309157878501515f19600388901b60f8161c191681555b5050505050600190811b01905550565b81835281816020850137505f828201602090810191909152601f909101601f19169091010190565b838152604060208201525f6130e26040830184866130a1565b95945050505050565b67ffffffffffffffff83111561310357613103612cde565b613117836131118354612f48565b83612fa1565b5f601f841160018114613148575f85156131315750838201355b5f19600387901b1c1916600186901b1783556113d6565b5f83815260208120601f198716915b828110156131775786850135825560209485019460019092019101613157565b5086821015613193575f1960f88860031b161c19848701351681555b505060018560011b0183555050505050565b604081525f6131b86040830185876130a1565b9050826020830152949350505050565b818382375f9101908152919050565b602081525f611c646020830184866130a1565b5f600182016131fb576131fb612f7a565b5060010190565b608081525f61321560808301888a6130a1565b866020840152828103604084015261322e8186886130a1565b915050826060830152979650505050505050565b634e487b7160e01b5f52603260045260245ffd5b634e487b7160e01b5f52603160045260245ffd5b6001600160a01b03858116825284166020820152604081018390526080606082018190525f9061329c908301846129d5565b9695505050505050565b5f602082840312156132b6575f80fd5b815161270181612983565b5f83516132d28184602088016129b3565b8351908301906132e68183602088016129b3565b0194935050505056feedcc084d3dcd65a1f7f23c65c46722faca6953d28e43150a467cf43e5c3092389b779b17422d0df92223018b32b4d1fa46e071723d6817e2486d003becc55f00a49807205ce4d355092ef5a8a18f56e8913cf4a201fbe287825b095693c21775a264697066735822122018e1845783427e738a722d1d9729dd0c533b36dee16d07491532041c18f913ae64736f6c63430008180033","linkReferences":{}},"methodIdentifiers":{"ADMIN_ROLE()":"75b238fc","DEFAULT_ADMIN_ROLE()":"a217fddf","REGISTRAR_ROLE()":"f68e9553","adminTransfer(uint256,address,string)":"4539971e","approve(address,uint256)":"095ea7b3","approveTransfer(uint256)":"cacca4a0","balanceOf(address)":"70a08231","cancelTransfer(uint256)":"59caecb5","executeTransfer(uint256,string)":"be00b50d","getApproved(uint256)":"081812fc","getLand(uint256)":"f02dd53f","getLandsByOwner(address)":"455b9d23","getPendingTransfer(uint256)":"f91a7b89","getRoleAdmin(bytes32)":"248a9ca3","getTransferHistory(uint256)":"8bb27d02","grantRegistrarRole(address)":"a0d596cc","grantRole(bytes32,address)":"2f2ff15d","hasRole(bytes32,address)":"91d14854","isApprovedForAll(address,address)":"e985e9c5","isLocationRegistered(string)":"d74a0d0e","name()":"06fdde03","ownerOf(uint256)":"6352211e","pause()":"8456cb59","paused()":"5c975abb","registerLand(address,string,uint256,string)":"d8ccac38","renounceRole(bytes32,address)":"36568abe","requestTransfer(uint256,address)":"40344232","revokeRegistrarRole(address)":"ee3ee5b8","revokeRole(bytes32,address)":"d547741f","safeTransferFrom(address,address,uint256)":"42842e0e","safeTransferFrom(address,address,uint256,bytes)":"b88d4fde","setApprovalForAll(address,bool)":"a22cb465","supportsInterface(bytes4)":"01ffc9a7","symbol()":"95d89b41","tokenURI(uint256)":"c87b56dd","totalLands()":"1d8de063","transferFrom(address,address,uint256)":"23b872dd","unpause()":"3f4ba83a","updateMetadata(uint256,string)":"53c8388e","verifyLand(uint256)":"f9c43bdf"},"id":45}