{"abi":[{"type":"function","name":"deposit","inputs":[],"outputs":[],"stateMutability":"payable"},{"type":"function","name":"getBalance","inputs":[{"name":"user","type":"address","internalType":"address"}],"outputs":[{"name":"","type":"uint256","internalType":"uint256"}],"stateMutability":"view"},{"type":"function","name":"getTotalBalance","inputs":[],"outputs":[{"name":"","type":"uint256","internalType":"uint256"}],"stateMutability":"view"},{"type":"function","name":"totalDeposits","inputs":[],"outputs":[{"name":"","type":"uint256","internalType":"uint256"}],"stateMutability":"view"},{"type":"function","name":"withdraw","inputs":[{"name":"amount","type":"uint256","internalType":"uint256"}],"outputs":[],"stateMutability":"nonpayable"},{"type":"event","name":"Deposit","inputs":[{"name":"user","type":"address","indexed":true,"internalType":"address"},{"name":"amount","type":"uint256","indexed":false,"internalType":"uint256"}],"anonymous":false},{"type":"event","name":"Withdraw","inputs":[{"name":"user","type":"address","indexed":true,"internalType":"address"},{"name":"amount","type":"uint256","indexed":false,"internalType":"uint256"}],"anonymous":false}],"bytecode":{"object":"0x6080604052348015600e575f5ffd5b506107a18061001c5f395ff3fe608060405260043610610049575f3560e01c806312b583491461004d5780632e1a7d4d146100775780637d8820971461009f578063d0e30db0146100c9578063f8b2cb4f146100d3575b5f5ffd5b348015610058575f5ffd5b5061006161010f565b60405161006e9190610458565b60405180910390f35b348015610082575f5ffd5b5061009d6004803603810190610098919061049f565b610116565b005b3480156100aa575f5ffd5b506100b36102f9565b6040516100c09190610458565b60405180910390f35b6100d16102ff565b005b3480156100de575f5ffd5b506100f960048036038101906100f49190610524565b6103fb565b6040516101069190610458565b60405180910390f35b5f47905090565b805f5f3373ffffffffffffffffffffffffffffffffffffffff1673ffffffffffffffffffffffffffffffffffffffff1681526020019081526020015f20541015610195576040517f08c379a000000000000000000000000000000000000000000000000000000000815260040161018c906105a9565b60405180910390fd5b805f5f3373ffffffffffffffffffffffffffffffffffffffff1673ffffffffffffffffffffffffffffffffffffffff1681526020019081526020015f205f8282546101e091906105f4565b925050819055508060015f8282546101f891906105f4565b925050819055505f3373ffffffffffffffffffffffffffffffffffffffff168260405161022490610654565b5f6040518083038185875af1925050503d805f811461025e576040519150601f19603f3d011682016040523d82523d5f602084013e610263565b606091505b50509050806102a7576040517f08c379a000000000000000000000000000000000000000000000000000000000815260040161029e906106b2565b60405180910390fd5b3373ffffffffffffffffffffffffffffffffffffffff167f884edad9ce6fa2440d8a54cc123490eb96d2768479d49ff9c7366125a9424364836040516102ed9190610458565b60405180910390a25050565b60015481565b5f3411610341576040517f08c379a00000000000000000000000000000000000000000000000000000000081526004016103389061071a565b60405180910390fd5b345f5f3373ffffffffffffffffffffffffffffffffffffffff1673ffffffffffffffffffffffffffffffffffffffff1681526020019081526020015f205f82825461038c9190610738565b925050819055503460015f8282546103a49190610738565b925050819055503373ffffffffffffffffffffffffffffffffffffffff167fe1fffcc4923d04b559f4d29a8bfc6cda04eb5b0d3c460751c2402c5c5cc9109c346040516103f19190610458565b60405180910390a2565b5f5f5f8373ffffffffffffffffffffffffffffffffffffffff1673ffffffffffffffffffffffffffffffffffffffff1681526020019081526020015f20549050919050565b5f819050919050565b61045281610440565b82525050565b5f60208201905061046b5f830184610449565b92915050565b5f5ffd5b61047e81610440565b8114610488575f5ffd5b50565b5f8135905061049981610475565b92915050565b5f602082840312156104b4576104b3610471565b5b5f6104c18482850161048b565b91505092915050565b5f73ffffffffffffffffffffffffffffffffffffffff82169050919050565b5f6104f3826104ca565b9050919050565b610503816104e9565b811461050d575f5ffd5b50565b5f8135905061051e816104fa565b92915050565b5f6020828403121561053957610538610471565b5b5f61054684828501610510565b91505092915050565b5f82825260208201905092915050565b7f496e73756666696369656e742062616c616e63650000000000000000000000005f82015250565b5f61059360148361054f565b915061059e8261055f565b602082019050919050565b5f6020820190508181035f8301526105c081610587565b9050919050565b7f4e487b71000000000000000000000000000000000000000000000000000000005f52601160045260245ffd5b5f6105fe82610440565b915061060983610440565b9250828203905081811115610621576106206105c7565b5b92915050565b5f81905092915050565b50565b5f61063f5f83610627565b915061064a82610631565b5f82019050919050565b5f61065e82610634565b9150819050919050565b7f5472616e73666572206661696c656400000000000000000000000000000000005f82015250565b5f61069c600f8361054f565b91506106a782610668565b602082019050919050565b5f6020820190508181035f8301526106c981610690565b9050919050565b7f4465706f736974206d7573742062652067726561746572207468616e203000005f82015250565b5f610704601e8361054f565b915061070f826106d0565b602082019050919050565b5f6020820190508181035f830152610731816106f8565b9050919050565b5f61074282610440565b915061074d83610440565b9250828201905080821115610765576107646105c7565b5b9291505056fea26469706673582212201137dabd553a8d8b24c3173c5f1d144bfe888530c63b2dd2933c5f0626891f5664736f6c63430008210033","linkReferences":{}},"methodIdentifiers":{"deposit()":"d0e30db0","getBalance(address)":"f8b2cb4f","getTotalBalance()":"12b58349","totalDeposits()":"7d882097","withdraw(uint256)":"2e1a7d4d"},"id":21}